
build/main.elf:     file format elf32-littlearm

Sections:
Idx Name          Size      VMA       LMA       File off  Algn
  0 .text         000091a8  08000000  0c000000  00010000  2**6
                  CONTENTS, ALLOC, LOAD, READONLY, CODE
  1 .ARM.exidx    00000008  080091a8  0c0091a8  000191a8  2**2
                  CONTENTS, ALLOC, LOAD, READONLY, DATA
  2 Stack         00000800  10000000  10000000  00030000  2**0
                  ALLOC
  3 .ram_code     00000000  10000800  10000800  000209b4  2**0
                  CONTENTS
  4 PSRAM_DATA    00000000  10000800  10000800  000209b4  2**0
                  CONTENTS
  5 PSRAM_BSS     00000000  10000800  10000800  000209b4  2**0
                  CONTENTS
  6 .data         000009b4  20000000  0c0091b0  00020000  2**3
                  CONTENTS, ALLOC, LOAD, DATA
  7 .bss          000000f4  200009b4  0c009b64  000209b4  2**2
                  ALLOC
  8 .no_init      00000014  2000ffc0  2000ffc0  0002ffc0  2**2
                  ALLOC
  9 DSRAM2_DATA   00000000  30000000  30000000  000209b4  2**0
                  CONTENTS
 10 DSRAM2_BSS    00000000  30000000  30000000  000209b4  2**0
                  CONTENTS
 11 .debug_aranges 00000658  00000000  00000000  000209b8  2**3
                  CONTENTS, READONLY, DEBUGGING
 12 .debug_info   00009fab  00000000  00000000  00021010  2**0
                  CONTENTS, READONLY, DEBUGGING
 13 .debug_abbrev 0000143b  00000000  00000000  0002afbb  2**0
                  CONTENTS, READONLY, DEBUGGING
 14 .debug_line   00002c62  00000000  00000000  0002c3f6  2**0
                  CONTENTS, READONLY, DEBUGGING
 15 .debug_frame  0000268c  00000000  00000000  0002f058  2**2
                  CONTENTS, READONLY, DEBUGGING
 16 .debug_str    0007b547  00000000  00000000  000316e4  2**0
                  CONTENTS, READONLY, DEBUGGING
 17 .debug_loc    00003618  00000000  00000000  000acc2b  2**0
                  CONTENTS, READONLY, DEBUGGING
 18 .debug_ranges 000005b8  00000000  00000000  000b0243  2**0
                  CONTENTS, READONLY, DEBUGGING
 19 .build_attributes 000007cb  00000000  00000000  000b07fb  2**0
                  CONTENTS, READONLY
 20 .debug_macro  0001962f  00000000  00000000  000b0fc6  2**0
                  CONTENTS, READONLY, DEBUGGING

Disassembly of section .text:

08000000 <__Vectors>:
 8000000:	00 08 00 10 01 02 00 08 b1 02 00 08 b1 02 00 08     ................
 8000010:	b1 02 00 08 b1 02 00 08 b1 02 00 08 00 00 00 00     ................
	...
 800002c:	b1 02 00 08 b1 02 00 08 00 00 00 00 b1 02 00 08     ................
 800003c:	79 04 00 08 b1 02 00 08 b1 02 00 08 b1 02 00 08     y...............
 800004c:	b1 02 00 08 b1 02 00 08 05 07 00 08 b1 02 00 08     ................
 800005c:	b1 02 00 08 b1 02 00 08 00 00 00 00 00 00 00 00     ................
 800006c:	00 00 00 00 b1 02 00 08 00 00 00 00 b1 02 00 08     ................
 800007c:	b1 02 00 08 b1 02 00 08 b1 02 00 08 b1 02 00 08     ................
 800008c:	b1 02 00 08 b1 02 00 08 b1 02 00 08 b1 02 00 08     ................
 800009c:	b1 02 00 08 b1 02 00 08 b1 02 00 08 b1 02 00 08     ................
 80000ac:	b1 02 00 08 b1 02 00 08 b1 02 00 08 b1 02 00 08     ................
 80000bc:	b1 02 00 08 b1 02 00 08 b1 02 00 08 b1 02 00 08     ................
 80000cc:	b1 02 00 08 b1 02 00 08 b1 02 00 08 b1 02 00 08     ................
 80000dc:	b1 02 00 08 b1 02 00 08 b1 02 00 08 b1 02 00 08     ................
 80000ec:	b1 02 00 08 b1 02 00 08 b1 02 00 08 b1 02 00 08     ................
 80000fc:	b1 02 00 08 b1 02 00 08 b1 02 00 08 b1 02 00 08     ................
 800010c:	b1 02 00 08 b1 02 00 08 b1 02 00 08 b1 02 00 08     ................
 800011c:	b1 02 00 08 b1 02 00 08 b1 02 00 08 b1 02 00 08     ................
 800012c:	b1 02 00 08 b1 02 00 08 b1 02 00 08 b1 02 00 08     ................
 800013c:	b1 02 00 08 b1 02 00 08 b1 02 00 08 b1 02 00 08     ................
 800014c:	b1 02 00 08 b1 02 00 08 b1 02 00 08 b1 02 00 08     ................
 800015c:	b1 02 00 08 00 00 00 00 00 00 00 00 00 00 00 00     ................
 800016c:	00 00 00 00 b1 02 00 08 b1 02 00 08 b1 02 00 08     ................
 800017c:	b1 02 00 08 b1 02 00 08 b1 02 00 08 b1 02 00 08     ................
 800018c:	b1 02 00 08 b1 02 00 08 b1 02 00 08 b1 02 00 08     ................
 800019c:	b1 02 00 08 b1 02 00 08 b1 02 00 08 b1 02 00 08     ................
 80001ac:	b1 02 00 08 b1 02 00 08 b1 02 00 08 b1 02 00 08     ................
 80001bc:	b1 02 00 08 b1 02 00 08 b1 02 00 08 b1 02 00 08     ................
 80001cc:	b1 02 00 08 b1 02 00 08 b1 02 00 08 b1 02 00 08     ................
 80001dc:	00 00 00 00 b1 02 00 08 b1 02 00 08 b1 02 00 08     ................
 80001ec:	b1 02 00 08 b1 02 00 08 00 00 00 00 b1 02 00 08     ................
 80001fc:	00 00 00 00                                         ....

08000200 <Reset_Handler>:
/* Reset Handler */
    .thumb_func
    .globl  Reset_Handler
    .type   Reset_Handler, %function
Reset_Handler:
    ldr sp,=__initial_sp
 8000200:	f8df d08c 	ldr.w	sp, [pc, #140]	; 8000290 <__zero_table_end__>

#ifndef __SKIP_SYSTEM_INIT
    ldr  r0, =SystemInit
 8000204:	4823      	ldr	r0, [pc, #140]	; (8000294 <__zero_table_end__+0x4>)
    blx  r0
 8000206:	4780      	blx	r0
 *    offset 4: VMA of start of a section to copy to
 *    offset 8: size of the section to copy. Must be multiply of 4
 *
 *  All addresses must be aligned to 4 bytes boundary.
 */
	ldr	r4, =__copy_table_start__
 8000208:	4c23      	ldr	r4, [pc, #140]	; (8000298 <__zero_table_end__+0x8>)
	ldr	r5, =__copy_table_end__
 800020a:	4d24      	ldr	r5, [pc, #144]	; (800029c <__zero_table_end__+0xc>)

.L_loop0:
	cmp	r4, r5
 800020c:	42ac      	cmp	r4, r5
	bge	.L_loop0_done
 800020e:	da09      	bge.n	8000224 <Reset_Handler+0x24>
	ldr	r1, [r4]
 8000210:	6821      	ldr	r1, [r4, #0]
	ldr	r2, [r4, #4]
 8000212:	6862      	ldr	r2, [r4, #4]
	ldr	r3, [r4, #8]
 8000214:	68a3      	ldr	r3, [r4, #8]

.L_loop0_0:
	subs	r3, #4
 8000216:	3b04      	subs	r3, #4
	ittt	ge
 8000218:	bfa2      	ittt	ge
	ldrge	r0, [r1, r3]
 800021a:	58c8      	ldrge	r0, [r1, r3]
	strge	r0, [r2, r3]
 800021c:	50d0      	strge	r0, [r2, r3]
	bge	.L_loop0_0
 800021e:	e7fa      	bge.n	8000216 <Reset_Handler+0x16>

	adds	r4, #12
 8000220:	340c      	adds	r4, #12
	b	.L_loop0
 8000222:	e7f3      	b.n	800020c <Reset_Handler+0xc>
 *    offset 4: Size of this BSS section. Must be multiply of 4
 *
 *  Define __SKIP_BSS_CLEAR to disable zeroing uninitialzed data in startup.
 */    
#ifndef __SKIP_BSS_CLEAR
	ldr	r3, =__zero_table_start__
 8000224:	4b1e      	ldr	r3, [pc, #120]	; (80002a0 <__zero_table_end__+0x10>)
	ldr	r4, =__zero_table_end__
 8000226:	4c1f      	ldr	r4, [pc, #124]	; (80002a4 <__zero_table_end__+0x14>)

.L_loop2:
	cmp	r3, r4
 8000228:	42a3      	cmp	r3, r4
	bge	.L_loop2_done
 800022a:	da08      	bge.n	800023e <Reset_Handler+0x3e>
	ldr	r1, [r3]
 800022c:	6819      	ldr	r1, [r3, #0]
	ldr	r2, [r3, #4]
 800022e:	685a      	ldr	r2, [r3, #4]
	movs	r0, 0
 8000230:	2000      	movs	r0, #0

.L_loop2_0:
	subs	r2, #4
 8000232:	3a04      	subs	r2, #4
	itt	ge
 8000234:	bfa4      	itt	ge
	strge	r0, [r1, r2]
 8000236:	5088      	strge	r0, [r1, r2]
	bge	.L_loop2_0
 8000238:	e7fb      	bge.n	8000232 <Reset_Handler+0x32>

	adds	r3, #8
 800023a:	3308      	adds	r3, #8
	b	.L_loop2
 800023c:	e7f4      	b.n	8000228 <Reset_Handler+0x28>
.L_loop2_done:    
#endif /* __SKIP_BSS_CLEAR */
   
#ifndef __SKIP_LIBC_INIT_ARRAY
    ldr  r0, =__libc_init_array
 800023e:	481a      	ldr	r0, [pc, #104]	; (80002a8 <__zero_table_end__+0x18>)
    blx  r0
 8000240:	4780      	blx	r0
#endif

    ldr  r0, =main
 8000242:	481a      	ldr	r0, [pc, #104]	; (80002ac <__zero_table_end__+0x1c>)
    blx  r0
 8000244:	4780      	blx	r0
	...

08000248 <__copy_table_start__>:
 8000248:	0c0091b0 	.word	0x0c0091b0
 800024c:	20000000 	.word	0x20000000
 8000250:	000009b4 	.word	0x000009b4
 8000254:	0c009b64 	.word	0x0c009b64
 8000258:	30000000 	.word	0x30000000
 800025c:	00000000 	.word	0x00000000
 8000260:	0c0091b0 	.word	0x0c0091b0
 8000264:	10000800 	.word	0x10000800
 8000268:	00000000 	.word	0x00000000
 800026c:	0c0091b0 	.word	0x0c0091b0
 8000270:	10000800 	.word	0x10000800
 8000274:	00000000 	.word	0x00000000

08000278 <__copy_table_end__>:
 8000278:	200009b4 	.word	0x200009b4
 800027c:	000000f4 	.word	0x000000f4
 8000280:	30000000 	.word	0x30000000
 8000284:	00000000 	.word	0x00000000
 8000288:	10000800 	.word	0x10000800
 800028c:	00000000 	.word	0x00000000

08000290 <__zero_table_end__>:
    ldr sp,=__initial_sp
 8000290:	10000800 	.word	0x10000800
    ldr  r0, =SystemInit
 8000294:	08002969 	.word	0x08002969
	ldr	r4, =__copy_table_start__
 8000298:	08000248 	.word	0x08000248
	ldr	r5, =__copy_table_end__
 800029c:	08000278 	.word	0x08000278
	ldr	r3, =__zero_table_start__
 80002a0:	08000278 	.word	0x08000278
	ldr	r4, =__zero_table_end__
 80002a4:	08000290 	.word	0x08000290
    ldr  r0, =__libc_init_array
 80002a8:	08002d71 	.word	0x08002d71
    ldr  r0, =main
 80002ac:	0800099d 	.word	0x0800099d

080002b0 <BusFault_Handler>:
	.align	1
    .thumb_func
    .weak Default_Handler
    .type Default_Handler, %function
Default_Handler:
    b .
 80002b0:	e7fe      	b.n	80002b0 <BusFault_Handler>
	...

080002b4 <__NVIC_GetPriorityGrouping>:
  \brief   Get Priority Grouping
  \details Reads the priority grouping field from the NVIC Interrupt Controller.
  \return                Priority grouping field (SCB->AIRCR [10:8] PRIGROUP field).
 */
__STATIC_INLINE uint32_t __NVIC_GetPriorityGrouping(void)
{
 80002b4:	b480      	push	{r7}
 80002b6:	af00      	add	r7, sp, #0
  return ((uint32_t)((SCB->AIRCR & SCB_AIRCR_PRIGROUP_Msk) >> SCB_AIRCR_PRIGROUP_Pos));
 80002b8:	4b04      	ldr	r3, [pc, #16]	; (80002cc <__NVIC_GetPriorityGrouping+0x18>)
 80002ba:	68db      	ldr	r3, [r3, #12]
 80002bc:	0a1b      	lsrs	r3, r3, #8
 80002be:	f003 0307 	and.w	r3, r3, #7
}
 80002c2:	4618      	mov	r0, r3
 80002c4:	46bd      	mov	sp, r7
 80002c6:	f85d 7b04 	ldr.w	r7, [sp], #4
 80002ca:	4770      	bx	lr
 80002cc:	e000ed00 	.word	0xe000ed00

080002d0 <__NVIC_EnableIRQ>:
  \details Enables a device specific interrupt in the NVIC interrupt controller.
  \param [in]      IRQn  Device specific interrupt number.
  \note    IRQn must not be negative.
 */
__STATIC_INLINE void __NVIC_EnableIRQ(IRQn_Type IRQn)
{
 80002d0:	b480      	push	{r7}
 80002d2:	b083      	sub	sp, #12
 80002d4:	af00      	add	r7, sp, #0
 80002d6:	4603      	mov	r3, r0
 80002d8:	71fb      	strb	r3, [r7, #7]
  if ((int32_t)(IRQn) >= 0)
 80002da:	f997 3007 	ldrsb.w	r3, [r7, #7]
 80002de:	2b00      	cmp	r3, #0
 80002e0:	db0b      	blt.n	80002fa <__NVIC_EnableIRQ+0x2a>
  {
    NVIC->ISER[(((uint32_t)(int32_t)IRQn) >> 5UL)] = (uint32_t)(1UL << (((uint32_t)(int32_t)IRQn) & 0x1FUL));
 80002e2:	79fb      	ldrb	r3, [r7, #7]
 80002e4:	f003 021f 	and.w	r2, r3, #31
 80002e8:	4907      	ldr	r1, [pc, #28]	; (8000308 <__NVIC_EnableIRQ+0x38>)
 80002ea:	f997 3007 	ldrsb.w	r3, [r7, #7]
 80002ee:	095b      	lsrs	r3, r3, #5
 80002f0:	2001      	movs	r0, #1
 80002f2:	fa00 f202 	lsl.w	r2, r0, r2
 80002f6:	f841 2023 	str.w	r2, [r1, r3, lsl #2]
  }
}
 80002fa:	bf00      	nop
 80002fc:	370c      	adds	r7, #12
 80002fe:	46bd      	mov	sp, r7
 8000300:	f85d 7b04 	ldr.w	r7, [sp], #4
 8000304:	4770      	bx	lr
 8000306:	bf00      	nop
 8000308:	e000e100 	.word	0xe000e100

0800030c <__NVIC_SetPriority>:
  \param [in]      IRQn  Interrupt number.
  \param [in]  priority  Priority to set.
  \note    The priority cannot be set for every processor exception.
 */
__STATIC_INLINE void __NVIC_SetPriority(IRQn_Type IRQn, uint32_t priority)
{
 800030c:	b480      	push	{r7}
 800030e:	b083      	sub	sp, #12
 8000310:	af00      	add	r7, sp, #0
 8000312:	4603      	mov	r3, r0
 8000314:	6039      	str	r1, [r7, #0]
 8000316:	71fb      	strb	r3, [r7, #7]
  if ((int32_t)(IRQn) >= 0)
 8000318:	f997 3007 	ldrsb.w	r3, [r7, #7]
 800031c:	2b00      	cmp	r3, #0
 800031e:	db0a      	blt.n	8000336 <__NVIC_SetPriority+0x2a>
  {
    NVIC->IP[((uint32_t)(int32_t)IRQn)]               = (uint8_t)((priority << (8U - __NVIC_PRIO_BITS)) & (uint32_t)0xFFUL);
 8000320:	683b      	ldr	r3, [r7, #0]
 8000322:	b2da      	uxtb	r2, r3
 8000324:	490c      	ldr	r1, [pc, #48]	; (8000358 <__NVIC_SetPriority+0x4c>)
 8000326:	f997 3007 	ldrsb.w	r3, [r7, #7]
 800032a:	0092      	lsls	r2, r2, #2
 800032c:	b2d2      	uxtb	r2, r2
 800032e:	440b      	add	r3, r1
 8000330:	f883 2300 	strb.w	r2, [r3, #768]	; 0x300
  }
  else
  {
    SCB->SHP[(((uint32_t)(int32_t)IRQn) & 0xFUL)-4UL] = (uint8_t)((priority << (8U - __NVIC_PRIO_BITS)) & (uint32_t)0xFFUL);
  }
}
 8000334:	e00a      	b.n	800034c <__NVIC_SetPriority+0x40>
    SCB->SHP[(((uint32_t)(int32_t)IRQn) & 0xFUL)-4UL] = (uint8_t)((priority << (8U - __NVIC_PRIO_BITS)) & (uint32_t)0xFFUL);
 8000336:	683b      	ldr	r3, [r7, #0]
 8000338:	b2da      	uxtb	r2, r3
 800033a:	4908      	ldr	r1, [pc, #32]	; (800035c <__NVIC_SetPriority+0x50>)
 800033c:	79fb      	ldrb	r3, [r7, #7]
 800033e:	f003 030f 	and.w	r3, r3, #15
 8000342:	3b04      	subs	r3, #4
 8000344:	0092      	lsls	r2, r2, #2
 8000346:	b2d2      	uxtb	r2, r2
 8000348:	440b      	add	r3, r1
 800034a:	761a      	strb	r2, [r3, #24]
}
 800034c:	bf00      	nop
 800034e:	370c      	adds	r7, #12
 8000350:	46bd      	mov	sp, r7
 8000352:	f85d 7b04 	ldr.w	r7, [sp], #4
 8000356:	4770      	bx	lr
 8000358:	e000e100 	.word	0xe000e100
 800035c:	e000ed00 	.word	0xe000ed00

08000360 <NVIC_EncodePriority>:
  \param [in]   PreemptPriority  Preemptive priority value (starting from 0).
  \param [in]       SubPriority  Subpriority value (starting from 0).
  \return                        Encoded priority. Value can be used in the function \ref NVIC_SetPriority().
 */
__STATIC_INLINE uint32_t NVIC_EncodePriority (uint32_t PriorityGroup, uint32_t PreemptPriority, uint32_t SubPriority)
{
 8000360:	b480      	push	{r7}
 8000362:	b089      	sub	sp, #36	; 0x24
 8000364:	af00      	add	r7, sp, #0
 8000366:	60f8      	str	r0, [r7, #12]
 8000368:	60b9      	str	r1, [r7, #8]
 800036a:	607a      	str	r2, [r7, #4]
  uint32_t PriorityGroupTmp = (PriorityGroup & (uint32_t)0x07UL);   /* only values 0..7 are used          */
 800036c:	68fb      	ldr	r3, [r7, #12]
 800036e:	f003 0307 	and.w	r3, r3, #7
 8000372:	61fb      	str	r3, [r7, #28]
  uint32_t PreemptPriorityBits;
  uint32_t SubPriorityBits;

  PreemptPriorityBits = ((7UL - PriorityGroupTmp) > (uint32_t)(__NVIC_PRIO_BITS)) ? (uint32_t)(__NVIC_PRIO_BITS) : (uint32_t)(7UL - PriorityGroupTmp);
 8000374:	69fb      	ldr	r3, [r7, #28]
 8000376:	f1c3 0307 	rsb	r3, r3, #7
 800037a:	2b06      	cmp	r3, #6
 800037c:	bf28      	it	cs
 800037e:	2306      	movcs	r3, #6
 8000380:	61bb      	str	r3, [r7, #24]
  SubPriorityBits     = ((PriorityGroupTmp + (uint32_t)(__NVIC_PRIO_BITS)) < (uint32_t)7UL) ? (uint32_t)0UL : (uint32_t)((PriorityGroupTmp - 7UL) + (uint32_t)(__NVIC_PRIO_BITS));
 8000382:	69fb      	ldr	r3, [r7, #28]
 8000384:	3306      	adds	r3, #6
 8000386:	2b06      	cmp	r3, #6
 8000388:	d902      	bls.n	8000390 <NVIC_EncodePriority+0x30>
 800038a:	69fb      	ldr	r3, [r7, #28]
 800038c:	3b01      	subs	r3, #1
 800038e:	e000      	b.n	8000392 <NVIC_EncodePriority+0x32>
 8000390:	2300      	movs	r3, #0
 8000392:	617b      	str	r3, [r7, #20]

  return (
           ((PreemptPriority & (uint32_t)((1UL << (PreemptPriorityBits)) - 1UL)) << SubPriorityBits) |
 8000394:	f04f 32ff 	mov.w	r2, #4294967295	; 0xffffffff
 8000398:	69bb      	ldr	r3, [r7, #24]
 800039a:	fa02 f303 	lsl.w	r3, r2, r3
 800039e:	43da      	mvns	r2, r3
 80003a0:	68bb      	ldr	r3, [r7, #8]
 80003a2:	401a      	ands	r2, r3
 80003a4:	697b      	ldr	r3, [r7, #20]
 80003a6:	409a      	lsls	r2, r3
           ((SubPriority     & (uint32_t)((1UL << (SubPriorityBits    )) - 1UL)))
 80003a8:	f04f 31ff 	mov.w	r1, #4294967295	; 0xffffffff
 80003ac:	697b      	ldr	r3, [r7, #20]
 80003ae:	fa01 f303 	lsl.w	r3, r1, r3
 80003b2:	43d9      	mvns	r1, r3
 80003b4:	687b      	ldr	r3, [r7, #4]
 80003b6:	400b      	ands	r3, r1
           ((PreemptPriority & (uint32_t)((1UL << (PreemptPriorityBits)) - 1UL)) << SubPriorityBits) |
 80003b8:	4313      	orrs	r3, r2
         );
}
 80003ba:	4618      	mov	r0, r3
 80003bc:	3724      	adds	r7, #36	; 0x24
 80003be:	46bd      	mov	sp, r7
 80003c0:	f85d 7b04 	ldr.w	r7, [sp], #4
 80003c4:	4770      	bx	lr
	...

080003c8 <SysTick_Config>:
  \note    When the variable <b>__Vendor_SysTickConfig</b> is set to 1, then the
           function <b>SysTick_Config</b> is not included. In this case, the file <b><i>device</i>.h</b>
           must contain a vendor-specific implementation of this function.
 */
__STATIC_INLINE uint32_t SysTick_Config(uint32_t ticks)
{
 80003c8:	b580      	push	{r7, lr}
 80003ca:	b082      	sub	sp, #8
 80003cc:	af00      	add	r7, sp, #0
 80003ce:	6078      	str	r0, [r7, #4]
  if ((ticks - 1UL) > SysTick_LOAD_RELOAD_Msk)
 80003d0:	687b      	ldr	r3, [r7, #4]
 80003d2:	3b01      	subs	r3, #1
 80003d4:	f1b3 7f80 	cmp.w	r3, #16777216	; 0x1000000
 80003d8:	d301      	bcc.n	80003de <SysTick_Config+0x16>
  {
    return (1UL);                                                   /* Reload value impossible */
 80003da:	2301      	movs	r3, #1
 80003dc:	e00f      	b.n	80003fe <SysTick_Config+0x36>
  }

  SysTick->LOAD  = (uint32_t)(ticks - 1UL);                         /* set reload register */
 80003de:	4a0a      	ldr	r2, [pc, #40]	; (8000408 <SysTick_Config+0x40>)
 80003e0:	687b      	ldr	r3, [r7, #4]
 80003e2:	3b01      	subs	r3, #1
 80003e4:	6053      	str	r3, [r2, #4]
  NVIC_SetPriority (SysTick_IRQn, (1UL << __NVIC_PRIO_BITS) - 1UL); /* set Priority for Systick Interrupt */
 80003e6:	213f      	movs	r1, #63	; 0x3f
 80003e8:	f04f 30ff 	mov.w	r0, #4294967295	; 0xffffffff
 80003ec:	f7ff ff8e 	bl	800030c <__NVIC_SetPriority>
  SysTick->VAL   = 0UL;                                             /* Load the SysTick Counter Value */
 80003f0:	4b05      	ldr	r3, [pc, #20]	; (8000408 <SysTick_Config+0x40>)
 80003f2:	2200      	movs	r2, #0
 80003f4:	609a      	str	r2, [r3, #8]
  SysTick->CTRL  = SysTick_CTRL_CLKSOURCE_Msk |
 80003f6:	4b04      	ldr	r3, [pc, #16]	; (8000408 <SysTick_Config+0x40>)
 80003f8:	2207      	movs	r2, #7
 80003fa:	601a      	str	r2, [r3, #0]
                   SysTick_CTRL_TICKINT_Msk   |
                   SysTick_CTRL_ENABLE_Msk;                         /* Enable SysTick IRQ and SysTick Timer */
  return (0UL);                                                     /* Function successful */
 80003fc:	2300      	movs	r3, #0
}
 80003fe:	4618      	mov	r0, r3
 8000400:	3708      	adds	r7, #8
 8000402:	46bd      	mov	sp, r7
 8000404:	bd80      	pop	{r7, pc}
 8000406:	bf00      	nop
 8000408:	e000e010 	.word	0xe000e010

0800040c <XMC_GPIO_SetOutputHigh>:
 * Register Pn_OMR is virtual and does not contain any flip-flop. A read action delivers the value of 0.
 *
 */

__STATIC_INLINE void XMC_GPIO_SetOutputHigh(XMC_GPIO_PORT_t *const port, const uint8_t pin)
{
 800040c:	b480      	push	{r7}
 800040e:	b083      	sub	sp, #12
 8000410:	af00      	add	r7, sp, #0
 8000412:	6078      	str	r0, [r7, #4]
 8000414:	460b      	mov	r3, r1
 8000416:	70fb      	strb	r3, [r7, #3]
  XMC_ASSERT("XMC_GPIO_SetOutputHigh: Invalid port", XMC_GPIO_CHECK_OUTPUT_PORT(port));

  port->OMR = (uint32_t)0x1U << pin;
 8000418:	78fb      	ldrb	r3, [r7, #3]
 800041a:	2201      	movs	r2, #1
 800041c:	409a      	lsls	r2, r3
 800041e:	687b      	ldr	r3, [r7, #4]
 8000420:	605a      	str	r2, [r3, #4]
}
 8000422:	bf00      	nop
 8000424:	370c      	adds	r7, #12
 8000426:	46bd      	mov	sp, r7
 8000428:	f85d 7b04 	ldr.w	r7, [sp], #4
 800042c:	4770      	bx	lr

0800042e <XMC_GPIO_SetOutputLow>:
 * Register Pn_OMR is virtual and does not contain any flip-flop. A read action delivers the value of 0.\n
 *
 */

__STATIC_INLINE void XMC_GPIO_SetOutputLow(XMC_GPIO_PORT_t *const port, const uint8_t pin)
{
 800042e:	b480      	push	{r7}
 8000430:	b083      	sub	sp, #12
 8000432:	af00      	add	r7, sp, #0
 8000434:	6078      	str	r0, [r7, #4]
 8000436:	460b      	mov	r3, r1
 8000438:	70fb      	strb	r3, [r7, #3]
  XMC_ASSERT("XMC_GPIO_SetOutputLow: Invalid port", XMC_GPIO_CHECK_OUTPUT_PORT(port));

  port->OMR = 0x10000U << pin;
 800043a:	78fb      	ldrb	r3, [r7, #3]
 800043c:	f44f 3280 	mov.w	r2, #65536	; 0x10000
 8000440:	409a      	lsls	r2, r3
 8000442:	687b      	ldr	r3, [r7, #4]
 8000444:	605a      	str	r2, [r3, #4]
}
 8000446:	bf00      	nop
 8000448:	370c      	adds	r7, #12
 800044a:	46bd      	mov	sp, r7
 800044c:	f85d 7b04 	ldr.w	r7, [sp], #4
 8000450:	4770      	bx	lr

08000452 <XMC_GPIO_GetInput>:
 * Prior to this api, user has to configure port pin to input mode using XMC_GPIO_SetMode().
 *
 */

__STATIC_INLINE uint32_t XMC_GPIO_GetInput(XMC_GPIO_PORT_t *const port, const uint8_t pin)
{
 8000452:	b480      	push	{r7}
 8000454:	b083      	sub	sp, #12
 8000456:	af00      	add	r7, sp, #0
 8000458:	6078      	str	r0, [r7, #4]
 800045a:	460b      	mov	r3, r1
 800045c:	70fb      	strb	r3, [r7, #3]
  XMC_ASSERT("XMC_GPIO_GetInput: Invalid port", XMC_GPIO_CHECK_PORT(port));

  return (((port->IN) >> pin) & 0x1U);
 800045e:	687b      	ldr	r3, [r7, #4]
 8000460:	6a5a      	ldr	r2, [r3, #36]	; 0x24
 8000462:	78fb      	ldrb	r3, [r7, #3]
 8000464:	fa22 f303 	lsr.w	r3, r2, r3
 8000468:	f003 0301 	and.w	r3, r3, #1
}
 800046c:	4618      	mov	r0, r3
 800046e:	370c      	adds	r7, #12
 8000470:	46bd      	mov	sp, r7
 8000472:	f85d 7b04 	ldr.w	r7, [sp], #4
 8000476:	4770      	bx	lr

08000478 <SysTick_Handler>:
volatile uint32_t msTicks;
uint32_t currentTicksCount;
uint32_t previousTicksCount;

void SysTick_Handler(void)
{
 8000478:	b480      	push	{r7}
 800047a:	af00      	add	r7, sp, #0
  msTicks++;
 800047c:	4b04      	ldr	r3, [pc, #16]	; (8000490 <SysTick_Handler+0x18>)
 800047e:	681b      	ldr	r3, [r3, #0]
 8000480:	3301      	adds	r3, #1
 8000482:	4a03      	ldr	r2, [pc, #12]	; (8000490 <SysTick_Handler+0x18>)
 8000484:	6013      	str	r3, [r2, #0]
}
 8000486:	bf00      	nop
 8000488:	46bd      	mov	sp, r7
 800048a:	f85d 7b04 	ldr.w	r7, [sp], #4
 800048e:	4770      	bx	lr
 8000490:	200009f4 	.word	0x200009f4

08000494 <hw_delay_ms>:

static void hw_delay_ms(uint32_t dlyTicks)
{
 8000494:	b480      	push	{r7}
 8000496:	b085      	sub	sp, #20
 8000498:	af00      	add	r7, sp, #0
 800049a:	6078      	str	r0, [r7, #4]
  uint32_t curTicks;

  curTicks = msTicks;
 800049c:	4b08      	ldr	r3, [pc, #32]	; (80004c0 <hw_delay_ms+0x2c>)
 800049e:	681b      	ldr	r3, [r3, #0]
 80004a0:	60fb      	str	r3, [r7, #12]
  while ((msTicks - curTicks) < dlyTicks)
 80004a2:	e000      	b.n	80004a6 <hw_delay_ms+0x12>
  {
    __NOP();
 80004a4:	bf00      	nop
  while ((msTicks - curTicks) < dlyTicks)
 80004a6:	4b06      	ldr	r3, [pc, #24]	; (80004c0 <hw_delay_ms+0x2c>)
 80004a8:	681a      	ldr	r2, [r3, #0]
 80004aa:	68fb      	ldr	r3, [r7, #12]
 80004ac:	1ad3      	subs	r3, r2, r3
 80004ae:	687a      	ldr	r2, [r7, #4]
 80004b0:	429a      	cmp	r2, r3
 80004b2:	d8f7      	bhi.n	80004a4 <hw_delay_ms+0x10>
  }
}
 80004b4:	bf00      	nop
 80004b6:	3714      	adds	r7, #20
 80004b8:	46bd      	mov	sp, r7
 80004ba:	f85d 7b04 	ldr.w	r7, [sp], #4
 80004be:	4770      	bx	lr
 80004c0:	200009f4 	.word	0x200009f4

080004c4 <sw_delay_100_ms>:
static void sw_delay_100_ms(int32_t multiplier_100ms)
{
 80004c4:	b480      	push	{r7}
 80004c6:	b087      	sub	sp, #28
 80004c8:	af00      	add	r7, sp, #0
 80004ca:	6078      	str	r0, [r7, #4]
  for (int32_t multiplier = multiplier_100ms; multiplier > 0; multiplier--)
 80004cc:	687b      	ldr	r3, [r7, #4]
 80004ce:	617b      	str	r3, [r7, #20]
 80004d0:	e01e      	b.n	8000510 <sw_delay_100_ms+0x4c>
  {
    for (int32_t waiter = 45; waiter >= 0; waiter--)
 80004d2:	232d      	movs	r3, #45	; 0x2d
 80004d4:	613b      	str	r3, [r7, #16]
 80004d6:	e015      	b.n	8000504 <sw_delay_100_ms+0x40>
    {
      for (int32_t waiter1 = 255; waiter1 >= 0; waiter1--)
 80004d8:	23ff      	movs	r3, #255	; 0xff
 80004da:	60fb      	str	r3, [r7, #12]
 80004dc:	e00c      	b.n	80004f8 <sw_delay_100_ms+0x34>
      {
        for (int32_t waiter2 = 253; waiter2 >= 0; waiter2--)
 80004de:	23fd      	movs	r3, #253	; 0xfd
 80004e0:	60bb      	str	r3, [r7, #8]
 80004e2:	e003      	b.n	80004ec <sw_delay_100_ms+0x28>
        {
          __NOP();
 80004e4:	bf00      	nop
        for (int32_t waiter2 = 253; waiter2 >= 0; waiter2--)
 80004e6:	68bb      	ldr	r3, [r7, #8]
 80004e8:	3b01      	subs	r3, #1
 80004ea:	60bb      	str	r3, [r7, #8]
 80004ec:	68bb      	ldr	r3, [r7, #8]
 80004ee:	2b00      	cmp	r3, #0
 80004f0:	daf8      	bge.n	80004e4 <sw_delay_100_ms+0x20>
      for (int32_t waiter1 = 255; waiter1 >= 0; waiter1--)
 80004f2:	68fb      	ldr	r3, [r7, #12]
 80004f4:	3b01      	subs	r3, #1
 80004f6:	60fb      	str	r3, [r7, #12]
 80004f8:	68fb      	ldr	r3, [r7, #12]
 80004fa:	2b00      	cmp	r3, #0
 80004fc:	daef      	bge.n	80004de <sw_delay_100_ms+0x1a>
    for (int32_t waiter = 45; waiter >= 0; waiter--)
 80004fe:	693b      	ldr	r3, [r7, #16]
 8000500:	3b01      	subs	r3, #1
 8000502:	613b      	str	r3, [r7, #16]
 8000504:	693b      	ldr	r3, [r7, #16]
 8000506:	2b00      	cmp	r3, #0
 8000508:	dae6      	bge.n	80004d8 <sw_delay_100_ms+0x14>
  for (int32_t multiplier = multiplier_100ms; multiplier > 0; multiplier--)
 800050a:	697b      	ldr	r3, [r7, #20]
 800050c:	3b01      	subs	r3, #1
 800050e:	617b      	str	r3, [r7, #20]
 8000510:	697b      	ldr	r3, [r7, #20]
 8000512:	2b00      	cmp	r3, #0
 8000514:	dcdd      	bgt.n	80004d2 <sw_delay_100_ms+0xe>
        }
      }
    }
  }
}
 8000516:	bf00      	nop
 8000518:	371c      	adds	r7, #28
 800051a:	46bd      	mov	sp, r7
 800051c:	f85d 7b04 	ldr.w	r7, [sp], #4
 8000520:	4770      	bx	lr
	...

08000524 <initLed2_P1_0>:

static void initLed2_P1_0(void)
{
 8000524:	b580      	push	{r7, lr}
 8000526:	b084      	sub	sp, #16
 8000528:	af00      	add	r7, sp, #0

  const XMC_GPIO_CONFIG_t LED_config =
 800052a:	4a07      	ldr	r2, [pc, #28]	; (8000548 <initLed2_P1_0+0x24>)
 800052c:	1d3b      	adds	r3, r7, #4
 800052e:	ca07      	ldmia	r2, {r0, r1, r2}
 8000530:	e883 0007 	stmia.w	r3, {r0, r1, r2}
      {.mode = XMC_GPIO_MODE_OUTPUT_PUSH_PULL,
       .output_level = XMC_GPIO_OUTPUT_LEVEL_LOW,
       .output_strength = XMC_GPIO_OUTPUT_STRENGTH_STRONG_SHARP_EDGE};

  XMC_GPIO_Init(XMC_GPIO_PORT1, 0, &LED_config);
 8000534:	1d3b      	adds	r3, r7, #4
 8000536:	461a      	mov	r2, r3
 8000538:	2100      	movs	r1, #0
 800053a:	4804      	ldr	r0, [pc, #16]	; (800054c <initLed2_P1_0+0x28>)
 800053c:	f000 faaa 	bl	8000a94 <XMC_GPIO_Init>
}
 8000540:	bf00      	nop
 8000542:	3710      	adds	r7, #16
 8000544:	46bd      	mov	sp, r7
 8000546:	bd80      	pop	{r7, pc}
 8000548:	08008e24 	.word	0x08008e24
 800054c:	48028100 	.word	0x48028100

08000550 <initButton1_P1_14>:

static void initButton1_P1_14(void)
{
 8000550:	b580      	push	{r7, lr}
 8000552:	b084      	sub	sp, #16
 8000554:	af00      	add	r7, sp, #0
  const XMC_GPIO_CONFIG_t in_config =
 8000556:	2300      	movs	r3, #0
 8000558:	713b      	strb	r3, [r7, #4]
 800055a:	f44f 3380 	mov.w	r3, #65536	; 0x10000
 800055e:	60bb      	str	r3, [r7, #8]
 8000560:	2300      	movs	r3, #0
 8000562:	733b      	strb	r3, [r7, #12]
      {.mode = XMC_GPIO_MODE_INPUT_TRISTATE,
       .output_level = XMC_GPIO_OUTPUT_LEVEL_LOW,
       .output_strength = XMC_GPIO_OUTPUT_STRENGTH_STRONG_SHARP_EDGE};
  XMC_GPIO_Init(XMC_GPIO_PORT1, 14, &in_config);
 8000564:	1d3b      	adds	r3, r7, #4
 8000566:	461a      	mov	r2, r3
 8000568:	210e      	movs	r1, #14
 800056a:	4803      	ldr	r0, [pc, #12]	; (8000578 <initButton1_P1_14+0x28>)
 800056c:	f000 fa92 	bl	8000a94 <XMC_GPIO_Init>
}
 8000570:	bf00      	nop
 8000572:	3710      	adds	r7, #16
 8000574:	46bd      	mov	sp, r7
 8000576:	bd80      	pop	{r7, pc}
 8000578:	48028100 	.word	0x48028100

0800057c <turnOnLed_us_by_hw_delay>:


static void turnOnLed_us_by_hw_delay(uint32_t dlyTicks)
{
 800057c:	b580      	push	{r7, lr}
 800057e:	b082      	sub	sp, #8
 8000580:	af00      	add	r7, sp, #0
 8000582:	6078      	str	r0, [r7, #4]
  XMC_GPIO_SetOutputHigh(XMC_GPIO_PORT1, 0);
 8000584:	2100      	movs	r1, #0
 8000586:	4807      	ldr	r0, [pc, #28]	; (80005a4 <turnOnLed_us_by_hw_delay+0x28>)
 8000588:	f7ff ff40 	bl	800040c <XMC_GPIO_SetOutputHigh>
  hw_delay_ms(dlyTicks);
 800058c:	6878      	ldr	r0, [r7, #4]
 800058e:	f7ff ff81 	bl	8000494 <hw_delay_ms>
  XMC_GPIO_SetOutputLow(XMC_GPIO_PORT1, 0);
 8000592:	2100      	movs	r1, #0
 8000594:	4803      	ldr	r0, [pc, #12]	; (80005a4 <turnOnLed_us_by_hw_delay+0x28>)
 8000596:	f7ff ff4a 	bl	800042e <XMC_GPIO_SetOutputLow>
}
 800059a:	bf00      	nop
 800059c:	3708      	adds	r7, #8
 800059e:	46bd      	mov	sp, r7
 80005a0:	bd80      	pop	{r7, pc}
 80005a2:	bf00      	nop
 80005a4:	48028100 	.word	0x48028100

080005a8 <transmitDotByHWDelay>:

static void transmitDotByHWDelay()
{
 80005a8:	b580      	push	{r7, lr}
 80005aa:	af00      	add	r7, sp, #0
  turnOnLed_us_by_hw_delay(100);
 80005ac:	2064      	movs	r0, #100	; 0x64
 80005ae:	f7ff ffe5 	bl	800057c <turnOnLed_us_by_hw_delay>
}
 80005b2:	bf00      	nop
 80005b4:	bd80      	pop	{r7, pc}

080005b6 <transmitDashByHWDelay>:

static void transmitDashByHWDelay()
{
 80005b6:	b580      	push	{r7, lr}
 80005b8:	af00      	add	r7, sp, #0
  turnOnLed_us_by_hw_delay(300);
 80005ba:	f44f 7096 	mov.w	r0, #300	; 0x12c
 80005be:	f7ff ffdd 	bl	800057c <turnOnLed_us_by_hw_delay>
}
 80005c2:	bf00      	nop
 80005c4:	bd80      	pop	{r7, pc}

080005c6 <generateHWDelayBetweenSignals>:
static void generateHWDelayBetweenSignals()
{
 80005c6:	b580      	push	{r7, lr}
 80005c8:	af00      	add	r7, sp, #0
  hw_delay_ms(100);
 80005ca:	2064      	movs	r0, #100	; 0x64
 80005cc:	f7ff ff62 	bl	8000494 <hw_delay_ms>
}
 80005d0:	bf00      	nop
 80005d2:	bd80      	pop	{r7, pc}

080005d4 <generateHWDelayBetweenLetters>:

static void generateHWDelayBetweenLetters()
{
 80005d4:	b580      	push	{r7, lr}
 80005d6:	af00      	add	r7, sp, #0
  hw_delay_ms(300);
 80005d8:	f44f 7096 	mov.w	r0, #300	; 0x12c
 80005dc:	f7ff ff5a 	bl	8000494 <hw_delay_ms>
}
 80005e0:	bf00      	nop
 80005e2:	bd80      	pop	{r7, pc}

080005e4 <generateHWDelayBetweenWords>:

static void generateHWDelayBetweenWords()
{
 80005e4:	b580      	push	{r7, lr}
 80005e6:	af00      	add	r7, sp, #0
  hw_delay_ms(700);
 80005e8:	f44f 702f 	mov.w	r0, #700	; 0x2bc
 80005ec:	f7ff ff52 	bl	8000494 <hw_delay_ms>
}
 80005f0:	bf00      	nop
 80005f2:	bd80      	pop	{r7, pc}

080005f4 <turnOnLed_us_by_sw_delay>:
static void turnOnLed_us_by_sw_delay(uint32_t multiplier_100ms)
{
 80005f4:	b580      	push	{r7, lr}
 80005f6:	b082      	sub	sp, #8
 80005f8:	af00      	add	r7, sp, #0
 80005fa:	6078      	str	r0, [r7, #4]
  XMC_GPIO_SetOutputHigh(XMC_GPIO_PORT1, 0);
 80005fc:	2100      	movs	r1, #0
 80005fe:	4807      	ldr	r0, [pc, #28]	; (800061c <turnOnLed_us_by_sw_delay+0x28>)
 8000600:	f7ff ff04 	bl	800040c <XMC_GPIO_SetOutputHigh>
  sw_delay_100_ms(multiplier_100ms);
 8000604:	687b      	ldr	r3, [r7, #4]
 8000606:	4618      	mov	r0, r3
 8000608:	f7ff ff5c 	bl	80004c4 <sw_delay_100_ms>
  XMC_GPIO_SetOutputLow(XMC_GPIO_PORT1, 0);
 800060c:	2100      	movs	r1, #0
 800060e:	4803      	ldr	r0, [pc, #12]	; (800061c <turnOnLed_us_by_sw_delay+0x28>)
 8000610:	f7ff ff0d 	bl	800042e <XMC_GPIO_SetOutputLow>
}
 8000614:	bf00      	nop
 8000616:	3708      	adds	r7, #8
 8000618:	46bd      	mov	sp, r7
 800061a:	bd80      	pop	{r7, pc}
 800061c:	48028100 	.word	0x48028100

08000620 <transmitDotBySWDelay>:

static void transmitDotBySWDelay()
{
 8000620:	b580      	push	{r7, lr}
 8000622:	af00      	add	r7, sp, #0
  turnOnLed_us_by_sw_delay(1);
 8000624:	2001      	movs	r0, #1
 8000626:	f7ff ffe5 	bl	80005f4 <turnOnLed_us_by_sw_delay>
}
 800062a:	bf00      	nop
 800062c:	bd80      	pop	{r7, pc}

0800062e <transmitDashBySWDelay>:

static void transmitDashBySWDelay()
{
 800062e:	b580      	push	{r7, lr}
 8000630:	af00      	add	r7, sp, #0
  turnOnLed_us_by_sw_delay(3);
 8000632:	2003      	movs	r0, #3
 8000634:	f7ff ffde 	bl	80005f4 <turnOnLed_us_by_sw_delay>
}
 8000638:	bf00      	nop
 800063a:	bd80      	pop	{r7, pc}

0800063c <generateSWDelayBetweenSignals>:
static void generateSWDelayBetweenSignals()
{
 800063c:	b580      	push	{r7, lr}
 800063e:	af00      	add	r7, sp, #0
  sw_delay_100_ms(1);
 8000640:	2001      	movs	r0, #1
 8000642:	f7ff ff3f 	bl	80004c4 <sw_delay_100_ms>
}
 8000646:	bf00      	nop
 8000648:	bd80      	pop	{r7, pc}

0800064a <generateSWDelayBetweenLetters>:

static void generateSWDelayBetweenLetters()
{
 800064a:	b580      	push	{r7, lr}
 800064c:	af00      	add	r7, sp, #0
  sw_delay_100_ms(3);
 800064e:	2003      	movs	r0, #3
 8000650:	f7ff ff38 	bl	80004c4 <sw_delay_100_ms>
}
 8000654:	bf00      	nop
 8000656:	bd80      	pop	{r7, pc}

08000658 <generateSWDelayBetweenWords>:

static void generateSWDelayBetweenWords()
{
 8000658:	b580      	push	{r7, lr}
 800065a:	af00      	add	r7, sp, #0
  sw_delay_100_ms(7);
 800065c:	2007      	movs	r0, #7
 800065e:	f7ff ff31 	bl	80004c4 <sw_delay_100_ms>
}
 8000662:	bf00      	nop
 8000664:	bd80      	pop	{r7, pc}

08000666 <transmitMessageByTypeByHWDelay>:
void transmitMessageByTypeByHWDelay(char typeTosend)
{
 8000666:	b580      	push	{r7, lr}
 8000668:	b082      	sub	sp, #8
 800066a:	af00      	add	r7, sp, #0
 800066c:	4603      	mov	r3, r0
 800066e:	71fb      	strb	r3, [r7, #7]
  switch (typeTosend)
 8000670:	79fb      	ldrb	r3, [r7, #7]
 8000672:	2b6c      	cmp	r3, #108	; 0x6c
 8000674:	d014      	beq.n	80006a0 <transmitMessageByTypeByHWDelay+0x3a>
 8000676:	2b6c      	cmp	r3, #108	; 0x6c
 8000678:	dc04      	bgt.n	8000684 <transmitMessageByTypeByHWDelay+0x1e>
 800067a:	2b2d      	cmp	r3, #45	; 0x2d
 800067c:	d00a      	beq.n	8000694 <transmitMessageByTypeByHWDelay+0x2e>
 800067e:	2b2e      	cmp	r3, #46	; 0x2e
 8000680:	d005      	beq.n	800068e <transmitMessageByTypeByHWDelay+0x28>
    break;
  case 'w':
    generateHWDelayBetweenWords();
    break;
  default:
    break;
 8000682:	e013      	b.n	80006ac <transmitMessageByTypeByHWDelay+0x46>
  switch (typeTosend)
 8000684:	2b73      	cmp	r3, #115	; 0x73
 8000686:	d008      	beq.n	800069a <transmitMessageByTypeByHWDelay+0x34>
 8000688:	2b77      	cmp	r3, #119	; 0x77
 800068a:	d00c      	beq.n	80006a6 <transmitMessageByTypeByHWDelay+0x40>
    break;
 800068c:	e00e      	b.n	80006ac <transmitMessageByTypeByHWDelay+0x46>
    transmitDotByHWDelay();
 800068e:	f7ff ff8b 	bl	80005a8 <transmitDotByHWDelay>
    break;
 8000692:	e00b      	b.n	80006ac <transmitMessageByTypeByHWDelay+0x46>
    transmitDashByHWDelay();
 8000694:	f7ff ff8f 	bl	80005b6 <transmitDashByHWDelay>
    break;
 8000698:	e008      	b.n	80006ac <transmitMessageByTypeByHWDelay+0x46>
    generateHWDelayBetweenSignals();
 800069a:	f7ff ff94 	bl	80005c6 <generateHWDelayBetweenSignals>
    break;
 800069e:	e005      	b.n	80006ac <transmitMessageByTypeByHWDelay+0x46>
    generateHWDelayBetweenLetters();
 80006a0:	f7ff ff98 	bl	80005d4 <generateHWDelayBetweenLetters>
    break;
 80006a4:	e002      	b.n	80006ac <transmitMessageByTypeByHWDelay+0x46>
    generateHWDelayBetweenWords();
 80006a6:	f7ff ff9d 	bl	80005e4 <generateHWDelayBetweenWords>
    break;
 80006aa:	bf00      	nop
  }
}
 80006ac:	bf00      	nop
 80006ae:	3708      	adds	r7, #8
 80006b0:	46bd      	mov	sp, r7
 80006b2:	bd80      	pop	{r7, pc}

080006b4 <transmitMessageByTypeBySWDelay>:
void transmitMessageByTypeBySWDelay(char typeTosend)
{
 80006b4:	b580      	push	{r7, lr}
 80006b6:	b082      	sub	sp, #8
 80006b8:	af00      	add	r7, sp, #0
 80006ba:	4603      	mov	r3, r0
 80006bc:	71fb      	strb	r3, [r7, #7]
  switch (typeTosend)
 80006be:	79fb      	ldrb	r3, [r7, #7]
 80006c0:	2b6c      	cmp	r3, #108	; 0x6c
 80006c2:	d014      	beq.n	80006ee <transmitMessageByTypeBySWDelay+0x3a>
 80006c4:	2b6c      	cmp	r3, #108	; 0x6c
 80006c6:	dc04      	bgt.n	80006d2 <transmitMessageByTypeBySWDelay+0x1e>
 80006c8:	2b2d      	cmp	r3, #45	; 0x2d
 80006ca:	d00a      	beq.n	80006e2 <transmitMessageByTypeBySWDelay+0x2e>
 80006cc:	2b2e      	cmp	r3, #46	; 0x2e
 80006ce:	d005      	beq.n	80006dc <transmitMessageByTypeBySWDelay+0x28>
    break;
  case 'w':
    generateSWDelayBetweenWords();
    break;
  default:
    break;
 80006d0:	e013      	b.n	80006fa <transmitMessageByTypeBySWDelay+0x46>
  switch (typeTosend)
 80006d2:	2b73      	cmp	r3, #115	; 0x73
 80006d4:	d008      	beq.n	80006e8 <transmitMessageByTypeBySWDelay+0x34>
 80006d6:	2b77      	cmp	r3, #119	; 0x77
 80006d8:	d00c      	beq.n	80006f4 <transmitMessageByTypeBySWDelay+0x40>
    break;
 80006da:	e00e      	b.n	80006fa <transmitMessageByTypeBySWDelay+0x46>
    transmitDotBySWDelay();
 80006dc:	f7ff ffa0 	bl	8000620 <transmitDotBySWDelay>
    break;
 80006e0:	e00b      	b.n	80006fa <transmitMessageByTypeBySWDelay+0x46>
    transmitDashBySWDelay();
 80006e2:	f7ff ffa4 	bl	800062e <transmitDashBySWDelay>
    break;
 80006e6:	e008      	b.n	80006fa <transmitMessageByTypeBySWDelay+0x46>
    generateSWDelayBetweenSignals();
 80006e8:	f7ff ffa8 	bl	800063c <generateSWDelayBetweenSignals>
    break;
 80006ec:	e005      	b.n	80006fa <transmitMessageByTypeBySWDelay+0x46>
    generateSWDelayBetweenLetters();
 80006ee:	f7ff ffac 	bl	800064a <generateSWDelayBetweenLetters>
    break;
 80006f2:	e002      	b.n	80006fa <transmitMessageByTypeBySWDelay+0x46>
    generateSWDelayBetweenWords();
 80006f4:	f7ff ffb0 	bl	8000658 <generateSWDelayBetweenWords>
    break;
 80006f8:	bf00      	nop
  }
}
 80006fa:	bf00      	nop
 80006fc:	3708      	adds	r7, #8
 80006fe:	46bd      	mov	sp, r7
 8000700:	bd80      	pop	{r7, pc}
	...

08000704 <ERU1_0_IRQHandler>:
XMC_ERU_OGU_CONFIG_t button_event_detection_config =
    {
        .service_request = XMC_ERU_OGU_SERVICE_REQUEST_ON_TRIGGER};

void ERU1_0_IRQHandler(void)
{
 8000704:	b580      	push	{r7, lr}
 8000706:	f5ad 6d85 	sub.w	sp, sp, #1064	; 0x428
 800070a:	af00      	add	r7, sp, #0
  uint32_t numberToTransmit = currentTicksCount - previousTicksCount;
 800070c:	4b96      	ldr	r3, [pc, #600]	; (8000968 <ERU1_0_IRQHandler+0x264>)
 800070e:	681a      	ldr	r2, [r3, #0]
 8000710:	4b96      	ldr	r3, [pc, #600]	; (800096c <ERU1_0_IRQHandler+0x268>)
 8000712:	681b      	ldr	r3, [r3, #0]
 8000714:	1ad3      	subs	r3, r2, r3
 8000716:	f8c7 341c 	str.w	r3, [r7, #1052]	; 0x41c
  char codedDigit[1024] = {0};
 800071a:	f107 0314 	add.w	r3, r7, #20
 800071e:	4618      	mov	r0, r3
 8000720:	f44f 6380 	mov.w	r3, #1024	; 0x400
 8000724:	461a      	mov	r2, r3
 8000726:	2100      	movs	r1, #0
 8000728:	f002 fb46 	bl	8002db8 <memset>
  char numberToTransmitArray[16];
  int lengthOfNumberArray = sprintf(numberToTransmitArray, "%ld", numberToTransmit);
 800072c:	1d3b      	adds	r3, r7, #4
 800072e:	f8d7 241c 	ldr.w	r2, [r7, #1052]	; 0x41c
 8000732:	498f      	ldr	r1, [pc, #572]	; (8000970 <ERU1_0_IRQHandler+0x26c>)
 8000734:	4618      	mov	r0, r3
 8000736:	f002 fba7 	bl	8002e88 <sprintf>
 800073a:	f8c7 0418 	str.w	r0, [r7, #1048]	; 0x418

  for (int i = 0; i < lengthOfNumberArray; i++)
 800073e:	2300      	movs	r3, #0
 8000740:	f8c7 3424 	str.w	r3, [r7, #1060]	; 0x424
 8000744:	e0e4      	b.n	8000910 <ERU1_0_IRQHandler+0x20c>
  {
    switch (numberToTransmitArray[i])
 8000746:	1d3a      	adds	r2, r7, #4
 8000748:	f8d7 3424 	ldr.w	r3, [r7, #1060]	; 0x424
 800074c:	4413      	add	r3, r2
 800074e:	781b      	ldrb	r3, [r3, #0]
 8000750:	3b30      	subs	r3, #48	; 0x30
 8000752:	2b09      	cmp	r3, #9
 8000754:	f200 80d6 	bhi.w	8000904 <ERU1_0_IRQHandler+0x200>
 8000758:	a201      	add	r2, pc, #4	; (adr r2, 8000760 <ERU1_0_IRQHandler+0x5c>)
 800075a:	f852 f023 	ldr.w	pc, [r2, r3, lsl #2]
 800075e:	bf00      	nop
 8000760:	080008df 	.word	0x080008df
 8000764:	08000789 	.word	0x08000789
 8000768:	080007af 	.word	0x080007af
 800076c:	080007d5 	.word	0x080007d5
 8000770:	080007fb 	.word	0x080007fb
 8000774:	08000821 	.word	0x08000821
 8000778:	08000847 	.word	0x08000847
 800077c:	0800086d 	.word	0x0800086d
 8000780:	08000893 	.word	0x08000893
 8000784:	080008b9 	.word	0x080008b9
    {
    case '1':
      strcat(codedDigit, ".s-s-s-s-");
 8000788:	f107 0314 	add.w	r3, r7, #20
 800078c:	4618      	mov	r0, r3
 800078e:	f002 fbb7 	bl	8002f00 <strlen>
 8000792:	4603      	mov	r3, r0
 8000794:	461a      	mov	r2, r3
 8000796:	f107 0314 	add.w	r3, r7, #20
 800079a:	4413      	add	r3, r2
 800079c:	4975      	ldr	r1, [pc, #468]	; (8000974 <ERU1_0_IRQHandler+0x270>)
 800079e:	461a      	mov	r2, r3
 80007a0:	460b      	mov	r3, r1
 80007a2:	cb03      	ldmia	r3!, {r0, r1}
 80007a4:	6010      	str	r0, [r2, #0]
 80007a6:	6051      	str	r1, [r2, #4]
 80007a8:	881b      	ldrh	r3, [r3, #0]
 80007aa:	8113      	strh	r3, [r2, #8]
      break;
 80007ac:	e0ab      	b.n	8000906 <ERU1_0_IRQHandler+0x202>
    case '2':
      strcat(codedDigit, ".s.s-s-s-");
 80007ae:	f107 0314 	add.w	r3, r7, #20
 80007b2:	4618      	mov	r0, r3
 80007b4:	f002 fba4 	bl	8002f00 <strlen>
 80007b8:	4603      	mov	r3, r0
 80007ba:	461a      	mov	r2, r3
 80007bc:	f107 0314 	add.w	r3, r7, #20
 80007c0:	4413      	add	r3, r2
 80007c2:	496d      	ldr	r1, [pc, #436]	; (8000978 <ERU1_0_IRQHandler+0x274>)
 80007c4:	461a      	mov	r2, r3
 80007c6:	460b      	mov	r3, r1
 80007c8:	cb03      	ldmia	r3!, {r0, r1}
 80007ca:	6010      	str	r0, [r2, #0]
 80007cc:	6051      	str	r1, [r2, #4]
 80007ce:	881b      	ldrh	r3, [r3, #0]
 80007d0:	8113      	strh	r3, [r2, #8]
      break;
 80007d2:	e098      	b.n	8000906 <ERU1_0_IRQHandler+0x202>
    case '3':
      strcat(codedDigit, ".s.s.s-s-");
 80007d4:	f107 0314 	add.w	r3, r7, #20
 80007d8:	4618      	mov	r0, r3
 80007da:	f002 fb91 	bl	8002f00 <strlen>
 80007de:	4603      	mov	r3, r0
 80007e0:	461a      	mov	r2, r3
 80007e2:	f107 0314 	add.w	r3, r7, #20
 80007e6:	4413      	add	r3, r2
 80007e8:	4964      	ldr	r1, [pc, #400]	; (800097c <ERU1_0_IRQHandler+0x278>)
 80007ea:	461a      	mov	r2, r3
 80007ec:	460b      	mov	r3, r1
 80007ee:	cb03      	ldmia	r3!, {r0, r1}
 80007f0:	6010      	str	r0, [r2, #0]
 80007f2:	6051      	str	r1, [r2, #4]
 80007f4:	881b      	ldrh	r3, [r3, #0]
 80007f6:	8113      	strh	r3, [r2, #8]
      break;
 80007f8:	e085      	b.n	8000906 <ERU1_0_IRQHandler+0x202>
    case '4':
      strcat(codedDigit, ".s.s.s.s-");
 80007fa:	f107 0314 	add.w	r3, r7, #20
 80007fe:	4618      	mov	r0, r3
 8000800:	f002 fb7e 	bl	8002f00 <strlen>
 8000804:	4603      	mov	r3, r0
 8000806:	461a      	mov	r2, r3
 8000808:	f107 0314 	add.w	r3, r7, #20
 800080c:	4413      	add	r3, r2
 800080e:	495c      	ldr	r1, [pc, #368]	; (8000980 <ERU1_0_IRQHandler+0x27c>)
 8000810:	461a      	mov	r2, r3
 8000812:	460b      	mov	r3, r1
 8000814:	cb03      	ldmia	r3!, {r0, r1}
 8000816:	6010      	str	r0, [r2, #0]
 8000818:	6051      	str	r1, [r2, #4]
 800081a:	881b      	ldrh	r3, [r3, #0]
 800081c:	8113      	strh	r3, [r2, #8]
      break;
 800081e:	e072      	b.n	8000906 <ERU1_0_IRQHandler+0x202>
    case '5':
      strcat(codedDigit, ".s.s.s.s.");
 8000820:	f107 0314 	add.w	r3, r7, #20
 8000824:	4618      	mov	r0, r3
 8000826:	f002 fb6b 	bl	8002f00 <strlen>
 800082a:	4603      	mov	r3, r0
 800082c:	461a      	mov	r2, r3
 800082e:	f107 0314 	add.w	r3, r7, #20
 8000832:	4413      	add	r3, r2
 8000834:	4953      	ldr	r1, [pc, #332]	; (8000984 <ERU1_0_IRQHandler+0x280>)
 8000836:	461a      	mov	r2, r3
 8000838:	460b      	mov	r3, r1
 800083a:	cb03      	ldmia	r3!, {r0, r1}
 800083c:	6010      	str	r0, [r2, #0]
 800083e:	6051      	str	r1, [r2, #4]
 8000840:	881b      	ldrh	r3, [r3, #0]
 8000842:	8113      	strh	r3, [r2, #8]
      break;
 8000844:	e05f      	b.n	8000906 <ERU1_0_IRQHandler+0x202>
    case '6':
      strcat(codedDigit, "-s.s.s.s.");
 8000846:	f107 0314 	add.w	r3, r7, #20
 800084a:	4618      	mov	r0, r3
 800084c:	f002 fb58 	bl	8002f00 <strlen>
 8000850:	4603      	mov	r3, r0
 8000852:	461a      	mov	r2, r3
 8000854:	f107 0314 	add.w	r3, r7, #20
 8000858:	4413      	add	r3, r2
 800085a:	494b      	ldr	r1, [pc, #300]	; (8000988 <ERU1_0_IRQHandler+0x284>)
 800085c:	461a      	mov	r2, r3
 800085e:	460b      	mov	r3, r1
 8000860:	cb03      	ldmia	r3!, {r0, r1}
 8000862:	6010      	str	r0, [r2, #0]
 8000864:	6051      	str	r1, [r2, #4]
 8000866:	881b      	ldrh	r3, [r3, #0]
 8000868:	8113      	strh	r3, [r2, #8]
      break;
 800086a:	e04c      	b.n	8000906 <ERU1_0_IRQHandler+0x202>
    case '7':
      strcat(codedDigit, "-s-s.s.s.");
 800086c:	f107 0314 	add.w	r3, r7, #20
 8000870:	4618      	mov	r0, r3
 8000872:	f002 fb45 	bl	8002f00 <strlen>
 8000876:	4603      	mov	r3, r0
 8000878:	461a      	mov	r2, r3
 800087a:	f107 0314 	add.w	r3, r7, #20
 800087e:	4413      	add	r3, r2
 8000880:	4942      	ldr	r1, [pc, #264]	; (800098c <ERU1_0_IRQHandler+0x288>)
 8000882:	461a      	mov	r2, r3
 8000884:	460b      	mov	r3, r1
 8000886:	cb03      	ldmia	r3!, {r0, r1}
 8000888:	6010      	str	r0, [r2, #0]
 800088a:	6051      	str	r1, [r2, #4]
 800088c:	881b      	ldrh	r3, [r3, #0]
 800088e:	8113      	strh	r3, [r2, #8]
      break;
 8000890:	e039      	b.n	8000906 <ERU1_0_IRQHandler+0x202>
    case '8':
      strcat(codedDigit, "-s-s-s.s.");
 8000892:	f107 0314 	add.w	r3, r7, #20
 8000896:	4618      	mov	r0, r3
 8000898:	f002 fb32 	bl	8002f00 <strlen>
 800089c:	4603      	mov	r3, r0
 800089e:	461a      	mov	r2, r3
 80008a0:	f107 0314 	add.w	r3, r7, #20
 80008a4:	4413      	add	r3, r2
 80008a6:	493a      	ldr	r1, [pc, #232]	; (8000990 <ERU1_0_IRQHandler+0x28c>)
 80008a8:	461a      	mov	r2, r3
 80008aa:	460b      	mov	r3, r1
 80008ac:	cb03      	ldmia	r3!, {r0, r1}
 80008ae:	6010      	str	r0, [r2, #0]
 80008b0:	6051      	str	r1, [r2, #4]
 80008b2:	881b      	ldrh	r3, [r3, #0]
 80008b4:	8113      	strh	r3, [r2, #8]
      break;
 80008b6:	e026      	b.n	8000906 <ERU1_0_IRQHandler+0x202>
    case '9':
      strcat(codedDigit, "-s-s-s-s.");
 80008b8:	f107 0314 	add.w	r3, r7, #20
 80008bc:	4618      	mov	r0, r3
 80008be:	f002 fb1f 	bl	8002f00 <strlen>
 80008c2:	4603      	mov	r3, r0
 80008c4:	461a      	mov	r2, r3
 80008c6:	f107 0314 	add.w	r3, r7, #20
 80008ca:	4413      	add	r3, r2
 80008cc:	4931      	ldr	r1, [pc, #196]	; (8000994 <ERU1_0_IRQHandler+0x290>)
 80008ce:	461a      	mov	r2, r3
 80008d0:	460b      	mov	r3, r1
 80008d2:	cb03      	ldmia	r3!, {r0, r1}
 80008d4:	6010      	str	r0, [r2, #0]
 80008d6:	6051      	str	r1, [r2, #4]
 80008d8:	881b      	ldrh	r3, [r3, #0]
 80008da:	8113      	strh	r3, [r2, #8]
      break;
 80008dc:	e013      	b.n	8000906 <ERU1_0_IRQHandler+0x202>
    case '0':
      strcat(codedDigit, "-s-s-s-s-");
 80008de:	f107 0314 	add.w	r3, r7, #20
 80008e2:	4618      	mov	r0, r3
 80008e4:	f002 fb0c 	bl	8002f00 <strlen>
 80008e8:	4603      	mov	r3, r0
 80008ea:	461a      	mov	r2, r3
 80008ec:	f107 0314 	add.w	r3, r7, #20
 80008f0:	4413      	add	r3, r2
 80008f2:	4929      	ldr	r1, [pc, #164]	; (8000998 <ERU1_0_IRQHandler+0x294>)
 80008f4:	461a      	mov	r2, r3
 80008f6:	460b      	mov	r3, r1
 80008f8:	cb03      	ldmia	r3!, {r0, r1}
 80008fa:	6010      	str	r0, [r2, #0]
 80008fc:	6051      	str	r1, [r2, #4]
 80008fe:	881b      	ldrh	r3, [r3, #0]
 8000900:	8113      	strh	r3, [r2, #8]
      break;
 8000902:	e000      	b.n	8000906 <ERU1_0_IRQHandler+0x202>
    default:
      break;
 8000904:	bf00      	nop
  for (int i = 0; i < lengthOfNumberArray; i++)
 8000906:	f8d7 3424 	ldr.w	r3, [r7, #1060]	; 0x424
 800090a:	3301      	adds	r3, #1
 800090c:	f8c7 3424 	str.w	r3, [r7, #1060]	; 0x424
 8000910:	f8d7 2424 	ldr.w	r2, [r7, #1060]	; 0x424
 8000914:	f8d7 3418 	ldr.w	r3, [r7, #1048]	; 0x418
 8000918:	429a      	cmp	r2, r3
 800091a:	f6ff af14 	blt.w	8000746 <ERU1_0_IRQHandler+0x42>
      if (i != (lengthOfNumberArray - 1))
        strcat(codedDigit, "l");
    }
  }

  int lengthOfCodedDigit = strlen(codedDigit);
 800091e:	f107 0314 	add.w	r3, r7, #20
 8000922:	4618      	mov	r0, r3
 8000924:	f002 faec 	bl	8002f00 <strlen>
 8000928:	4603      	mov	r3, r0
 800092a:	f8c7 3414 	str.w	r3, [r7, #1044]	; 0x414
  for (int index = 0; index < lengthOfCodedDigit; index++)
 800092e:	2300      	movs	r3, #0
 8000930:	f8c7 3420 	str.w	r3, [r7, #1056]	; 0x420
 8000934:	e00d      	b.n	8000952 <ERU1_0_IRQHandler+0x24e>
  {
    transmitMessageByTypeBySWDelay(codedDigit[index]);
 8000936:	f107 0214 	add.w	r2, r7, #20
 800093a:	f8d7 3420 	ldr.w	r3, [r7, #1056]	; 0x420
 800093e:	4413      	add	r3, r2
 8000940:	781b      	ldrb	r3, [r3, #0]
 8000942:	4618      	mov	r0, r3
 8000944:	f7ff feb6 	bl	80006b4 <transmitMessageByTypeBySWDelay>
  for (int index = 0; index < lengthOfCodedDigit; index++)
 8000948:	f8d7 3420 	ldr.w	r3, [r7, #1056]	; 0x420
 800094c:	3301      	adds	r3, #1
 800094e:	f8c7 3420 	str.w	r3, [r7, #1056]	; 0x420
 8000952:	f8d7 2420 	ldr.w	r2, [r7, #1056]	; 0x420
 8000956:	f8d7 3414 	ldr.w	r3, [r7, #1044]	; 0x414
 800095a:	429a      	cmp	r2, r3
 800095c:	dbeb      	blt.n	8000936 <ERU1_0_IRQHandler+0x232>
  }
}
 800095e:	bf00      	nop
 8000960:	f507 6785 	add.w	r7, r7, #1064	; 0x428
 8000964:	46bd      	mov	sp, r7
 8000966:	bd80      	pop	{r7, pc}
 8000968:	200009fc 	.word	0x200009fc
 800096c:	200009f8 	.word	0x200009f8
 8000970:	08008e30 	.word	0x08008e30
 8000974:	08008e34 	.word	0x08008e34
 8000978:	08008e40 	.word	0x08008e40
 800097c:	08008e4c 	.word	0x08008e4c
 8000980:	08008e58 	.word	0x08008e58
 8000984:	08008e64 	.word	0x08008e64
 8000988:	08008e70 	.word	0x08008e70
 800098c:	08008e7c 	.word	0x08008e7c
 8000990:	08008e88 	.word	0x08008e88
 8000994:	08008e94 	.word	0x08008e94
 8000998:	08008ea0 	.word	0x08008ea0

0800099c <main>:

int main(void)
{
 800099c:	b5b0      	push	{r4, r5, r7, lr}
 800099e:	b08e      	sub	sp, #56	; 0x38
 80009a0:	af00      	add	r7, sp, #0

  SysTick_Config(SystemCoreClock / TICKS_PER_SECOND);
 80009a2:	4b32      	ldr	r3, [pc, #200]	; (8000a6c <main+0xd0>)
 80009a4:	681b      	ldr	r3, [r3, #0]
 80009a6:	4a32      	ldr	r2, [pc, #200]	; (8000a70 <main+0xd4>)
 80009a8:	fba2 2303 	umull	r2, r3, r2, r3
 80009ac:	099b      	lsrs	r3, r3, #6
 80009ae:	4618      	mov	r0, r3
 80009b0:	f7ff fd0a 	bl	80003c8 <SysTick_Config>

  initLed2_P1_0();
 80009b4:	f7ff fdb6 	bl	8000524 <initLed2_P1_0>
  initButton1_P1_14();
 80009b8:	f7ff fdca 	bl	8000550 <initButton1_P1_14>

  XMC_ERU_ETL_Init(ERU1_ETL1, &button_event_generator_config);
 80009bc:	4a2d      	ldr	r2, [pc, #180]	; (8000a74 <main+0xd8>)
 80009be:	2101      	movs	r1, #1
 80009c0:	482d      	ldr	r0, [pc, #180]	; (8000a78 <main+0xdc>)
 80009c2:	f001 fe31 	bl	8002628 <XMC_ERU_ETL_Init>
  XMC_ERU_OGU_Init(ERU1_OGU0, &button_event_detection_config);
 80009c6:	4a2d      	ldr	r2, [pc, #180]	; (8000a7c <main+0xe0>)
 80009c8:	2100      	movs	r1, #0
 80009ca:	482b      	ldr	r0, [pc, #172]	; (8000a78 <main+0xdc>)
 80009cc:	f001 fe53 	bl	8002676 <XMC_ERU_OGU_Init>

  XMC_GPIO_SetMode(P1_15, XMC_GPIO_MODE_INPUT_TRISTATE);
 80009d0:	2200      	movs	r2, #0
 80009d2:	210f      	movs	r1, #15
 80009d4:	482a      	ldr	r0, [pc, #168]	; (8000a80 <main+0xe4>)
 80009d6:	f000 f942 	bl	8000c5e <XMC_GPIO_SetMode>

  NVIC_SetPriority(ERU1_0_IRQn, NVIC_EncodePriority(NVIC_GetPriorityGrouping(), 63, 0));
 80009da:	f7ff fc6b 	bl	80002b4 <__NVIC_GetPriorityGrouping>
 80009de:	4603      	mov	r3, r0
 80009e0:	2200      	movs	r2, #0
 80009e2:	213f      	movs	r1, #63	; 0x3f
 80009e4:	4618      	mov	r0, r3
 80009e6:	f7ff fcbb 	bl	8000360 <NVIC_EncodePriority>
 80009ea:	4603      	mov	r3, r0
 80009ec:	4619      	mov	r1, r3
 80009ee:	2005      	movs	r0, #5
 80009f0:	f7ff fc8c 	bl	800030c <__NVIC_SetPriority>
  NVIC_EnableIRQ(ERU1_0_IRQn);
 80009f4:	2005      	movs	r0, #5
 80009f6:	f7ff fc6b 	bl	80002d0 <__NVIC_EnableIRQ>

  previousTicksCount = 0;
 80009fa:	4b22      	ldr	r3, [pc, #136]	; (8000a84 <main+0xe8>)
 80009fc:	2200      	movs	r2, #0
 80009fe:	601a      	str	r2, [r3, #0]
  currentTicksCount = 0;
 8000a00:	4b21      	ldr	r3, [pc, #132]	; (8000a88 <main+0xec>)
 8000a02:	2200      	movs	r2, #0
 8000a04:	601a      	str	r2, [r3, #0]

  char codedMessage[] = ".s.w-s.s-s.l.s-l-s.w-s-l-s-s-l.s-s.l.s.s.l.";
 8000a06:	4b21      	ldr	r3, [pc, #132]	; (8000a8c <main+0xf0>)
 8000a08:	1d3c      	adds	r4, r7, #4
 8000a0a:	461d      	mov	r5, r3
 8000a0c:	cd0f      	ldmia	r5!, {r0, r1, r2, r3}
 8000a0e:	c40f      	stmia	r4!, {r0, r1, r2, r3}
 8000a10:	cd0f      	ldmia	r5!, {r0, r1, r2, r3}
 8000a12:	c40f      	stmia	r4!, {r0, r1, r2, r3}
 8000a14:	e895 0007 	ldmia.w	r5, {r0, r1, r2}
 8000a18:	e884 0007 	stmia.w	r4, {r0, r1, r2}
  int lengthOfMessage = strlen(codedMessage);
 8000a1c:	1d3b      	adds	r3, r7, #4
 8000a1e:	4618      	mov	r0, r3
 8000a20:	f002 fa6e 	bl	8002f00 <strlen>
 8000a24:	4603      	mov	r3, r0
 8000a26:	633b      	str	r3, [r7, #48]	; 0x30

  while (1)
  {
    // if button press, then send string
    if (XMC_GPIO_GetInput(XMC_GPIO_PORT1, 14) == 0)
 8000a28:	210e      	movs	r1, #14
 8000a2a:	4815      	ldr	r0, [pc, #84]	; (8000a80 <main+0xe4>)
 8000a2c:	f7ff fd11 	bl	8000452 <XMC_GPIO_GetInput>
 8000a30:	4603      	mov	r3, r0
 8000a32:	2b00      	cmp	r3, #0
 8000a34:	d1f8      	bne.n	8000a28 <main+0x8c>
    {
      previousTicksCount = currentTicksCount;
 8000a36:	4b14      	ldr	r3, [pc, #80]	; (8000a88 <main+0xec>)
 8000a38:	681b      	ldr	r3, [r3, #0]
 8000a3a:	4a12      	ldr	r2, [pc, #72]	; (8000a84 <main+0xe8>)
 8000a3c:	6013      	str	r3, [r2, #0]
      currentTicksCount = msTicks;
 8000a3e:	4b14      	ldr	r3, [pc, #80]	; (8000a90 <main+0xf4>)
 8000a40:	681b      	ldr	r3, [r3, #0]
 8000a42:	4a11      	ldr	r2, [pc, #68]	; (8000a88 <main+0xec>)
 8000a44:	6013      	str	r3, [r2, #0]

      for (int index = 0; index < lengthOfMessage; index++)
 8000a46:	2300      	movs	r3, #0
 8000a48:	637b      	str	r3, [r7, #52]	; 0x34
 8000a4a:	e009      	b.n	8000a60 <main+0xc4>
      {
        transmitMessageByTypeByHWDelay(codedMessage[index]);
 8000a4c:	1d3a      	adds	r2, r7, #4
 8000a4e:	6b7b      	ldr	r3, [r7, #52]	; 0x34
 8000a50:	4413      	add	r3, r2
 8000a52:	781b      	ldrb	r3, [r3, #0]
 8000a54:	4618      	mov	r0, r3
 8000a56:	f7ff fe06 	bl	8000666 <transmitMessageByTypeByHWDelay>
      for (int index = 0; index < lengthOfMessage; index++)
 8000a5a:	6b7b      	ldr	r3, [r7, #52]	; 0x34
 8000a5c:	3301      	adds	r3, #1
 8000a5e:	637b      	str	r3, [r7, #52]	; 0x34
 8000a60:	6b7a      	ldr	r2, [r7, #52]	; 0x34
 8000a62:	6b3b      	ldr	r3, [r7, #48]	; 0x30
 8000a64:	429a      	cmp	r2, r3
 8000a66:	dbf1      	blt.n	8000a4c <main+0xb0>
    if (XMC_GPIO_GetInput(XMC_GPIO_PORT1, 14) == 0)
 8000a68:	e7de      	b.n	8000a28 <main+0x8c>
 8000a6a:	bf00      	nop
 8000a6c:	2000ffc0 	.word	0x2000ffc0
 8000a70:	10624dd3 	.word	0x10624dd3
 8000a74:	20000000 	.word	0x20000000
 8000a78:	40044000 	.word	0x40044000
 8000a7c:	20000008 	.word	0x20000008
 8000a80:	48028100 	.word	0x48028100
 8000a84:	200009f8 	.word	0x200009f8
 8000a88:	200009fc 	.word	0x200009fc
 8000a8c:	08008eac 	.word	0x08008eac
 8000a90:	200009f4 	.word	0x200009f4

08000a94 <XMC_GPIO_Init>:
/*******************************************************************************
 * API IMPLEMENTATION
 *******************************************************************************/

void XMC_GPIO_Init(XMC_GPIO_PORT_t *const port, const uint8_t pin, const XMC_GPIO_CONFIG_t *const config)
{
 8000a94:	b480      	push	{r7}
 8000a96:	b085      	sub	sp, #20
 8000a98:	af00      	add	r7, sp, #0
 8000a9a:	60f8      	str	r0, [r7, #12]
 8000a9c:	460b      	mov	r3, r1
 8000a9e:	607a      	str	r2, [r7, #4]
 8000aa0:	72fb      	strb	r3, [r7, #11]
  XMC_ASSERT("XMC_GPIO_Init: Invalid port", XMC_GPIO_CHECK_PORT(port));
  XMC_ASSERT("XMC_GPIO_Init: Invalid mode", XMC_GPIO_IsModeValid(config->mode));
 
  /* Switch to input */
  port->IOCR[pin >> 2U] &= (uint32_t)~(PORT_IOCR_PC_Msk << (PORT_IOCR_PC_Size * (pin & 0x3U)));
 8000aa2:	7afb      	ldrb	r3, [r7, #11]
 8000aa4:	089b      	lsrs	r3, r3, #2
 8000aa6:	b2db      	uxtb	r3, r3
 8000aa8:	461a      	mov	r2, r3
 8000aaa:	68fb      	ldr	r3, [r7, #12]
 8000aac:	3204      	adds	r2, #4
 8000aae:	f853 2022 	ldr.w	r2, [r3, r2, lsl #2]
 8000ab2:	7afb      	ldrb	r3, [r7, #11]
 8000ab4:	f003 0303 	and.w	r3, r3, #3
 8000ab8:	00db      	lsls	r3, r3, #3
 8000aba:	21f8      	movs	r1, #248	; 0xf8
 8000abc:	fa01 f303 	lsl.w	r3, r1, r3
 8000ac0:	43db      	mvns	r3, r3
 8000ac2:	7af9      	ldrb	r1, [r7, #11]
 8000ac4:	0889      	lsrs	r1, r1, #2
 8000ac6:	b2c9      	uxtb	r1, r1
 8000ac8:	4608      	mov	r0, r1
 8000aca:	ea02 0103 	and.w	r1, r2, r3
 8000ace:	68fb      	ldr	r3, [r7, #12]
 8000ad0:	1d02      	adds	r2, r0, #4
 8000ad2:	f843 1022 	str.w	r1, [r3, r2, lsl #2]

  /* HW port control is disabled */
  port->HWSEL &= ~(uint32_t)((uint32_t)PORT_HWSEL_Msk << ((uint32_t)pin << 1U));
 8000ad6:	68fb      	ldr	r3, [r7, #12]
 8000ad8:	6f5a      	ldr	r2, [r3, #116]	; 0x74
 8000ada:	7afb      	ldrb	r3, [r7, #11]
 8000adc:	005b      	lsls	r3, r3, #1
 8000ade:	2103      	movs	r1, #3
 8000ae0:	fa01 f303 	lsl.w	r3, r1, r3
 8000ae4:	43db      	mvns	r3, r3
 8000ae6:	401a      	ands	r2, r3
 8000ae8:	68fb      	ldr	r3, [r7, #12]
 8000aea:	675a      	str	r2, [r3, #116]	; 0x74


  /* Enable digital input */
  if (XMC_GPIO_CHECK_ANALOG_PORT(port))
 8000aec:	68fb      	ldr	r3, [r7, #12]
 8000aee:	4a38      	ldr	r2, [pc, #224]	; (8000bd0 <XMC_GPIO_Init+0x13c>)
 8000af0:	4293      	cmp	r3, r2
 8000af2:	d003      	beq.n	8000afc <XMC_GPIO_Init+0x68>
 8000af4:	68fb      	ldr	r3, [r7, #12]
 8000af6:	4a37      	ldr	r2, [pc, #220]	; (8000bd4 <XMC_GPIO_Init+0x140>)
 8000af8:	4293      	cmp	r3, r2
 8000afa:	d10a      	bne.n	8000b12 <XMC_GPIO_Init+0x7e>
  {
    port->PDISC &= ~(uint32_t)((uint32_t)0x1U << pin);
 8000afc:	68fb      	ldr	r3, [r7, #12]
 8000afe:	6e1a      	ldr	r2, [r3, #96]	; 0x60
 8000b00:	7afb      	ldrb	r3, [r7, #11]
 8000b02:	2101      	movs	r1, #1
 8000b04:	fa01 f303 	lsl.w	r3, r1, r3
 8000b08:	43db      	mvns	r3, r3
 8000b0a:	401a      	ands	r2, r3
 8000b0c:	68fb      	ldr	r3, [r7, #12]
 8000b0e:	661a      	str	r2, [r3, #96]	; 0x60
 8000b10:	e03c      	b.n	8000b8c <XMC_GPIO_Init+0xf8>
  }
  else
  {
    /* Set output level */
    port->OMR = (uint32_t)config->output_level << pin;
 8000b12:	687b      	ldr	r3, [r7, #4]
 8000b14:	685a      	ldr	r2, [r3, #4]
 8000b16:	7afb      	ldrb	r3, [r7, #11]
 8000b18:	409a      	lsls	r2, r3
 8000b1a:	68fb      	ldr	r3, [r7, #12]
 8000b1c:	605a      	str	r2, [r3, #4]

    /* Set output driver strength */
    port->PDR[pin >> 3U] &= (uint32_t)~(PORT_PDR_Msk << ((uint32_t)PORT_PDR_Size * ((uint32_t)pin & 0x7U)));
 8000b1e:	7afb      	ldrb	r3, [r7, #11]
 8000b20:	08db      	lsrs	r3, r3, #3
 8000b22:	b2db      	uxtb	r3, r3
 8000b24:	461a      	mov	r2, r3
 8000b26:	68fb      	ldr	r3, [r7, #12]
 8000b28:	3210      	adds	r2, #16
 8000b2a:	f853 2022 	ldr.w	r2, [r3, r2, lsl #2]
 8000b2e:	7afb      	ldrb	r3, [r7, #11]
 8000b30:	f003 0307 	and.w	r3, r3, #7
 8000b34:	009b      	lsls	r3, r3, #2
 8000b36:	2107      	movs	r1, #7
 8000b38:	fa01 f303 	lsl.w	r3, r1, r3
 8000b3c:	43db      	mvns	r3, r3
 8000b3e:	7af9      	ldrb	r1, [r7, #11]
 8000b40:	08c9      	lsrs	r1, r1, #3
 8000b42:	b2c9      	uxtb	r1, r1
 8000b44:	4608      	mov	r0, r1
 8000b46:	ea02 0103 	and.w	r1, r2, r3
 8000b4a:	68fb      	ldr	r3, [r7, #12]
 8000b4c:	f100 0210 	add.w	r2, r0, #16
 8000b50:	f843 1022 	str.w	r1, [r3, r2, lsl #2]
    port->PDR[pin >> 3U] |= (uint32_t)config->output_strength << ((uint32_t)PORT_PDR_Size * ((uint32_t)pin & 0x7U));
 8000b54:	7afb      	ldrb	r3, [r7, #11]
 8000b56:	08db      	lsrs	r3, r3, #3
 8000b58:	b2db      	uxtb	r3, r3
 8000b5a:	461a      	mov	r2, r3
 8000b5c:	68fb      	ldr	r3, [r7, #12]
 8000b5e:	3210      	adds	r2, #16
 8000b60:	f853 2022 	ldr.w	r2, [r3, r2, lsl #2]
 8000b64:	687b      	ldr	r3, [r7, #4]
 8000b66:	7a1b      	ldrb	r3, [r3, #8]
 8000b68:	4619      	mov	r1, r3
 8000b6a:	7afb      	ldrb	r3, [r7, #11]
 8000b6c:	f003 0307 	and.w	r3, r3, #7
 8000b70:	009b      	lsls	r3, r3, #2
 8000b72:	fa01 f303 	lsl.w	r3, r1, r3
 8000b76:	7af9      	ldrb	r1, [r7, #11]
 8000b78:	08c9      	lsrs	r1, r1, #3
 8000b7a:	b2c9      	uxtb	r1, r1
 8000b7c:	4608      	mov	r0, r1
 8000b7e:	ea42 0103 	orr.w	r1, r2, r3
 8000b82:	68fb      	ldr	r3, [r7, #12]
 8000b84:	f100 0210 	add.w	r2, r0, #16
 8000b88:	f843 1022 	str.w	r1, [r3, r2, lsl #2]
  }

  /* Set mode */
  port->IOCR[pin >> 2U] |= (uint32_t)config->mode << ((uint32_t)PORT_IOCR_PC_Size * ((uint32_t)pin & 0x3U));
 8000b8c:	7afb      	ldrb	r3, [r7, #11]
 8000b8e:	089b      	lsrs	r3, r3, #2
 8000b90:	b2db      	uxtb	r3, r3
 8000b92:	461a      	mov	r2, r3
 8000b94:	68fb      	ldr	r3, [r7, #12]
 8000b96:	3204      	adds	r2, #4
 8000b98:	f853 2022 	ldr.w	r2, [r3, r2, lsl #2]
 8000b9c:	687b      	ldr	r3, [r7, #4]
 8000b9e:	781b      	ldrb	r3, [r3, #0]
 8000ba0:	4619      	mov	r1, r3
 8000ba2:	7afb      	ldrb	r3, [r7, #11]
 8000ba4:	f003 0303 	and.w	r3, r3, #3
 8000ba8:	00db      	lsls	r3, r3, #3
 8000baa:	fa01 f303 	lsl.w	r3, r1, r3
 8000bae:	7af9      	ldrb	r1, [r7, #11]
 8000bb0:	0889      	lsrs	r1, r1, #2
 8000bb2:	b2c9      	uxtb	r1, r1
 8000bb4:	4608      	mov	r0, r1
 8000bb6:	ea42 0103 	orr.w	r1, r2, r3
 8000bba:	68fb      	ldr	r3, [r7, #12]
 8000bbc:	1d02      	adds	r2, r0, #4
 8000bbe:	f843 1022 	str.w	r1, [r3, r2, lsl #2]
}
 8000bc2:	bf00      	nop
 8000bc4:	3714      	adds	r7, #20
 8000bc6:	46bd      	mov	sp, r7
 8000bc8:	f85d 7b04 	ldr.w	r7, [sp], #4
 8000bcc:	4770      	bx	lr
 8000bce:	bf00      	nop
 8000bd0:	48028e00 	.word	0x48028e00
 8000bd4:	48028f00 	.word	0x48028f00

08000bd8 <XMC_GPIO_SetOutputStrength>:

void XMC_GPIO_SetOutputStrength(XMC_GPIO_PORT_t *const port, const uint8_t pin, XMC_GPIO_OUTPUT_STRENGTH_t strength)
{
 8000bd8:	b480      	push	{r7}
 8000bda:	b083      	sub	sp, #12
 8000bdc:	af00      	add	r7, sp, #0
 8000bde:	6078      	str	r0, [r7, #4]
 8000be0:	460b      	mov	r3, r1
 8000be2:	70fb      	strb	r3, [r7, #3]
 8000be4:	4613      	mov	r3, r2
 8000be6:	70bb      	strb	r3, [r7, #2]
  XMC_ASSERT("XMC_GPIO_Init: Invalid port", XMC_GPIO_CHECK_OUTPUT_PORT(port));
  XMC_ASSERT("XMC_GPIO_Init: Invalid output strength", XMC_GPIO_CHECK_OUTPUT_STRENGTH(strength));

  port->PDR[pin >> 3U] &= (uint32_t)~((uint32_t)PORT_PDR_Msk << ((uint32_t)PORT_PDR_Size * ((uint32_t)pin & 0x7U)));
 8000be8:	78fb      	ldrb	r3, [r7, #3]
 8000bea:	08db      	lsrs	r3, r3, #3
 8000bec:	b2db      	uxtb	r3, r3
 8000bee:	461a      	mov	r2, r3
 8000bf0:	687b      	ldr	r3, [r7, #4]
 8000bf2:	3210      	adds	r2, #16
 8000bf4:	f853 2022 	ldr.w	r2, [r3, r2, lsl #2]
 8000bf8:	78fb      	ldrb	r3, [r7, #3]
 8000bfa:	f003 0307 	and.w	r3, r3, #7
 8000bfe:	009b      	lsls	r3, r3, #2
 8000c00:	2107      	movs	r1, #7
 8000c02:	fa01 f303 	lsl.w	r3, r1, r3
 8000c06:	43db      	mvns	r3, r3
 8000c08:	78f9      	ldrb	r1, [r7, #3]
 8000c0a:	08c9      	lsrs	r1, r1, #3
 8000c0c:	b2c9      	uxtb	r1, r1
 8000c0e:	4608      	mov	r0, r1
 8000c10:	ea02 0103 	and.w	r1, r2, r3
 8000c14:	687b      	ldr	r3, [r7, #4]
 8000c16:	f100 0210 	add.w	r2, r0, #16
 8000c1a:	f843 1022 	str.w	r1, [r3, r2, lsl #2]
  port->PDR[pin >> 3U] |= (uint32_t)strength << ((uint32_t)PORT_PDR_Size * ((uint32_t)pin & 0x7U));
 8000c1e:	78fb      	ldrb	r3, [r7, #3]
 8000c20:	08db      	lsrs	r3, r3, #3
 8000c22:	b2db      	uxtb	r3, r3
 8000c24:	461a      	mov	r2, r3
 8000c26:	687b      	ldr	r3, [r7, #4]
 8000c28:	3210      	adds	r2, #16
 8000c2a:	f853 2022 	ldr.w	r2, [r3, r2, lsl #2]
 8000c2e:	78b9      	ldrb	r1, [r7, #2]
 8000c30:	78fb      	ldrb	r3, [r7, #3]
 8000c32:	f003 0307 	and.w	r3, r3, #7
 8000c36:	009b      	lsls	r3, r3, #2
 8000c38:	fa01 f303 	lsl.w	r3, r1, r3
 8000c3c:	78f9      	ldrb	r1, [r7, #3]
 8000c3e:	08c9      	lsrs	r1, r1, #3
 8000c40:	b2c9      	uxtb	r1, r1
 8000c42:	4608      	mov	r0, r1
 8000c44:	ea42 0103 	orr.w	r1, r2, r3
 8000c48:	687b      	ldr	r3, [r7, #4]
 8000c4a:	f100 0210 	add.w	r2, r0, #16
 8000c4e:	f843 1022 	str.w	r1, [r3, r2, lsl #2]
}
 8000c52:	bf00      	nop
 8000c54:	370c      	adds	r7, #12
 8000c56:	46bd      	mov	sp, r7
 8000c58:	f85d 7b04 	ldr.w	r7, [sp], #4
 8000c5c:	4770      	bx	lr

08000c5e <XMC_GPIO_SetMode>:
/*******************************************************************************
 * API IMPLEMENTATION
 *******************************************************************************/

void XMC_GPIO_SetMode(XMC_GPIO_PORT_t *const port, const uint8_t pin, const XMC_GPIO_MODE_t mode)
{
 8000c5e:	b480      	push	{r7}
 8000c60:	b083      	sub	sp, #12
 8000c62:	af00      	add	r7, sp, #0
 8000c64:	6078      	str	r0, [r7, #4]
 8000c66:	460b      	mov	r3, r1
 8000c68:	70fb      	strb	r3, [r7, #3]
 8000c6a:	4613      	mov	r3, r2
 8000c6c:	70bb      	strb	r3, [r7, #2]
  XMC_ASSERT("XMC_GPIO_SetMode: Invalid port", XMC_GPIO_CHECK_PORT(port));
  XMC_ASSERT("XMC_GPIO_SetMode: Invalid mode", XMC_GPIO_IsModeValid(mode));

  port->IOCR[(uint32_t)pin >> 2U] &= ~(uint32_t)((uint32_t)PORT_IOCR_PC_Msk << ((uint32_t)PORT_IOCR_PC_Size * ((uint32_t)pin & 0x3U)));
 8000c6e:	78fb      	ldrb	r3, [r7, #3]
 8000c70:	089b      	lsrs	r3, r3, #2
 8000c72:	b2db      	uxtb	r3, r3
 8000c74:	461a      	mov	r2, r3
 8000c76:	687b      	ldr	r3, [r7, #4]
 8000c78:	3204      	adds	r2, #4
 8000c7a:	f853 2022 	ldr.w	r2, [r3, r2, lsl #2]
 8000c7e:	78fb      	ldrb	r3, [r7, #3]
 8000c80:	f003 0303 	and.w	r3, r3, #3
 8000c84:	00db      	lsls	r3, r3, #3
 8000c86:	21f8      	movs	r1, #248	; 0xf8
 8000c88:	fa01 f303 	lsl.w	r3, r1, r3
 8000c8c:	43db      	mvns	r3, r3
 8000c8e:	78f9      	ldrb	r1, [r7, #3]
 8000c90:	0889      	lsrs	r1, r1, #2
 8000c92:	b2c9      	uxtb	r1, r1
 8000c94:	4608      	mov	r0, r1
 8000c96:	ea02 0103 	and.w	r1, r2, r3
 8000c9a:	687b      	ldr	r3, [r7, #4]
 8000c9c:	1d02      	adds	r2, r0, #4
 8000c9e:	f843 1022 	str.w	r1, [r3, r2, lsl #2]
  port->IOCR[(uint32_t)pin >> 2U] |= (uint32_t)mode << ((uint32_t)PORT_IOCR_PC_Size * ((uint32_t)pin & 0x3U));
 8000ca2:	78fb      	ldrb	r3, [r7, #3]
 8000ca4:	089b      	lsrs	r3, r3, #2
 8000ca6:	b2db      	uxtb	r3, r3
 8000ca8:	461a      	mov	r2, r3
 8000caa:	687b      	ldr	r3, [r7, #4]
 8000cac:	3204      	adds	r2, #4
 8000cae:	f853 2022 	ldr.w	r2, [r3, r2, lsl #2]
 8000cb2:	78b9      	ldrb	r1, [r7, #2]
 8000cb4:	78fb      	ldrb	r3, [r7, #3]
 8000cb6:	f003 0303 	and.w	r3, r3, #3
 8000cba:	00db      	lsls	r3, r3, #3
 8000cbc:	fa01 f303 	lsl.w	r3, r1, r3
 8000cc0:	78f9      	ldrb	r1, [r7, #3]
 8000cc2:	0889      	lsrs	r1, r1, #2
 8000cc4:	b2c9      	uxtb	r1, r1
 8000cc6:	4608      	mov	r0, r1
 8000cc8:	ea42 0103 	orr.w	r1, r2, r3
 8000ccc:	687b      	ldr	r3, [r7, #4]
 8000cce:	1d02      	adds	r2, r0, #4
 8000cd0:	f843 1022 	str.w	r1, [r3, r2, lsl #2]
}
 8000cd4:	bf00      	nop
 8000cd6:	370c      	adds	r7, #12
 8000cd8:	46bd      	mov	sp, r7
 8000cda:	f85d 7b04 	ldr.w	r7, [sp], #4
 8000cde:	4770      	bx	lr

08000ce0 <XMC_GPIO_SetHardwareControl>:

void XMC_GPIO_SetHardwareControl(XMC_GPIO_PORT_t *const port, const uint8_t pin, const XMC_GPIO_HWCTRL_t hwctrl)
{
 8000ce0:	b480      	push	{r7}
 8000ce2:	b083      	sub	sp, #12
 8000ce4:	af00      	add	r7, sp, #0
 8000ce6:	6078      	str	r0, [r7, #4]
 8000ce8:	460b      	mov	r3, r1
 8000cea:	70fb      	strb	r3, [r7, #3]
 8000cec:	4613      	mov	r3, r2
 8000cee:	70bb      	strb	r3, [r7, #2]
  XMC_ASSERT("XMC_GPIO_SetHardwareControl: Invalid port", XMC_GPIO_CHECK_PORT(port));
  XMC_ASSERT("XMC_GPIO_SetHardwareControl: Invalid hwctrl", XMC_GPIO_CHECK_HWCTRL(hwctrl));

  port->HWSEL &= ~(uint32_t)((uint32_t)PORT_HWSEL_Msk << ((uint32_t)pin << 1U));
 8000cf0:	687b      	ldr	r3, [r7, #4]
 8000cf2:	6f5a      	ldr	r2, [r3, #116]	; 0x74
 8000cf4:	78fb      	ldrb	r3, [r7, #3]
 8000cf6:	005b      	lsls	r3, r3, #1
 8000cf8:	2103      	movs	r1, #3
 8000cfa:	fa01 f303 	lsl.w	r3, r1, r3
 8000cfe:	43db      	mvns	r3, r3
 8000d00:	401a      	ands	r2, r3
 8000d02:	687b      	ldr	r3, [r7, #4]
 8000d04:	675a      	str	r2, [r3, #116]	; 0x74
  port->HWSEL |= (uint32_t)hwctrl << ((uint32_t)pin << 1U);
 8000d06:	687b      	ldr	r3, [r7, #4]
 8000d08:	6f5a      	ldr	r2, [r3, #116]	; 0x74
 8000d0a:	78b9      	ldrb	r1, [r7, #2]
 8000d0c:	78fb      	ldrb	r3, [r7, #3]
 8000d0e:	005b      	lsls	r3, r3, #1
 8000d10:	fa01 f303 	lsl.w	r3, r1, r3
 8000d14:	431a      	orrs	r2, r3
 8000d16:	687b      	ldr	r3, [r7, #4]
 8000d18:	675a      	str	r2, [r3, #116]	; 0x74
}
 8000d1a:	bf00      	nop
 8000d1c:	370c      	adds	r7, #12
 8000d1e:	46bd      	mov	sp, r7
 8000d20:	f85d 7b04 	ldr.w	r7, [sp], #4
 8000d24:	4770      	bx	lr
	...

08000d28 <XMC_ERU_Enable>:
/*********************************************************************************************************************
 * API IMPLEMENTATION
 ********************************************************************************************************************/
/* Enable the clock and De-assert the ERU module from the reset state. */
void XMC_ERU_Enable(XMC_ERU_t *const eru)
{
 8000d28:	b580      	push	{r7, lr}
 8000d2a:	b082      	sub	sp, #8
 8000d2c:	af00      	add	r7, sp, #0
 8000d2e:	6078      	str	r0, [r7, #4]
#if defined(XMC_ERU1)
  if (eru == XMC_ERU1)
 8000d30:	687b      	ldr	r3, [r7, #4]
 8000d32:	4a05      	ldr	r2, [pc, #20]	; (8000d48 <XMC_ERU_Enable+0x20>)
 8000d34:	4293      	cmp	r3, r2
 8000d36:	d103      	bne.n	8000d40 <XMC_ERU_Enable+0x18>
  {
#if defined(CLOCK_GATING_SUPPORTED)
    XMC_SCU_CLOCK_UngatePeripheralClock(XMC_SCU_PERIPHERAL_CLOCK_ERU1);
#endif
    XMC_SCU_RESET_DeassertPeripheralReset(XMC_SCU_PERIPHERAL_RESET_ERU1);
 8000d38:	f44f 3080 	mov.w	r0, #65536	; 0x10000
 8000d3c:	f000 fbde 	bl	80014fc <XMC_SCU_RESET_DeassertPeripheralReset>
  }
#else
  XMC_UNUSED_ARG(eru);
  #endif
}
 8000d40:	bf00      	nop
 8000d42:	3708      	adds	r7, #8
 8000d44:	46bd      	mov	sp, r7
 8000d46:	bd80      	pop	{r7, pc}
 8000d48:	40044000 	.word	0x40044000

08000d4c <XMC_ERU_Disable>:

/* Disable the clock and Reset the ERU module. */
void XMC_ERU_Disable(XMC_ERU_t *const eru)
{
 8000d4c:	b580      	push	{r7, lr}
 8000d4e:	b082      	sub	sp, #8
 8000d50:	af00      	add	r7, sp, #0
 8000d52:	6078      	str	r0, [r7, #4]
#if defined(XMC_ERU1)
  if (eru == XMC_ERU1)
 8000d54:	687b      	ldr	r3, [r7, #4]
 8000d56:	4a05      	ldr	r2, [pc, #20]	; (8000d6c <XMC_ERU_Disable+0x20>)
 8000d58:	4293      	cmp	r3, r2
 8000d5a:	d103      	bne.n	8000d64 <XMC_ERU_Disable+0x18>
  {
    XMC_SCU_RESET_AssertPeripheralReset(XMC_SCU_PERIPHERAL_RESET_ERU1);
 8000d5c:	f44f 3080 	mov.w	r0, #65536	; 0x10000
 8000d60:	f000 fbae 	bl	80014c0 <XMC_SCU_RESET_AssertPeripheralReset>
    #endif
  }
#else
  XMC_UNUSED_ARG(eru);
#endif
}
 8000d64:	bf00      	nop
 8000d66:	3708      	adds	r7, #8
 8000d68:	46bd      	mov	sp, r7
 8000d6a:	bd80      	pop	{r7, pc}
 8000d6c:	40044000 	.word	0x40044000

08000d70 <XMC_SCU_CLOCK_GetUsbClockSource>:
 * The clock source is read from from the \a USBSEL bits of \a USBCLKCR register.
 * \par<b>Related APIs:</b><BR>
 * XMC_SCU_CLOCK_SetUsbClockDivider(), XMC_SCU_CLOCK_GetUsbPllClockFrequency() \n\n\n
 */
__STATIC_INLINE XMC_SCU_CLOCK_USBCLKSRC_t XMC_SCU_CLOCK_GetUsbClockSource(void)
{
 8000d70:	b480      	push	{r7}
 8000d72:	af00      	add	r7, sp, #0
  return (XMC_SCU_CLOCK_USBCLKSRC_t)(SCU_CLK->USBCLKCR & SCU_CLK_USBCLKCR_USBSEL_Msk);
 8000d74:	4b04      	ldr	r3, [pc, #16]	; (8000d88 <XMC_SCU_CLOCK_GetUsbClockSource+0x18>)
 8000d76:	699b      	ldr	r3, [r3, #24]
 8000d78:	f403 3380 	and.w	r3, r3, #65536	; 0x10000
}
 8000d7c:	4618      	mov	r0, r3
 8000d7e:	46bd      	mov	sp, r7
 8000d80:	f85d 7b04 	ldr.w	r7, [sp], #4
 8000d84:	4770      	bx	lr
 8000d86:	bf00      	nop
 8000d88:	50004600 	.word	0x50004600

08000d8c <XMC_SCU_CLOCK_GetWdtClockSource>:
 * the clock source selected.
 * \par<b>Related APIs:</b><BR>
 * XMC_SCU_CLOCK_SetWdtClockDivider(), XMC_SCU_CLOCK_SetWdtClockSource() \n\n\n
 */
__STATIC_INLINE XMC_SCU_CLOCK_WDTCLKSRC_t XMC_SCU_CLOCK_GetWdtClockSource(void)
{
 8000d8c:	b480      	push	{r7}
 8000d8e:	af00      	add	r7, sp, #0
  return (XMC_SCU_CLOCK_WDTCLKSRC_t)(SCU_CLK->WDTCLKCR & SCU_CLK_WDTCLKCR_WDTSEL_Msk);
 8000d90:	4b04      	ldr	r3, [pc, #16]	; (8000da4 <XMC_SCU_CLOCK_GetWdtClockSource+0x18>)
 8000d92:	6a5b      	ldr	r3, [r3, #36]	; 0x24
 8000d94:	f403 3340 	and.w	r3, r3, #196608	; 0x30000
}
 8000d98:	4618      	mov	r0, r3
 8000d9a:	46bd      	mov	sp, r7
 8000d9c:	f85d 7b04 	ldr.w	r7, [sp], #4
 8000da0:	4770      	bx	lr
 8000da2:	bf00      	nop
 8000da4:	50004600 	.word	0x50004600

08000da8 <XMC_SCU_CLOCK_GetExternalOutputClockSource>:
 * The value is obtained by reading \a ECKSEL bits of \a EXTCLKCR register.
 * \par<b>Related APIs:</b><BR>
 * XMC_SCU_CLOCK_SetExternalOutputClockSource(), XMC_SCU_CLOCK_SetExternalOutputClockDivider() \n\n\n
 */
__STATIC_INLINE XMC_SCU_CLOCK_EXTOUTCLKSRC_t XMC_SCU_CLOCK_GetExternalOutputClockSource(void)
{
 8000da8:	b480      	push	{r7}
 8000daa:	af00      	add	r7, sp, #0
  return (XMC_SCU_CLOCK_EXTOUTCLKSRC_t)(SCU_CLK->EXTCLKCR & SCU_CLK_EXTCLKCR_ECKSEL_Msk);
 8000dac:	4b05      	ldr	r3, [pc, #20]	; (8000dc4 <XMC_SCU_CLOCK_GetExternalOutputClockSource+0x1c>)
 8000dae:	6a9b      	ldr	r3, [r3, #40]	; 0x28
 8000db0:	b2db      	uxtb	r3, r3
 8000db2:	f003 0303 	and.w	r3, r3, #3
 8000db6:	b2db      	uxtb	r3, r3
}
 8000db8:	4618      	mov	r0, r3
 8000dba:	46bd      	mov	sp, r7
 8000dbc:	f85d 7b04 	ldr.w	r7, [sp], #4
 8000dc0:	4770      	bx	lr
 8000dc2:	bf00      	nop
 8000dc4:	50004600 	.word	0x50004600

08000dc8 <XMC_SCU_CLOCK_GetSystemClockFrequency>:
 * fSYS = fCPU << CPUDIV.
 * \par<b>Related APIs:</b><BR>
 * XMC_SCU_CLOCK_GetUsbPllClockFrequency() \n\n\n
 */
__STATIC_INLINE uint32_t XMC_SCU_CLOCK_GetSystemClockFrequency(void)
{
 8000dc8:	b480      	push	{r7}
 8000dca:	af00      	add	r7, sp, #0
  return SystemCoreClock << ((SCU_CLK->CPUCLKCR & SCU_CLK_CPUCLKCR_CPUDIV_Msk) >> SCU_CLK_CPUCLKCR_CPUDIV_Pos);
 8000dcc:	4b06      	ldr	r3, [pc, #24]	; (8000de8 <XMC_SCU_CLOCK_GetSystemClockFrequency+0x20>)
 8000dce:	681a      	ldr	r2, [r3, #0]
 8000dd0:	4b06      	ldr	r3, [pc, #24]	; (8000dec <XMC_SCU_CLOCK_GetSystemClockFrequency+0x24>)
 8000dd2:	691b      	ldr	r3, [r3, #16]
 8000dd4:	f003 0301 	and.w	r3, r3, #1
 8000dd8:	fa02 f303 	lsl.w	r3, r2, r3
}
 8000ddc:	4618      	mov	r0, r3
 8000dde:	46bd      	mov	sp, r7
 8000de0:	f85d 7b04 	ldr.w	r7, [sp], #4
 8000de4:	4770      	bx	lr
 8000de6:	bf00      	nop
 8000de8:	2000ffc0 	.word	0x2000ffc0
 8000dec:	50004600 	.word	0x50004600

08000df0 <XMC_SCU_CLOCK_GetCpuClockFrequency>:
 *
 * \par<b>Related APIs:</b><BR>
 * XMC_SCU_CLOCK_GetPeripheralClockFrequency(), XMC_SCU_CLOCK_GatePeripheralClock() \n\n\n
 */
__STATIC_INLINE uint32_t XMC_SCU_CLOCK_GetCpuClockFrequency(void)
{
 8000df0:	b480      	push	{r7}
 8000df2:	af00      	add	r7, sp, #0
  return SystemCoreClock;
 8000df4:	4b03      	ldr	r3, [pc, #12]	; (8000e04 <XMC_SCU_CLOCK_GetCpuClockFrequency+0x14>)
 8000df6:	681b      	ldr	r3, [r3, #0]
}
 8000df8:	4618      	mov	r0, r3
 8000dfa:	46bd      	mov	sp, r7
 8000dfc:	f85d 7b04 	ldr.w	r7, [sp], #4
 8000e00:	4770      	bx	lr
 8000e02:	bf00      	nop
 8000e04:	2000ffc0 	.word	0x2000ffc0

08000e08 <XMC_SCU_GetMirrorStatus>:
 * that a corresponding register of the hibernate domain is ready to accept a write or that the communication interface
 * is busy with executing the previous operation.\n
 * Note: There is no hibernate domain in XMC1x devices. This register is retained for legacy purpose.
 */
__STATIC_INLINE uint32_t XMC_SCU_GetMirrorStatus(void)
{
 8000e08:	b480      	push	{r7}
 8000e0a:	af00      	add	r7, sp, #0
  return(SCU_GENERAL->MIRRSTS);
 8000e0c:	4b03      	ldr	r3, [pc, #12]	; (8000e1c <XMC_SCU_GetMirrorStatus+0x14>)
 8000e0e:	f8d3 30c4 	ldr.w	r3, [r3, #196]	; 0xc4
}
 8000e12:	4618      	mov	r0, r3
 8000e14:	46bd      	mov	sp, r7
 8000e16:	f85d 7b04 	ldr.w	r7, [sp], #4
 8000e1a:	4770      	bx	lr
 8000e1c:	50004000 	.word	0x50004000

08000e20 <XMC_SCU_lDelay>:
/*********************************************************************************************************************
 * API IMPLEMENTATION
 ********************************************************************************************************************/
/* This is a local function used to generate the delay until register get updated with new configured value.  */
void XMC_SCU_lDelay(uint32_t delay)
{
 8000e20:	b580      	push	{r7, lr}
 8000e22:	b084      	sub	sp, #16
 8000e24:	af00      	add	r7, sp, #0
 8000e26:	6078      	str	r0, [r7, #4]
  uint32_t i;

  SystemCoreClockUpdate();
 8000e28:	f001 feec 	bl	8002c04 <SystemCoreClockUpdate>
  delay =  delay * (uint32_t)(SystemCoreClock / FREQ_1MHZ);
 8000e2c:	4b0c      	ldr	r3, [pc, #48]	; (8000e60 <XMC_SCU_lDelay+0x40>)
 8000e2e:	681b      	ldr	r3, [r3, #0]
 8000e30:	4a0c      	ldr	r2, [pc, #48]	; (8000e64 <XMC_SCU_lDelay+0x44>)
 8000e32:	fba2 2303 	umull	r2, r3, r2, r3
 8000e36:	0c9a      	lsrs	r2, r3, #18
 8000e38:	687b      	ldr	r3, [r7, #4]
 8000e3a:	fb02 f303 	mul.w	r3, r2, r3
 8000e3e:	607b      	str	r3, [r7, #4]

  for (i = 0U; i < delay; ++i)
 8000e40:	2300      	movs	r3, #0
 8000e42:	60fb      	str	r3, [r7, #12]
 8000e44:	e003      	b.n	8000e4e <XMC_SCU_lDelay+0x2e>
  {
    __NOP();
 8000e46:	bf00      	nop
  for (i = 0U; i < delay; ++i)
 8000e48:	68fb      	ldr	r3, [r7, #12]
 8000e4a:	3301      	adds	r3, #1
 8000e4c:	60fb      	str	r3, [r7, #12]
 8000e4e:	68fa      	ldr	r2, [r7, #12]
 8000e50:	687b      	ldr	r3, [r7, #4]
 8000e52:	429a      	cmp	r2, r3
 8000e54:	d3f7      	bcc.n	8000e46 <XMC_SCU_lDelay+0x26>
  }
}
 8000e56:	bf00      	nop
 8000e58:	3710      	adds	r7, #16
 8000e5a:	46bd      	mov	sp, r7
 8000e5c:	bd80      	pop	{r7, pc}
 8000e5e:	bf00      	nop
 8000e60:	2000ffc0 	.word	0x2000ffc0
 8000e64:	431bde83 	.word	0x431bde83

08000e68 <XMC_SCU_INTERRUPT_EnableEvent>:

/* API to enable the SCU event */
void XMC_SCU_INTERRUPT_EnableEvent(const XMC_SCU_INTERRUPT_EVENT_t event)
{
 8000e68:	b480      	push	{r7}
 8000e6a:	b083      	sub	sp, #12
 8000e6c:	af00      	add	r7, sp, #0
 8000e6e:	6078      	str	r0, [r7, #4]
  SCU_INTERRUPT->SRMSK |= (uint32_t)event;
 8000e70:	4b05      	ldr	r3, [pc, #20]	; (8000e88 <XMC_SCU_INTERRUPT_EnableEvent+0x20>)
 8000e72:	689a      	ldr	r2, [r3, #8]
 8000e74:	4904      	ldr	r1, [pc, #16]	; (8000e88 <XMC_SCU_INTERRUPT_EnableEvent+0x20>)
 8000e76:	687b      	ldr	r3, [r7, #4]
 8000e78:	4313      	orrs	r3, r2
 8000e7a:	608b      	str	r3, [r1, #8]
}
 8000e7c:	bf00      	nop
 8000e7e:	370c      	adds	r7, #12
 8000e80:	46bd      	mov	sp, r7
 8000e82:	f85d 7b04 	ldr.w	r7, [sp], #4
 8000e86:	4770      	bx	lr
 8000e88:	50004074 	.word	0x50004074

08000e8c <XMC_SCU_INTERRUPT_DisableEvent>:

/* API to disable the SCU event */
void XMC_SCU_INTERRUPT_DisableEvent(const XMC_SCU_INTERRUPT_EVENT_t event)
{
 8000e8c:	b480      	push	{r7}
 8000e8e:	b083      	sub	sp, #12
 8000e90:	af00      	add	r7, sp, #0
 8000e92:	6078      	str	r0, [r7, #4]
  SCU_INTERRUPT->SRMSK &= (uint32_t)~event;
 8000e94:	4b06      	ldr	r3, [pc, #24]	; (8000eb0 <XMC_SCU_INTERRUPT_DisableEvent+0x24>)
 8000e96:	689a      	ldr	r2, [r3, #8]
 8000e98:	687b      	ldr	r3, [r7, #4]
 8000e9a:	43db      	mvns	r3, r3
 8000e9c:	4904      	ldr	r1, [pc, #16]	; (8000eb0 <XMC_SCU_INTERRUPT_DisableEvent+0x24>)
 8000e9e:	4013      	ands	r3, r2
 8000ea0:	608b      	str	r3, [r1, #8]
}
 8000ea2:	bf00      	nop
 8000ea4:	370c      	adds	r7, #12
 8000ea6:	46bd      	mov	sp, r7
 8000ea8:	f85d 7b04 	ldr.w	r7, [sp], #4
 8000eac:	4770      	bx	lr
 8000eae:	bf00      	nop
 8000eb0:	50004074 	.word	0x50004074

08000eb4 <XMC_SCU_INTERRUPT_TriggerEvent>:

/* API to trigger the SCU event */
void XMC_SCU_INTERRUPT_TriggerEvent(const XMC_SCU_INTERRUPT_EVENT_t event)
{
 8000eb4:	b480      	push	{r7}
 8000eb6:	b083      	sub	sp, #12
 8000eb8:	af00      	add	r7, sp, #0
 8000eba:	6078      	str	r0, [r7, #4]
  SCU_INTERRUPT->SRSET |= (uint32_t)event;
 8000ebc:	4b05      	ldr	r3, [pc, #20]	; (8000ed4 <XMC_SCU_INTERRUPT_TriggerEvent+0x20>)
 8000ebe:	691a      	ldr	r2, [r3, #16]
 8000ec0:	4904      	ldr	r1, [pc, #16]	; (8000ed4 <XMC_SCU_INTERRUPT_TriggerEvent+0x20>)
 8000ec2:	687b      	ldr	r3, [r7, #4]
 8000ec4:	4313      	orrs	r3, r2
 8000ec6:	610b      	str	r3, [r1, #16]
}
 8000ec8:	bf00      	nop
 8000eca:	370c      	adds	r7, #12
 8000ecc:	46bd      	mov	sp, r7
 8000ece:	f85d 7b04 	ldr.w	r7, [sp], #4
 8000ed2:	4770      	bx	lr
 8000ed4:	50004074 	.word	0x50004074

08000ed8 <XMC_SCU_INTERUPT_GetEventStatus>:

/* API to retrieve the SCU event status */
XMC_SCU_INTERRUPT_EVENT_t XMC_SCU_INTERUPT_GetEventStatus(void)
{
 8000ed8:	b480      	push	{r7}
 8000eda:	af00      	add	r7, sp, #0
  return (SCU_INTERRUPT->SRRAW);
 8000edc:	4b03      	ldr	r3, [pc, #12]	; (8000eec <XMC_SCU_INTERUPT_GetEventStatus+0x14>)
 8000ede:	685b      	ldr	r3, [r3, #4]
}
 8000ee0:	4618      	mov	r0, r3
 8000ee2:	46bd      	mov	sp, r7
 8000ee4:	f85d 7b04 	ldr.w	r7, [sp], #4
 8000ee8:	4770      	bx	lr
 8000eea:	bf00      	nop
 8000eec:	50004074 	.word	0x50004074

08000ef0 <XMC_SCU_INTERRUPT_ClearEventStatus>:

/* API to clear the SCU event status */
void XMC_SCU_INTERRUPT_ClearEventStatus(const XMC_SCU_INTERRUPT_EVENT_t event)
{
 8000ef0:	b480      	push	{r7}
 8000ef2:	b083      	sub	sp, #12
 8000ef4:	af00      	add	r7, sp, #0
 8000ef6:	6078      	str	r0, [r7, #4]
  SCU_INTERRUPT->SRCLR = (uint32_t)event;
 8000ef8:	4a04      	ldr	r2, [pc, #16]	; (8000f0c <XMC_SCU_INTERRUPT_ClearEventStatus+0x1c>)
 8000efa:	687b      	ldr	r3, [r7, #4]
 8000efc:	60d3      	str	r3, [r2, #12]
}
 8000efe:	bf00      	nop
 8000f00:	370c      	adds	r7, #12
 8000f02:	46bd      	mov	sp, r7
 8000f04:	f85d 7b04 	ldr.w	r7, [sp], #4
 8000f08:	4770      	bx	lr
 8000f0a:	bf00      	nop
 8000f0c:	50004074 	.word	0x50004074

08000f10 <XMC_SCU_GetBootMode>:


/* API to retrieve the currently deployed device bootmode */
uint32_t XMC_SCU_GetBootMode(void)
{
 8000f10:	b480      	push	{r7}
 8000f12:	af00      	add	r7, sp, #0
  return (uint32_t)(SCU_GENERAL->STCON & SCU_GENERAL_STCON_SWCON_Msk);
 8000f14:	4b04      	ldr	r3, [pc, #16]	; (8000f28 <XMC_SCU_GetBootMode+0x18>)
 8000f16:	691b      	ldr	r3, [r3, #16]
 8000f18:	f403 6370 	and.w	r3, r3, #3840	; 0xf00
}
 8000f1c:	4618      	mov	r0, r3
 8000f1e:	46bd      	mov	sp, r7
 8000f20:	f85d 7b04 	ldr.w	r7, [sp], #4
 8000f24:	4770      	bx	lr
 8000f26:	bf00      	nop
 8000f28:	50004000 	.word	0x50004000

08000f2c <XMC_SCU_SetBootMode>:

/* API to program a new device bootmode */
void XMC_SCU_SetBootMode(const XMC_SCU_BOOTMODE_t bootmode)
{
 8000f2c:	b480      	push	{r7}
 8000f2e:	b083      	sub	sp, #12
 8000f30:	af00      	add	r7, sp, #0
 8000f32:	4603      	mov	r3, r0
 8000f34:	80fb      	strh	r3, [r7, #6]
  SCU_GENERAL->STCON = (uint32_t)bootmode;
 8000f36:	4a04      	ldr	r2, [pc, #16]	; (8000f48 <XMC_SCU_SetBootMode+0x1c>)
 8000f38:	88fb      	ldrh	r3, [r7, #6]
 8000f3a:	6113      	str	r3, [r2, #16]
}
 8000f3c:	bf00      	nop
 8000f3e:	370c      	adds	r7, #12
 8000f40:	46bd      	mov	sp, r7
 8000f42:	f85d 7b04 	ldr.w	r7, [sp], #4
 8000f46:	4770      	bx	lr
 8000f48:	50004000 	.word	0x50004000

08000f4c <XMC_SCU_ReadGPR>:

/* API to read from General purpose register */
uint32_t XMC_SCU_ReadGPR(const uint32_t index)
{
 8000f4c:	b480      	push	{r7}
 8000f4e:	b083      	sub	sp, #12
 8000f50:	af00      	add	r7, sp, #0
 8000f52:	6078      	str	r0, [r7, #4]
  return (SCU_GENERAL->GPR[index]);
 8000f54:	4a05      	ldr	r2, [pc, #20]	; (8000f6c <XMC_SCU_ReadGPR+0x20>)
 8000f56:	687b      	ldr	r3, [r7, #4]
 8000f58:	330a      	adds	r3, #10
 8000f5a:	009b      	lsls	r3, r3, #2
 8000f5c:	4413      	add	r3, r2
 8000f5e:	685b      	ldr	r3, [r3, #4]
}
 8000f60:	4618      	mov	r0, r3
 8000f62:	370c      	adds	r7, #12
 8000f64:	46bd      	mov	sp, r7
 8000f66:	f85d 7b04 	ldr.w	r7, [sp], #4
 8000f6a:	4770      	bx	lr
 8000f6c:	50004000 	.word	0x50004000

08000f70 <XMC_SCU_WriteGPR>:

/* API to write to GPR */
void XMC_SCU_WriteGPR(const uint32_t index, const uint32_t data)
{
 8000f70:	b480      	push	{r7}
 8000f72:	b083      	sub	sp, #12
 8000f74:	af00      	add	r7, sp, #0
 8000f76:	6078      	str	r0, [r7, #4]
 8000f78:	6039      	str	r1, [r7, #0]
  SCU_GENERAL->GPR[index] = data;
 8000f7a:	4a06      	ldr	r2, [pc, #24]	; (8000f94 <XMC_SCU_WriteGPR+0x24>)
 8000f7c:	687b      	ldr	r3, [r7, #4]
 8000f7e:	330a      	adds	r3, #10
 8000f80:	009b      	lsls	r3, r3, #2
 8000f82:	4413      	add	r3, r2
 8000f84:	683a      	ldr	r2, [r7, #0]
 8000f86:	605a      	str	r2, [r3, #4]
}
 8000f88:	bf00      	nop
 8000f8a:	370c      	adds	r7, #12
 8000f8c:	46bd      	mov	sp, r7
 8000f8e:	f85d 7b04 	ldr.w	r7, [sp], #4
 8000f92:	4770      	bx	lr
 8000f94:	50004000 	.word	0x50004000

08000f98 <XMC_SCU_EnableOutOfRangeComparator>:

/* API to enable Out of Range Comparator(ORC) for a desired group and a desired channel input */
void XMC_SCU_EnableOutOfRangeComparator(const uint32_t group, const uint32_t channel)
{
 8000f98:	b480      	push	{r7}
 8000f9a:	b083      	sub	sp, #12
 8000f9c:	af00      	add	r7, sp, #0
 8000f9e:	6078      	str	r0, [r7, #4]
 8000fa0:	6039      	str	r1, [r7, #0]
  XMC_ASSERT("XMC_SCU_EnableOutOfangeComparator:Wrong Group Number",XMC_SCU_CHECK_GRPNUM(group));
  XMC_ASSERT("XMC_SCU_EnableOutOfangeComparator:Wrong Channel Number",XMC_SCU_CHECK_CHNUM(channel));
   
  SCU_GENERAL->GORCEN[group] |= (uint32_t)(1UL << channel);
 8000fa2:	4a0a      	ldr	r2, [pc, #40]	; (8000fcc <XMC_SCU_EnableOutOfRangeComparator+0x34>)
 8000fa4:	687b      	ldr	r3, [r7, #4]
 8000fa6:	3328      	adds	r3, #40	; 0x28
 8000fa8:	f852 2023 	ldr.w	r2, [r2, r3, lsl #2]
 8000fac:	2101      	movs	r1, #1
 8000fae:	683b      	ldr	r3, [r7, #0]
 8000fb0:	fa01 f303 	lsl.w	r3, r1, r3
 8000fb4:	4905      	ldr	r1, [pc, #20]	; (8000fcc <XMC_SCU_EnableOutOfRangeComparator+0x34>)
 8000fb6:	431a      	orrs	r2, r3
 8000fb8:	687b      	ldr	r3, [r7, #4]
 8000fba:	3328      	adds	r3, #40	; 0x28
 8000fbc:	f841 2023 	str.w	r2, [r1, r3, lsl #2]
}
 8000fc0:	bf00      	nop
 8000fc2:	370c      	adds	r7, #12
 8000fc4:	46bd      	mov	sp, r7
 8000fc6:	f85d 7b04 	ldr.w	r7, [sp], #4
 8000fca:	4770      	bx	lr
 8000fcc:	50004000 	.word	0x50004000

08000fd0 <XMC_SCU_DisableOutOfRangeComparator>:

/* API to enable Out of Range Comparator(ORC) for a desired group and a desired channel input */
void XMC_SCU_DisableOutOfRangeComparator(const uint32_t group, const uint32_t channel)
{
 8000fd0:	b480      	push	{r7}
 8000fd2:	b083      	sub	sp, #12
 8000fd4:	af00      	add	r7, sp, #0
 8000fd6:	6078      	str	r0, [r7, #4]
 8000fd8:	6039      	str	r1, [r7, #0]
  XMC_ASSERT("XMC_SCU_DisableOutOfRangeComparator:Wrong Group Number",XMC_SCU_CHECK_GRPNUM(group));
  XMC_ASSERT("XMC_SCU_DisableOutOfRangeComparator:Wrong Channel Number",XMC_SCU_CHECK_CHNUM(channel));
   
  SCU_GENERAL->GORCEN[group] &= (uint32_t)~(1UL << channel);
 8000fda:	4a0b      	ldr	r2, [pc, #44]	; (8001008 <XMC_SCU_DisableOutOfRangeComparator+0x38>)
 8000fdc:	687b      	ldr	r3, [r7, #4]
 8000fde:	3328      	adds	r3, #40	; 0x28
 8000fe0:	f852 2023 	ldr.w	r2, [r2, r3, lsl #2]
 8000fe4:	2101      	movs	r1, #1
 8000fe6:	683b      	ldr	r3, [r7, #0]
 8000fe8:	fa01 f303 	lsl.w	r3, r1, r3
 8000fec:	43db      	mvns	r3, r3
 8000fee:	4906      	ldr	r1, [pc, #24]	; (8001008 <XMC_SCU_DisableOutOfRangeComparator+0x38>)
 8000ff0:	401a      	ands	r2, r3
 8000ff2:	687b      	ldr	r3, [r7, #4]
 8000ff4:	3328      	adds	r3, #40	; 0x28
 8000ff6:	f841 2023 	str.w	r2, [r1, r3, lsl #2]
}
 8000ffa:	bf00      	nop
 8000ffc:	370c      	adds	r7, #12
 8000ffe:	46bd      	mov	sp, r7
 8001000:	f85d 7b04 	ldr.w	r7, [sp], #4
 8001004:	4770      	bx	lr
 8001006:	bf00      	nop
 8001008:	50004000 	.word	0x50004000

0800100c <XMC_SCU_CalibrateTemperatureSensor>:

/* API to calibrate temperature sensor */
void XMC_SCU_CalibrateTemperatureSensor(uint32_t offset, uint32_t gain)
{
 800100c:	b480      	push	{r7}
 800100e:	b083      	sub	sp, #12
 8001010:	af00      	add	r7, sp, #0
 8001012:	6078      	str	r0, [r7, #4]
 8001014:	6039      	str	r1, [r7, #0]
  SCU_GENERAL->DTSCON = ((uint32_t)(offset << SCU_GENERAL_DTSCON_OFFSET_Pos) |
 8001016:	687b      	ldr	r3, [r7, #4]
 8001018:	011a      	lsls	r2, r3, #4
                        (uint32_t)(gain << SCU_GENERAL_DTSCON_GAIN_Pos) |
 800101a:	683b      	ldr	r3, [r7, #0]
 800101c:	02db      	lsls	r3, r3, #11
  SCU_GENERAL->DTSCON = ((uint32_t)(offset << SCU_GENERAL_DTSCON_OFFSET_Pos) |
 800101e:	4313      	orrs	r3, r2
 8001020:	4a05      	ldr	r2, [pc, #20]	; (8001038 <XMC_SCU_CalibrateTemperatureSensor+0x2c>)
                        (uint32_t)(0x4UL << SCU_GENERAL_DTSCON_REFTRIM_Pos) |
 8001022:	f443 0308 	orr.w	r3, r3, #8912896	; 0x880000
  SCU_GENERAL->DTSCON = ((uint32_t)(offset << SCU_GENERAL_DTSCON_OFFSET_Pos) |
 8001026:	f8c2 308c 	str.w	r3, [r2, #140]	; 0x8c
                        (uint32_t)(0x8UL << SCU_GENERAL_DTSCON_BGTRIM_Pos));
}
 800102a:	bf00      	nop
 800102c:	370c      	adds	r7, #12
 800102e:	46bd      	mov	sp, r7
 8001030:	f85d 7b04 	ldr.w	r7, [sp], #4
 8001034:	4770      	bx	lr
 8001036:	bf00      	nop
 8001038:	50004000 	.word	0x50004000

0800103c <XMC_SCU_EnableTemperatureSensor>:
/* API to enable die temperature measurement by powering the DTS module. */
void XMC_SCU_EnableTemperatureSensor(void)
{
 800103c:	b480      	push	{r7}
 800103e:	af00      	add	r7, sp, #0
  SCU_GENERAL->DTSCON &= (uint32_t)~(SCU_GENERAL_DTSCON_PWD_Msk);
 8001040:	4b06      	ldr	r3, [pc, #24]	; (800105c <XMC_SCU_EnableTemperatureSensor+0x20>)
 8001042:	f8d3 308c 	ldr.w	r3, [r3, #140]	; 0x8c
 8001046:	4a05      	ldr	r2, [pc, #20]	; (800105c <XMC_SCU_EnableTemperatureSensor+0x20>)
 8001048:	f023 0301 	bic.w	r3, r3, #1
 800104c:	f8c2 308c 	str.w	r3, [r2, #140]	; 0x8c
}
 8001050:	bf00      	nop
 8001052:	46bd      	mov	sp, r7
 8001054:	f85d 7b04 	ldr.w	r7, [sp], #4
 8001058:	4770      	bx	lr
 800105a:	bf00      	nop
 800105c:	50004000 	.word	0x50004000

08001060 <XMC_SCU_DisableTemperatureSensor>:

/* API to disable die temperature measurement by powering the DTS module off. */
void XMC_SCU_DisableTemperatureSensor(void)
{
 8001060:	b480      	push	{r7}
 8001062:	af00      	add	r7, sp, #0
  SCU_GENERAL->DTSCON |= (uint32_t)SCU_GENERAL_DTSCON_PWD_Msk;
 8001064:	4b06      	ldr	r3, [pc, #24]	; (8001080 <XMC_SCU_DisableTemperatureSensor+0x20>)
 8001066:	f8d3 308c 	ldr.w	r3, [r3, #140]	; 0x8c
 800106a:	4a05      	ldr	r2, [pc, #20]	; (8001080 <XMC_SCU_DisableTemperatureSensor+0x20>)
 800106c:	f043 0301 	orr.w	r3, r3, #1
 8001070:	f8c2 308c 	str.w	r3, [r2, #140]	; 0x8c
}
 8001074:	bf00      	nop
 8001076:	46bd      	mov	sp, r7
 8001078:	f85d 7b04 	ldr.w	r7, [sp], #4
 800107c:	4770      	bx	lr
 800107e:	bf00      	nop
 8001080:	50004000 	.word	0x50004000

08001084 <XMC_SCU_IsTemperatureSensorEnabled>:

/* API to provide the die temperature sensor power status. */
bool XMC_SCU_IsTemperatureSensorEnabled(void)
{
 8001084:	b480      	push	{r7}
 8001086:	af00      	add	r7, sp, #0
  return ((SCU_GENERAL->DTSCON & SCU_GENERAL_DTSCON_PWD_Msk) == 0U);
 8001088:	4b07      	ldr	r3, [pc, #28]	; (80010a8 <XMC_SCU_IsTemperatureSensorEnabled+0x24>)
 800108a:	f8d3 308c 	ldr.w	r3, [r3, #140]	; 0x8c
 800108e:	f003 0301 	and.w	r3, r3, #1
 8001092:	2b00      	cmp	r3, #0
 8001094:	bf0c      	ite	eq
 8001096:	2301      	moveq	r3, #1
 8001098:	2300      	movne	r3, #0
 800109a:	b2db      	uxtb	r3, r3
}
 800109c:	4618      	mov	r0, r3
 800109e:	46bd      	mov	sp, r7
 80010a0:	f85d 7b04 	ldr.w	r7, [sp], #4
 80010a4:	4770      	bx	lr
 80010a6:	bf00      	nop
 80010a8:	50004000 	.word	0x50004000

080010ac <XMC_SCU_IsTemperatureSensorReady>:

/* API to check if the die temperature sensor is ready to start a measurement. */
bool XMC_SCU_IsTemperatureSensorReady(void)
{
 80010ac:	b480      	push	{r7}
 80010ae:	af00      	add	r7, sp, #0
  return ((SCU_GENERAL->DTSSTAT & SCU_GENERAL_DTSSTAT_RDY_Msk) != 0U);
 80010b0:	4b07      	ldr	r3, [pc, #28]	; (80010d0 <XMC_SCU_IsTemperatureSensorReady+0x24>)
 80010b2:	f8d3 3090 	ldr.w	r3, [r3, #144]	; 0x90
 80010b6:	f403 4380 	and.w	r3, r3, #16384	; 0x4000
 80010ba:	2b00      	cmp	r3, #0
 80010bc:	bf14      	ite	ne
 80010be:	2301      	movne	r3, #1
 80010c0:	2300      	moveq	r3, #0
 80010c2:	b2db      	uxtb	r3, r3
}
 80010c4:	4618      	mov	r0, r3
 80010c6:	46bd      	mov	sp, r7
 80010c8:	f85d 7b04 	ldr.w	r7, [sp], #4
 80010cc:	4770      	bx	lr
 80010ce:	bf00      	nop
 80010d0:	50004000 	.word	0x50004000

080010d4 <XMC_SCU_StartTemperatureMeasurement>:
/* API to start device temperature measurements */
XMC_SCU_STATUS_t XMC_SCU_StartTemperatureMeasurement(void)
{
 80010d4:	b580      	push	{r7, lr}
 80010d6:	b082      	sub	sp, #8
 80010d8:	af00      	add	r7, sp, #0
  XMC_SCU_STATUS_t status = XMC_SCU_STATUS_OK;
 80010da:	2300      	movs	r3, #0
 80010dc:	71fb      	strb	r3, [r7, #7]

  if (XMC_SCU_IsTemperatureSensorEnabled() == false)
 80010de:	f7ff ffd1 	bl	8001084 <XMC_SCU_IsTemperatureSensorEnabled>
 80010e2:	4603      	mov	r3, r0
 80010e4:	f083 0301 	eor.w	r3, r3, #1
 80010e8:	b2db      	uxtb	r3, r3
 80010ea:	2b00      	cmp	r3, #0
 80010ec:	d001      	beq.n	80010f2 <XMC_SCU_StartTemperatureMeasurement+0x1e>
  {
    status = XMC_SCU_STATUS_ERROR;
 80010ee:	2301      	movs	r3, #1
 80010f0:	71fb      	strb	r3, [r7, #7]
  }
   
  if (XMC_SCU_IsTemperatureSensorBusy() == true)
 80010f2:	f000 f831 	bl	8001158 <XMC_SCU_IsTemperatureSensorBusy>
 80010f6:	4603      	mov	r3, r0
 80010f8:	2b00      	cmp	r3, #0
 80010fa:	d001      	beq.n	8001100 <XMC_SCU_StartTemperatureMeasurement+0x2c>
  {
    status = XMC_SCU_STATUS_BUSY;
 80010fc:	2302      	movs	r3, #2
 80010fe:	71fb      	strb	r3, [r7, #7]
  }

  /* And start the measurement */
  SCU_GENERAL->DTSCON |= (uint32_t)SCU_GENERAL_DTSCON_START_Msk;
 8001100:	4b06      	ldr	r3, [pc, #24]	; (800111c <XMC_SCU_StartTemperatureMeasurement+0x48>)
 8001102:	f8d3 308c 	ldr.w	r3, [r3, #140]	; 0x8c
 8001106:	4a05      	ldr	r2, [pc, #20]	; (800111c <XMC_SCU_StartTemperatureMeasurement+0x48>)
 8001108:	f043 0302 	orr.w	r3, r3, #2
 800110c:	f8c2 308c 	str.w	r3, [r2, #140]	; 0x8c
  
  return (status);
 8001110:	79fb      	ldrb	r3, [r7, #7]
}
 8001112:	4618      	mov	r0, r3
 8001114:	3708      	adds	r7, #8
 8001116:	46bd      	mov	sp, r7
 8001118:	bd80      	pop	{r7, pc}
 800111a:	bf00      	nop
 800111c:	50004000 	.word	0x50004000

08001120 <XMC_SCU_GetTemperatureMeasurement>:

/* API to retrieve the temperature measured */
uint32_t XMC_SCU_GetTemperatureMeasurement(void)
{
 8001120:	b580      	push	{r7, lr}
 8001122:	b082      	sub	sp, #8
 8001124:	af00      	add	r7, sp, #0
  uint32_t temperature;

  if (XMC_SCU_IsTemperatureSensorEnabled() == false)
 8001126:	f7ff ffad 	bl	8001084 <XMC_SCU_IsTemperatureSensorEnabled>
 800112a:	4603      	mov	r3, r0
 800112c:	f083 0301 	eor.w	r3, r3, #1
 8001130:	b2db      	uxtb	r3, r3
 8001132:	2b00      	cmp	r3, #0
 8001134:	d003      	beq.n	800113e <XMC_SCU_GetTemperatureMeasurement+0x1e>
  {
    temperature = 0x7FFFFFFFUL;
 8001136:	f06f 4300 	mvn.w	r3, #2147483648	; 0x80000000
 800113a:	607b      	str	r3, [r7, #4]
 800113c:	e005      	b.n	800114a <XMC_SCU_GetTemperatureMeasurement+0x2a>
  }
  else
  {
    temperature = (uint32_t)((SCU_GENERAL->DTSSTAT & SCU_GENERAL_DTSSTAT_RESULT_Msk) >> SCU_GENERAL_DTSSTAT_RESULT_Pos);
 800113e:	4b05      	ldr	r3, [pc, #20]	; (8001154 <XMC_SCU_GetTemperatureMeasurement+0x34>)
 8001140:	f8d3 3090 	ldr.w	r3, [r3, #144]	; 0x90
 8001144:	f3c3 0309 	ubfx	r3, r3, #0, #10
 8001148:	607b      	str	r3, [r7, #4]
  }
  
  return ((uint32_t)temperature);
 800114a:	687b      	ldr	r3, [r7, #4]
}
 800114c:	4618      	mov	r0, r3
 800114e:	3708      	adds	r7, #8
 8001150:	46bd      	mov	sp, r7
 8001152:	bd80      	pop	{r7, pc}
 8001154:	50004000 	.word	0x50004000

08001158 <XMC_SCU_IsTemperatureSensorBusy>:

/* API to know whether Die temperature sensor is busy */
bool XMC_SCU_IsTemperatureSensorBusy(void)
{
 8001158:	b480      	push	{r7}
 800115a:	af00      	add	r7, sp, #0
  return ((SCU_GENERAL->DTSSTAT & SCU_GENERAL_DTSSTAT_BUSY_Msk) != 0U);
 800115c:	4b07      	ldr	r3, [pc, #28]	; (800117c <XMC_SCU_IsTemperatureSensorBusy+0x24>)
 800115e:	f8d3 3090 	ldr.w	r3, [r3, #144]	; 0x90
 8001162:	f403 4300 	and.w	r3, r3, #32768	; 0x8000
 8001166:	2b00      	cmp	r3, #0
 8001168:	bf14      	ite	ne
 800116a:	2301      	movne	r3, #1
 800116c:	2300      	moveq	r3, #0
 800116e:	b2db      	uxtb	r3, r3
}
 8001170:	4618      	mov	r0, r3
 8001172:	46bd      	mov	sp, r7
 8001174:	f85d 7b04 	ldr.w	r7, [sp], #4
 8001178:	4770      	bx	lr
 800117a:	bf00      	nop
 800117c:	50004000 	.word	0x50004000

08001180 <XMC_SCU_WriteToRetentionMemory>:
}
#endif  

/* API to write into Retention memory in hibernate domain */
void XMC_SCU_WriteToRetentionMemory(uint32_t address, uint32_t data)
{
 8001180:	b480      	push	{r7}
 8001182:	b085      	sub	sp, #20
 8001184:	af00      	add	r7, sp, #0
 8001186:	6078      	str	r0, [r7, #4]
 8001188:	6039      	str	r1, [r7, #0]
  uint32_t rmacr;
  
  /* Get the address right */  
  rmacr = (uint32_t)((address << SCU_GENERAL_RMACR_ADDR_Pos) & (uint32_t)SCU_GENERAL_RMACR_ADDR_Msk);
 800118a:	687b      	ldr	r3, [r7, #4]
 800118c:	041b      	lsls	r3, r3, #16
 800118e:	f403 2370 	and.w	r3, r3, #983040	; 0xf0000
 8001192:	60fb      	str	r3, [r7, #12]
  
  /* Transfer from RMDATA to Retention memory */
  rmacr |= (uint32_t)(SCU_GENERAL_RMACR_RDWR_Msk);
 8001194:	68fb      	ldr	r3, [r7, #12]
 8001196:	f043 0301 	orr.w	r3, r3, #1
 800119a:	60fb      	str	r3, [r7, #12]
  
  /* Write desired data into RMDATA register */  
  SCU_GENERAL->RMDATA = data;
 800119c:	4a0a      	ldr	r2, [pc, #40]	; (80011c8 <XMC_SCU_WriteToRetentionMemory+0x48>)
 800119e:	683b      	ldr	r3, [r7, #0]
 80011a0:	f8c2 30cc 	str.w	r3, [r2, #204]	; 0xcc
  
  /* Write address & direction of transfer into RMACR register */  
  SCU_GENERAL->RMACR = rmacr;
 80011a4:	4a08      	ldr	r2, [pc, #32]	; (80011c8 <XMC_SCU_WriteToRetentionMemory+0x48>)
 80011a6:	68fb      	ldr	r3, [r7, #12]
 80011a8:	f8c2 30c8 	str.w	r3, [r2, #200]	; 0xc8
  
  /* Wait until the update of RMX register in hibernate domain is completed */
  while((SCU_GENERAL->MIRRSTS) & SCU_GENERAL_MIRRSTS_RMX_Msk)
 80011ac:	bf00      	nop
 80011ae:	4b06      	ldr	r3, [pc, #24]	; (80011c8 <XMC_SCU_WriteToRetentionMemory+0x48>)
 80011b0:	f8d3 30c4 	ldr.w	r3, [r3, #196]	; 0xc4
 80011b4:	f403 5300 	and.w	r3, r3, #8192	; 0x2000
 80011b8:	2b00      	cmp	r3, #0
 80011ba:	d1f8      	bne.n	80011ae <XMC_SCU_WriteToRetentionMemory+0x2e>
  {
  }
}
 80011bc:	bf00      	nop
 80011be:	3714      	adds	r7, #20
 80011c0:	46bd      	mov	sp, r7
 80011c2:	f85d 7b04 	ldr.w	r7, [sp], #4
 80011c6:	4770      	bx	lr
 80011c8:	50004000 	.word	0x50004000

080011cc <XMC_SCU_ReadFromRetentionMemory>:

/* API to read from Retention memory in hibernate domain */
uint32_t XMC_SCU_ReadFromRetentionMemory(uint32_t address)
{
 80011cc:	b480      	push	{r7}
 80011ce:	b085      	sub	sp, #20
 80011d0:	af00      	add	r7, sp, #0
 80011d2:	6078      	str	r0, [r7, #4]
  uint32_t rmacr;

  /* Get the address right */  
  rmacr = ((uint32_t)(address << SCU_GENERAL_RMACR_ADDR_Pos) & (uint32_t)SCU_GENERAL_RMACR_ADDR_Msk);
 80011d4:	687b      	ldr	r3, [r7, #4]
 80011d6:	041b      	lsls	r3, r3, #16
 80011d8:	f403 2370 	and.w	r3, r3, #983040	; 0xf0000
 80011dc:	60fb      	str	r3, [r7, #12]
  
  /* Transfer from RMDATA to Retention memory */
  rmacr &= ~((uint32_t)(SCU_GENERAL_RMACR_RDWR_Msk));
 80011de:	68fb      	ldr	r3, [r7, #12]
 80011e0:	f023 0301 	bic.w	r3, r3, #1
 80011e4:	60fb      	str	r3, [r7, #12]
  
  /* Writing an adress & direction of transfer into RMACR register */  
  SCU_GENERAL->RMACR = rmacr;
 80011e6:	4a0a      	ldr	r2, [pc, #40]	; (8001210 <XMC_SCU_ReadFromRetentionMemory+0x44>)
 80011e8:	68fb      	ldr	r3, [r7, #12]
 80011ea:	f8c2 30c8 	str.w	r3, [r2, #200]	; 0xc8
  
  /* Wait until the update of RMX register in hibernate domain is completed */
  while((SCU_GENERAL->MIRRSTS) & SCU_GENERAL_MIRRSTS_RMX_Msk)
 80011ee:	bf00      	nop
 80011f0:	4b07      	ldr	r3, [pc, #28]	; (8001210 <XMC_SCU_ReadFromRetentionMemory+0x44>)
 80011f2:	f8d3 30c4 	ldr.w	r3, [r3, #196]	; 0xc4
 80011f6:	f403 5300 	and.w	r3, r3, #8192	; 0x2000
 80011fa:	2b00      	cmp	r3, #0
 80011fc:	d1f8      	bne.n	80011f0 <XMC_SCU_ReadFromRetentionMemory+0x24>
  {
  }

  return (SCU_GENERAL->RMDATA);
 80011fe:	4b04      	ldr	r3, [pc, #16]	; (8001210 <XMC_SCU_ReadFromRetentionMemory+0x44>)
 8001200:	f8d3 30cc 	ldr.w	r3, [r3, #204]	; 0xcc
}
 8001204:	4618      	mov	r0, r3
 8001206:	3714      	adds	r7, #20
 8001208:	46bd      	mov	sp, r7
 800120a:	f85d 7b04 	ldr.w	r7, [sp], #4
 800120e:	4770      	bx	lr
 8001210:	50004000 	.word	0x50004000

08001214 <XMC_SCU_CLOCK_Init>:

/* API to initialize the clock tree */
void XMC_SCU_CLOCK_Init(const XMC_SCU_CLOCK_CONFIG_t *const config)
{
 8001214:	b590      	push	{r4, r7, lr}
 8001216:	b085      	sub	sp, #20
 8001218:	af02      	add	r7, sp, #8
 800121a:	6078      	str	r0, [r7, #4]
  XMC_ASSERT("", ((config->fstdby_clksrc == XMC_SCU_HIB_STDBYCLKSRC_OSCULP) && (config->enable_osculp == true)) ||
                 (config->fstdby_clksrc != XMC_SCU_HIB_STDBYCLKSRC_OSCULP));
  XMC_ASSERT("", ((config->syspll_config.clksrc == XMC_SCU_CLOCK_SYSPLLCLKSRC_OSCHP) &&
                 (config->enable_oschp == true)) || (config->syspll_config.clksrc != XMC_SCU_CLOCK_SYSPLLCLKSRC_OSCHP));

  XMC_SCU_CLOCK_SetSystemClockSource(XMC_SCU_CLOCK_SYSCLKSRC_OFI);
 800121c:	2000      	movs	r0, #0
 800121e:	f000 faf1 	bl	8001804 <XMC_SCU_CLOCK_SetSystemClockSource>

  XMC_SCU_HIB_EnableHibernateDomain();
 8001222:	f000 fd7f 	bl	8001d24 <XMC_SCU_HIB_EnableHibernateDomain>

  if (config->enable_osculp == true)
 8001226:	687b      	ldr	r3, [r7, #4]
 8001228:	79db      	ldrb	r3, [r3, #7]
 800122a:	2b00      	cmp	r3, #0
 800122c:	d00a      	beq.n	8001244 <XMC_SCU_CLOCK_Init+0x30>
  {
    XMC_SCU_CLOCK_EnableLowPowerOscillator();
 800122e:	f000 ff77 	bl	8002120 <XMC_SCU_CLOCK_EnableLowPowerOscillator>
    while (XMC_SCU_CLOCK_IsLowPowerOscillatorStable() == false);
 8001232:	bf00      	nop
 8001234:	f000 ff62 	bl	80020fc <XMC_SCU_CLOCK_IsLowPowerOscillatorStable>
 8001238:	4603      	mov	r3, r0
 800123a:	f083 0301 	eor.w	r3, r3, #1
 800123e:	b2db      	uxtb	r3, r3
 8001240:	2b00      	cmp	r3, #0
 8001242:	d1f7      	bne.n	8001234 <XMC_SCU_CLOCK_Init+0x20>
  }
  
  XMC_SCU_HIB_SetStandbyClockSource(config->fstdby_clksrc);  
 8001244:	687b      	ldr	r3, [r7, #4]
 8001246:	7a5b      	ldrb	r3, [r3, #9]
 8001248:	4618      	mov	r0, r3
 800124a:	f000 fb6f 	bl	800192c <XMC_SCU_HIB_SetStandbyClockSource>
  while (XMC_SCU_GetMirrorStatus() != 0)
 800124e:	bf00      	nop
 8001250:	f7ff fdda 	bl	8000e08 <XMC_SCU_GetMirrorStatus>
 8001254:	4603      	mov	r3, r0
 8001256:	2b00      	cmp	r3, #0
 8001258:	d1fa      	bne.n	8001250 <XMC_SCU_CLOCK_Init+0x3c>
  {
    /* Wait until update of the stanby clock source is done in the HIB domain */    
  }

  XMC_SCU_CLOCK_SetBackupClockCalibrationMode(config->calibration_mode);
 800125a:	687b      	ldr	r3, [r7, #4]
 800125c:	7a1b      	ldrb	r3, [r3, #8]
 800125e:	4618      	mov	r0, r3
 8001260:	f000 fd0c 	bl	8001c7c <XMC_SCU_CLOCK_SetBackupClockCalibrationMode>

  XMC_SCU_CLOCK_SetSystemClockDivider((uint32_t)config->fsys_clkdiv);
 8001264:	687b      	ldr	r3, [r7, #4]
 8001266:	7c1b      	ldrb	r3, [r3, #16]
 8001268:	4618      	mov	r0, r3
 800126a:	f000 fb7f 	bl	800196c <XMC_SCU_CLOCK_SetSystemClockDivider>
  XMC_SCU_CLOCK_SetCpuClockDivider((uint32_t)config->fcpu_clkdiv);
 800126e:	687b      	ldr	r3, [r7, #4]
 8001270:	7c5b      	ldrb	r3, [r3, #17]
 8001272:	4618      	mov	r0, r3
 8001274:	f000 fba6 	bl	80019c4 <XMC_SCU_CLOCK_SetCpuClockDivider>
  XMC_SCU_CLOCK_SetCcuClockDivider((uint32_t)config->fccu_clkdiv);
 8001278:	687b      	ldr	r3, [r7, #4]
 800127a:	7c9b      	ldrb	r3, [r3, #18]
 800127c:	4618      	mov	r0, r3
 800127e:	f000 fb8b 	bl	8001998 <XMC_SCU_CLOCK_SetCcuClockDivider>
  XMC_SCU_CLOCK_SetPeripheralClockDivider((uint32_t)config->fperipheral_clkdiv);
 8001282:	687b      	ldr	r3, [r7, #4]
 8001284:	7cdb      	ldrb	r3, [r3, #19]
 8001286:	4618      	mov	r0, r3
 8001288:	f000 fbb2 	bl	80019f0 <XMC_SCU_CLOCK_SetPeripheralClockDivider>

  if (config->enable_oschp == true)
 800128c:	687b      	ldr	r3, [r7, #4]
 800128e:	799b      	ldrb	r3, [r3, #6]
 8001290:	2b00      	cmp	r3, #0
 8001292:	d00a      	beq.n	80012aa <XMC_SCU_CLOCK_Init+0x96>
  {
    XMC_SCU_CLOCK_EnableHighPerformanceOscillator();
 8001294:	f000 ffd8 	bl	8002248 <XMC_SCU_CLOCK_EnableHighPerformanceOscillator>
    while(XMC_SCU_CLOCK_IsHighPerformanceOscillatorStable() == false);
 8001298:	bf00      	nop
 800129a:	f000 fffd 	bl	8002298 <XMC_SCU_CLOCK_IsHighPerformanceOscillatorStable>
 800129e:	4603      	mov	r3, r0
 80012a0:	f083 0301 	eor.w	r3, r3, #1
 80012a4:	b2db      	uxtb	r3, r3
 80012a6:	2b00      	cmp	r3, #0
 80012a8:	d1f7      	bne.n	800129a <XMC_SCU_CLOCK_Init+0x86>
  }

  if (config->syspll_config.mode == XMC_SCU_CLOCK_SYSPLL_MODE_DISABLED)
 80012aa:	687b      	ldr	r3, [r7, #4]
 80012ac:	78db      	ldrb	r3, [r3, #3]
 80012ae:	2b00      	cmp	r3, #0
 80012b0:	d102      	bne.n	80012b8 <XMC_SCU_CLOCK_Init+0xa4>
  {
    XMC_SCU_CLOCK_DisableSystemPll();
 80012b2:	f001 f855 	bl	8002360 <XMC_SCU_CLOCK_DisableSystemPll>
 80012b6:	e011      	b.n	80012dc <XMC_SCU_CLOCK_Init+0xc8>
  }
  else
  {

    XMC_SCU_CLOCK_EnableSystemPll();
 80012b8:	f001 f840 	bl	800233c <XMC_SCU_CLOCK_EnableSystemPll>
    XMC_SCU_CLOCK_StartSystemPll(config->syspll_config.clksrc,
 80012bc:	687b      	ldr	r3, [r7, #4]
 80012be:	8898      	ldrh	r0, [r3, #4]
 80012c0:	687b      	ldr	r3, [r7, #4]
 80012c2:	78d9      	ldrb	r1, [r3, #3]
                                 config->syspll_config.mode,
                                 (uint32_t)config->syspll_config.p_div,
 80012c4:	687b      	ldr	r3, [r7, #4]
 80012c6:	785b      	ldrb	r3, [r3, #1]
    XMC_SCU_CLOCK_StartSystemPll(config->syspll_config.clksrc,
 80012c8:	461a      	mov	r2, r3
                                 (uint32_t)config->syspll_config.n_div,
 80012ca:	687b      	ldr	r3, [r7, #4]
 80012cc:	781b      	ldrb	r3, [r3, #0]
    XMC_SCU_CLOCK_StartSystemPll(config->syspll_config.clksrc,
 80012ce:	461c      	mov	r4, r3
                                 (uint32_t)config->syspll_config.k_div);
 80012d0:	687b      	ldr	r3, [r7, #4]
 80012d2:	789b      	ldrb	r3, [r3, #2]
    XMC_SCU_CLOCK_StartSystemPll(config->syspll_config.clksrc,
 80012d4:	9300      	str	r3, [sp, #0]
 80012d6:	4623      	mov	r3, r4
 80012d8:	f001 f854 	bl	8002384 <XMC_SCU_CLOCK_StartSystemPll>
  }

  /* use SYSPLL? */
  if (config->fsys_clksrc == XMC_SCU_CLOCK_SYSCLKSRC_PLL)
 80012dc:	687b      	ldr	r3, [r7, #4]
 80012de:	68db      	ldr	r3, [r3, #12]
 80012e0:	f5b3 3f80 	cmp.w	r3, #65536	; 0x10000
 80012e4:	d103      	bne.n	80012ee <XMC_SCU_CLOCK_Init+0xda>
  {
    XMC_SCU_CLOCK_SetSystemClockSource(XMC_SCU_CLOCK_SYSCLKSRC_PLL);    
 80012e6:	f44f 3080 	mov.w	r0, #65536	; 0x10000
 80012ea:	f000 fa8b 	bl	8001804 <XMC_SCU_CLOCK_SetSystemClockSource>
  }
  SystemCoreClockUpdate();
 80012ee:	f001 fc89 	bl	8002c04 <SystemCoreClockUpdate>
}
 80012f2:	bf00      	nop
 80012f4:	370c      	adds	r7, #12
 80012f6:	46bd      	mov	sp, r7
 80012f8:	bd90      	pop	{r4, r7, pc}
	...

080012fc <XMC_SCU_TRAP_Enable>:

/* API to enable a trap source */
void XMC_SCU_TRAP_Enable(const uint32_t trap)
{
 80012fc:	b480      	push	{r7}
 80012fe:	b083      	sub	sp, #12
 8001300:	af00      	add	r7, sp, #0
 8001302:	6078      	str	r0, [r7, #4]
  SCU_TRAP->TRAPDIS &= (uint32_t)~trap;
 8001304:	4b06      	ldr	r3, [pc, #24]	; (8001320 <XMC_SCU_TRAP_Enable+0x24>)
 8001306:	689a      	ldr	r2, [r3, #8]
 8001308:	687b      	ldr	r3, [r7, #4]
 800130a:	43db      	mvns	r3, r3
 800130c:	4904      	ldr	r1, [pc, #16]	; (8001320 <XMC_SCU_TRAP_Enable+0x24>)
 800130e:	4013      	ands	r3, r2
 8001310:	608b      	str	r3, [r1, #8]
}
 8001312:	bf00      	nop
 8001314:	370c      	adds	r7, #12
 8001316:	46bd      	mov	sp, r7
 8001318:	f85d 7b04 	ldr.w	r7, [sp], #4
 800131c:	4770      	bx	lr
 800131e:	bf00      	nop
 8001320:	50004160 	.word	0x50004160

08001324 <XMC_SCU_TRAP_Disable>:

/* API to disable a trap source */
void XMC_SCU_TRAP_Disable(const uint32_t trap)
{
 8001324:	b480      	push	{r7}
 8001326:	b083      	sub	sp, #12
 8001328:	af00      	add	r7, sp, #0
 800132a:	6078      	str	r0, [r7, #4]
  SCU_TRAP->TRAPDIS |= (uint32_t)trap;
 800132c:	4b05      	ldr	r3, [pc, #20]	; (8001344 <XMC_SCU_TRAP_Disable+0x20>)
 800132e:	689a      	ldr	r2, [r3, #8]
 8001330:	4904      	ldr	r1, [pc, #16]	; (8001344 <XMC_SCU_TRAP_Disable+0x20>)
 8001332:	687b      	ldr	r3, [r7, #4]
 8001334:	4313      	orrs	r3, r2
 8001336:	608b      	str	r3, [r1, #8]
}
 8001338:	bf00      	nop
 800133a:	370c      	adds	r7, #12
 800133c:	46bd      	mov	sp, r7
 800133e:	f85d 7b04 	ldr.w	r7, [sp], #4
 8001342:	4770      	bx	lr
 8001344:	50004160 	.word	0x50004160

08001348 <XMC_SCU_TRAP_GetStatus>:

/* API to determine if a trap source has generated event */
uint32_t XMC_SCU_TRAP_GetStatus(void)
{
 8001348:	b480      	push	{r7}
 800134a:	af00      	add	r7, sp, #0
  return (SCU_TRAP->TRAPRAW);
 800134c:	4b03      	ldr	r3, [pc, #12]	; (800135c <XMC_SCU_TRAP_GetStatus+0x14>)
 800134e:	685b      	ldr	r3, [r3, #4]
}
 8001350:	4618      	mov	r0, r3
 8001352:	46bd      	mov	sp, r7
 8001354:	f85d 7b04 	ldr.w	r7, [sp], #4
 8001358:	4770      	bx	lr
 800135a:	bf00      	nop
 800135c:	50004160 	.word	0x50004160

08001360 <XMC_SCU_TRAP_Trigger>:

/* API to manually trigger a trap event */
void XMC_SCU_TRAP_Trigger(const uint32_t trap)
{
 8001360:	b480      	push	{r7}
 8001362:	b083      	sub	sp, #12
 8001364:	af00      	add	r7, sp, #0
 8001366:	6078      	str	r0, [r7, #4]
  SCU_TRAP->TRAPSET = (uint32_t)trap;
 8001368:	4a04      	ldr	r2, [pc, #16]	; (800137c <XMC_SCU_TRAP_Trigger+0x1c>)
 800136a:	687b      	ldr	r3, [r7, #4]
 800136c:	6113      	str	r3, [r2, #16]
}
 800136e:	bf00      	nop
 8001370:	370c      	adds	r7, #12
 8001372:	46bd      	mov	sp, r7
 8001374:	f85d 7b04 	ldr.w	r7, [sp], #4
 8001378:	4770      	bx	lr
 800137a:	bf00      	nop
 800137c:	50004160 	.word	0x50004160

08001380 <XMC_SCU_TRAP_ClearStatus>:

/* API to clear a trap event */
void XMC_SCU_TRAP_ClearStatus(const uint32_t trap)
{
 8001380:	b480      	push	{r7}
 8001382:	b083      	sub	sp, #12
 8001384:	af00      	add	r7, sp, #0
 8001386:	6078      	str	r0, [r7, #4]
  SCU_TRAP->TRAPCLR = (uint32_t)trap;
 8001388:	4a04      	ldr	r2, [pc, #16]	; (800139c <XMC_SCU_TRAP_ClearStatus+0x1c>)
 800138a:	687b      	ldr	r3, [r7, #4]
 800138c:	60d3      	str	r3, [r2, #12]
}
 800138e:	bf00      	nop
 8001390:	370c      	adds	r7, #12
 8001392:	46bd      	mov	sp, r7
 8001394:	f85d 7b04 	ldr.w	r7, [sp], #4
 8001398:	4770      	bx	lr
 800139a:	bf00      	nop
 800139c:	50004160 	.word	0x50004160

080013a0 <XMC_SCU_PARITY_ClearStatus>:

/* API to clear parity error event */
void XMC_SCU_PARITY_ClearStatus(const uint32_t memory)
{
 80013a0:	b480      	push	{r7}
 80013a2:	b083      	sub	sp, #12
 80013a4:	af00      	add	r7, sp, #0
 80013a6:	6078      	str	r0, [r7, #4]
  SCU_PARITY->PEFLAG |= (uint32_t)memory; 
 80013a8:	4b05      	ldr	r3, [pc, #20]	; (80013c0 <XMC_SCU_PARITY_ClearStatus+0x20>)
 80013aa:	695a      	ldr	r2, [r3, #20]
 80013ac:	4904      	ldr	r1, [pc, #16]	; (80013c0 <XMC_SCU_PARITY_ClearStatus+0x20>)
 80013ae:	687b      	ldr	r3, [r7, #4]
 80013b0:	4313      	orrs	r3, r2
 80013b2:	614b      	str	r3, [r1, #20]
}
 80013b4:	bf00      	nop
 80013b6:	370c      	adds	r7, #12
 80013b8:	46bd      	mov	sp, r7
 80013ba:	f85d 7b04 	ldr.w	r7, [sp], #4
 80013be:	4770      	bx	lr
 80013c0:	5000413c 	.word	0x5000413c

080013c4 <XMC_SCU_PARITY_GetStatus>:

/* API to determine if the specified parity error has occured or not */
uint32_t XMC_SCU_PARITY_GetStatus(void)
{
 80013c4:	b480      	push	{r7}
 80013c6:	af00      	add	r7, sp, #0
  return (SCU_PARITY->PEFLAG);
 80013c8:	4b03      	ldr	r3, [pc, #12]	; (80013d8 <XMC_SCU_PARITY_GetStatus+0x14>)
 80013ca:	695b      	ldr	r3, [r3, #20]
} 
 80013cc:	4618      	mov	r0, r3
 80013ce:	46bd      	mov	sp, r7
 80013d0:	f85d 7b04 	ldr.w	r7, [sp], #4
 80013d4:	4770      	bx	lr
 80013d6:	bf00      	nop
 80013d8:	5000413c 	.word	0x5000413c

080013dc <XMC_SCU_PARITY_Enable>:

/* API to enable parity error checking for the selected on-chip RAM type */
void XMC_SCU_PARITY_Enable(const uint32_t memory)
{
 80013dc:	b480      	push	{r7}
 80013de:	b083      	sub	sp, #12
 80013e0:	af00      	add	r7, sp, #0
 80013e2:	6078      	str	r0, [r7, #4]
  SCU_PARITY->PEEN |= (uint32_t)memory; 
 80013e4:	4b05      	ldr	r3, [pc, #20]	; (80013fc <XMC_SCU_PARITY_Enable+0x20>)
 80013e6:	681a      	ldr	r2, [r3, #0]
 80013e8:	4904      	ldr	r1, [pc, #16]	; (80013fc <XMC_SCU_PARITY_Enable+0x20>)
 80013ea:	687b      	ldr	r3, [r7, #4]
 80013ec:	4313      	orrs	r3, r2
 80013ee:	600b      	str	r3, [r1, #0]
}
 80013f0:	bf00      	nop
 80013f2:	370c      	adds	r7, #12
 80013f4:	46bd      	mov	sp, r7
 80013f6:	f85d 7b04 	ldr.w	r7, [sp], #4
 80013fa:	4770      	bx	lr
 80013fc:	5000413c 	.word	0x5000413c

08001400 <XMC_SCU_PARITY_Disable>:

/* API to disable parity error checking for the selected on-chip RAM type */
void XMC_SCU_PARITY_Disable(const uint32_t memory)
{
 8001400:	b480      	push	{r7}
 8001402:	b083      	sub	sp, #12
 8001404:	af00      	add	r7, sp, #0
 8001406:	6078      	str	r0, [r7, #4]
  SCU_PARITY->PEEN &= (uint32_t)~memory; 
 8001408:	4b06      	ldr	r3, [pc, #24]	; (8001424 <XMC_SCU_PARITY_Disable+0x24>)
 800140a:	681a      	ldr	r2, [r3, #0]
 800140c:	687b      	ldr	r3, [r7, #4]
 800140e:	43db      	mvns	r3, r3
 8001410:	4904      	ldr	r1, [pc, #16]	; (8001424 <XMC_SCU_PARITY_Disable+0x24>)
 8001412:	4013      	ands	r3, r2
 8001414:	600b      	str	r3, [r1, #0]
}
 8001416:	bf00      	nop
 8001418:	370c      	adds	r7, #12
 800141a:	46bd      	mov	sp, r7
 800141c:	f85d 7b04 	ldr.w	r7, [sp], #4
 8001420:	4770      	bx	lr
 8001422:	bf00      	nop
 8001424:	5000413c 	.word	0x5000413c

08001428 <XMC_SCU_PARITY_EnableTrapGeneration>:

/* API to enable trap assertion for the parity error source */
void XMC_SCU_PARITY_EnableTrapGeneration(const uint32_t memory)
{
 8001428:	b480      	push	{r7}
 800142a:	b083      	sub	sp, #12
 800142c:	af00      	add	r7, sp, #0
 800142e:	6078      	str	r0, [r7, #4]
  SCU_PARITY->PETE |= (uint32_t)memory; 
 8001430:	4b05      	ldr	r3, [pc, #20]	; (8001448 <XMC_SCU_PARITY_EnableTrapGeneration+0x20>)
 8001432:	689a      	ldr	r2, [r3, #8]
 8001434:	4904      	ldr	r1, [pc, #16]	; (8001448 <XMC_SCU_PARITY_EnableTrapGeneration+0x20>)
 8001436:	687b      	ldr	r3, [r7, #4]
 8001438:	4313      	orrs	r3, r2
 800143a:	608b      	str	r3, [r1, #8]
}
 800143c:	bf00      	nop
 800143e:	370c      	adds	r7, #12
 8001440:	46bd      	mov	sp, r7
 8001442:	f85d 7b04 	ldr.w	r7, [sp], #4
 8001446:	4770      	bx	lr
 8001448:	5000413c 	.word	0x5000413c

0800144c <XMC_SCU_PARITY_DisableTrapGeneration>:

/* API to disable the assertion of trap for the parity error source */
void XMC_SCU_PARITY_DisableTrapGeneration(const uint32_t memory)
{
 800144c:	b480      	push	{r7}
 800144e:	b083      	sub	sp, #12
 8001450:	af00      	add	r7, sp, #0
 8001452:	6078      	str	r0, [r7, #4]
  SCU_PARITY->PETE &= (uint32_t)~memory; 
 8001454:	4b06      	ldr	r3, [pc, #24]	; (8001470 <XMC_SCU_PARITY_DisableTrapGeneration+0x24>)
 8001456:	689a      	ldr	r2, [r3, #8]
 8001458:	687b      	ldr	r3, [r7, #4]
 800145a:	43db      	mvns	r3, r3
 800145c:	4904      	ldr	r1, [pc, #16]	; (8001470 <XMC_SCU_PARITY_DisableTrapGeneration+0x24>)
 800145e:	4013      	ands	r3, r2
 8001460:	608b      	str	r3, [r1, #8]
}
 8001462:	bf00      	nop
 8001464:	370c      	adds	r7, #12
 8001466:	46bd      	mov	sp, r7
 8001468:	f85d 7b04 	ldr.w	r7, [sp], #4
 800146c:	4770      	bx	lr
 800146e:	bf00      	nop
 8001470:	5000413c 	.word	0x5000413c

08001474 <XMC_SCU_INTERRUPT_EnableNmiRequest>:

/* Enables a NMI source */
void XMC_SCU_INTERRUPT_EnableNmiRequest(const uint32_t request)
{
 8001474:	b480      	push	{r7}
 8001476:	b083      	sub	sp, #12
 8001478:	af00      	add	r7, sp, #0
 800147a:	6078      	str	r0, [r7, #4]
  SCU_INTERRUPT->NMIREQEN |= (uint32_t)request;
 800147c:	4b05      	ldr	r3, [pc, #20]	; (8001494 <XMC_SCU_INTERRUPT_EnableNmiRequest+0x20>)
 800147e:	695a      	ldr	r2, [r3, #20]
 8001480:	4904      	ldr	r1, [pc, #16]	; (8001494 <XMC_SCU_INTERRUPT_EnableNmiRequest+0x20>)
 8001482:	687b      	ldr	r3, [r7, #4]
 8001484:	4313      	orrs	r3, r2
 8001486:	614b      	str	r3, [r1, #20]
}
 8001488:	bf00      	nop
 800148a:	370c      	adds	r7, #12
 800148c:	46bd      	mov	sp, r7
 800148e:	f85d 7b04 	ldr.w	r7, [sp], #4
 8001492:	4770      	bx	lr
 8001494:	50004074 	.word	0x50004074

08001498 <XMC_SCU_INTERRUPT_DisableNmiRequest>:

/* Disables a NMI source */
void XMC_SCU_INTERRUPT_DisableNmiRequest(const uint32_t request)
{
 8001498:	b480      	push	{r7}
 800149a:	b083      	sub	sp, #12
 800149c:	af00      	add	r7, sp, #0
 800149e:	6078      	str	r0, [r7, #4]
  SCU_INTERRUPT->NMIREQEN &= (uint32_t)~request;
 80014a0:	4b06      	ldr	r3, [pc, #24]	; (80014bc <XMC_SCU_INTERRUPT_DisableNmiRequest+0x24>)
 80014a2:	695a      	ldr	r2, [r3, #20]
 80014a4:	687b      	ldr	r3, [r7, #4]
 80014a6:	43db      	mvns	r3, r3
 80014a8:	4904      	ldr	r1, [pc, #16]	; (80014bc <XMC_SCU_INTERRUPT_DisableNmiRequest+0x24>)
 80014aa:	4013      	ands	r3, r2
 80014ac:	614b      	str	r3, [r1, #20]
}
 80014ae:	bf00      	nop
 80014b0:	370c      	adds	r7, #12
 80014b2:	46bd      	mov	sp, r7
 80014b4:	f85d 7b04 	ldr.w	r7, [sp], #4
 80014b8:	4770      	bx	lr
 80014ba:	bf00      	nop
 80014bc:	50004074 	.word	0x50004074

080014c0 <XMC_SCU_RESET_AssertPeripheralReset>:

/* API to manually assert a reset request */
void XMC_SCU_RESET_AssertPeripheralReset(const XMC_SCU_PERIPHERAL_RESET_t peripheral)
{
 80014c0:	b480      	push	{r7}
 80014c2:	b085      	sub	sp, #20
 80014c4:	af00      	add	r7, sp, #0
 80014c6:	6078      	str	r0, [r7, #4]
  uint32_t index = (uint32_t)((((uint32_t)peripheral) & 0xf0000000UL) >> 28UL);
 80014c8:	687b      	ldr	r3, [r7, #4]
 80014ca:	0f1b      	lsrs	r3, r3, #28
 80014cc:	60fb      	str	r3, [r7, #12]
  uint32_t mask = (((uint32_t)peripheral) & ((uint32_t)~0xf0000000UL));
 80014ce:	687b      	ldr	r3, [r7, #4]
 80014d0:	f023 4370 	bic.w	r3, r3, #4026531840	; 0xf0000000
 80014d4:	60bb      	str	r3, [r7, #8]

  *(uint32_t *)(&(SCU_RESET->PRSET0) + (index * 3U)) = (uint32_t)mask;
 80014d6:	68fa      	ldr	r2, [r7, #12]
 80014d8:	4613      	mov	r3, r2
 80014da:	005b      	lsls	r3, r3, #1
 80014dc:	4413      	add	r3, r2
 80014de:	009b      	lsls	r3, r3, #2
 80014e0:	461a      	mov	r2, r3
 80014e2:	4b05      	ldr	r3, [pc, #20]	; (80014f8 <XMC_SCU_RESET_AssertPeripheralReset+0x38>)
 80014e4:	4413      	add	r3, r2
 80014e6:	68ba      	ldr	r2, [r7, #8]
 80014e8:	601a      	str	r2, [r3, #0]
}
 80014ea:	bf00      	nop
 80014ec:	3714      	adds	r7, #20
 80014ee:	46bd      	mov	sp, r7
 80014f0:	f85d 7b04 	ldr.w	r7, [sp], #4
 80014f4:	4770      	bx	lr
 80014f6:	bf00      	nop
 80014f8:	50004410 	.word	0x50004410

080014fc <XMC_SCU_RESET_DeassertPeripheralReset>:

/* API to manually de-assert a reset request */
void XMC_SCU_RESET_DeassertPeripheralReset(const XMC_SCU_PERIPHERAL_RESET_t peripheral)
{
 80014fc:	b480      	push	{r7}
 80014fe:	b085      	sub	sp, #20
 8001500:	af00      	add	r7, sp, #0
 8001502:	6078      	str	r0, [r7, #4]
  uint32_t index = (uint32_t)((((uint32_t)peripheral) & 0xf0000000UL) >> 28UL);
 8001504:	687b      	ldr	r3, [r7, #4]
 8001506:	0f1b      	lsrs	r3, r3, #28
 8001508:	60fb      	str	r3, [r7, #12]
  uint32_t mask = (((uint32_t)peripheral) & ((uint32_t)~0xf0000000UL));
 800150a:	687b      	ldr	r3, [r7, #4]
 800150c:	f023 4370 	bic.w	r3, r3, #4026531840	; 0xf0000000
 8001510:	60bb      	str	r3, [r7, #8]

  *(uint32_t *)(&(SCU_RESET->PRCLR0) + (index * 3U)) = (uint32_t)mask;
 8001512:	68fa      	ldr	r2, [r7, #12]
 8001514:	4613      	mov	r3, r2
 8001516:	005b      	lsls	r3, r3, #1
 8001518:	4413      	add	r3, r2
 800151a:	009b      	lsls	r3, r3, #2
 800151c:	461a      	mov	r2, r3
 800151e:	4b05      	ldr	r3, [pc, #20]	; (8001534 <XMC_SCU_RESET_DeassertPeripheralReset+0x38>)
 8001520:	4413      	add	r3, r2
 8001522:	68ba      	ldr	r2, [r7, #8]
 8001524:	601a      	str	r2, [r3, #0]
}
 8001526:	bf00      	nop
 8001528:	3714      	adds	r7, #20
 800152a:	46bd      	mov	sp, r7
 800152c:	f85d 7b04 	ldr.w	r7, [sp], #4
 8001530:	4770      	bx	lr
 8001532:	bf00      	nop
 8001534:	50004414 	.word	0x50004414

08001538 <XMC_SCU_RESET_IsPeripheralResetAsserted>:

/* Find out if the peripheral reset is asserted */
bool XMC_SCU_RESET_IsPeripheralResetAsserted(const XMC_SCU_PERIPHERAL_RESET_t peripheral)
{
 8001538:	b480      	push	{r7}
 800153a:	b085      	sub	sp, #20
 800153c:	af00      	add	r7, sp, #0
 800153e:	6078      	str	r0, [r7, #4]
  uint32_t index = (uint32_t)((((uint32_t)peripheral) & 0xf0000000UL) >> 28UL);
 8001540:	687b      	ldr	r3, [r7, #4]
 8001542:	0f1b      	lsrs	r3, r3, #28
 8001544:	60fb      	str	r3, [r7, #12]
  uint32_t mask = (((uint32_t)peripheral) & ((uint32_t)~0xf0000000UL));
 8001546:	687b      	ldr	r3, [r7, #4]
 8001548:	f023 4370 	bic.w	r3, r3, #4026531840	; 0xf0000000
 800154c:	60bb      	str	r3, [r7, #8]

  return ((*(uint32_t *)(&(SCU_RESET->PRSTAT0) + (index * 3U)) & mask) != 0U);
 800154e:	68fa      	ldr	r2, [r7, #12]
 8001550:	4613      	mov	r3, r2
 8001552:	005b      	lsls	r3, r3, #1
 8001554:	4413      	add	r3, r2
 8001556:	009b      	lsls	r3, r3, #2
 8001558:	461a      	mov	r2, r3
 800155a:	4b08      	ldr	r3, [pc, #32]	; (800157c <XMC_SCU_RESET_IsPeripheralResetAsserted+0x44>)
 800155c:	4413      	add	r3, r2
 800155e:	681a      	ldr	r2, [r3, #0]
 8001560:	68bb      	ldr	r3, [r7, #8]
 8001562:	4013      	ands	r3, r2
 8001564:	2b00      	cmp	r3, #0
 8001566:	bf14      	ite	ne
 8001568:	2301      	movne	r3, #1
 800156a:	2300      	moveq	r3, #0
 800156c:	b2db      	uxtb	r3, r3
}
 800156e:	4618      	mov	r0, r3
 8001570:	3714      	adds	r7, #20
 8001572:	46bd      	mov	sp, r7
 8001574:	f85d 7b04 	ldr.w	r7, [sp], #4
 8001578:	4770      	bx	lr
 800157a:	bf00      	nop
 800157c:	5000440c 	.word	0x5000440c

08001580 <XMC_SCU_CLOCK_GetSystemPllClockFrequency>:

/*
 * API to retrieve frequency of System PLL output clock
 */
uint32_t XMC_SCU_CLOCK_GetSystemPllClockFrequency(void)
{
 8001580:	b580      	push	{r7, lr}
 8001582:	b084      	sub	sp, #16
 8001584:	af00      	add	r7, sp, #0
  uint32_t clock_frequency;
  uint32_t p_div;
  uint32_t n_div;
  uint32_t k2_div;

  clock_frequency = XMC_SCU_CLOCK_GetSystemPllClockSourceFrequency();
 8001586:	f000 f839 	bl	80015fc <XMC_SCU_CLOCK_GetSystemPllClockSourceFrequency>
 800158a:	60f8      	str	r0, [r7, #12]
  if(SCU_PLL->PLLSTAT & SCU_PLL_PLLSTAT_VCOBYST_Msk)
 800158c:	4b1a      	ldr	r3, [pc, #104]	; (80015f8 <XMC_SCU_CLOCK_GetSystemPllClockFrequency+0x78>)
 800158e:	681b      	ldr	r3, [r3, #0]
 8001590:	f003 0301 	and.w	r3, r3, #1
 8001594:	2b00      	cmp	r3, #0
 8001596:	d009      	beq.n	80015ac <XMC_SCU_CLOCK_GetSystemPllClockFrequency+0x2c>
  {
    /* Prescalar mode - fOSC is the parent*/
    clock_frequency = (uint32_t)(clock_frequency / 
                      ((((SCU_PLL->PLLCON1) & SCU_PLL_PLLCON1_K1DIV_Msk) >> SCU_PLL_PLLCON1_K1DIV_Pos) + 1UL));
 8001598:	4b17      	ldr	r3, [pc, #92]	; (80015f8 <XMC_SCU_CLOCK_GetSystemPllClockFrequency+0x78>)
 800159a:	689b      	ldr	r3, [r3, #8]
 800159c:	f003 037f 	and.w	r3, r3, #127	; 0x7f
 80015a0:	3301      	adds	r3, #1
    clock_frequency = (uint32_t)(clock_frequency / 
 80015a2:	68fa      	ldr	r2, [r7, #12]
 80015a4:	fbb2 f3f3 	udiv	r3, r2, r3
 80015a8:	60fb      	str	r3, [r7, #12]
 80015aa:	e01f      	b.n	80015ec <XMC_SCU_CLOCK_GetSystemPllClockFrequency+0x6c>
  }
  else
  {
    p_div  = (uint32_t)((((SCU_PLL->PLLCON1) & SCU_PLL_PLLCON1_PDIV_Msk) >> SCU_PLL_PLLCON1_PDIV_Pos) + 1UL);
 80015ac:	4b12      	ldr	r3, [pc, #72]	; (80015f8 <XMC_SCU_CLOCK_GetSystemPllClockFrequency+0x78>)
 80015ae:	689b      	ldr	r3, [r3, #8]
 80015b0:	0e1b      	lsrs	r3, r3, #24
 80015b2:	f003 030f 	and.w	r3, r3, #15
 80015b6:	3301      	adds	r3, #1
 80015b8:	60bb      	str	r3, [r7, #8]
    n_div  = (uint32_t)((((SCU_PLL->PLLCON1) & SCU_PLL_PLLCON1_NDIV_Msk) >> SCU_PLL_PLLCON1_NDIV_Pos) + 1UL);
 80015ba:	4b0f      	ldr	r3, [pc, #60]	; (80015f8 <XMC_SCU_CLOCK_GetSystemPllClockFrequency+0x78>)
 80015bc:	689b      	ldr	r3, [r3, #8]
 80015be:	0a1b      	lsrs	r3, r3, #8
 80015c0:	f003 037f 	and.w	r3, r3, #127	; 0x7f
 80015c4:	3301      	adds	r3, #1
 80015c6:	607b      	str	r3, [r7, #4]
    k2_div = (uint32_t)((((SCU_PLL->PLLCON1) & SCU_PLL_PLLCON1_K2DIV_Msk) >> SCU_PLL_PLLCON1_K2DIV_Pos) + 1UL);
 80015c8:	4b0b      	ldr	r3, [pc, #44]	; (80015f8 <XMC_SCU_CLOCK_GetSystemPllClockFrequency+0x78>)
 80015ca:	689b      	ldr	r3, [r3, #8]
 80015cc:	0c1b      	lsrs	r3, r3, #16
 80015ce:	f003 037f 	and.w	r3, r3, #127	; 0x7f
 80015d2:	3301      	adds	r3, #1
 80015d4:	603b      	str	r3, [r7, #0]
       
    clock_frequency = (clock_frequency * n_div) / (p_div * k2_div);
 80015d6:	68fb      	ldr	r3, [r7, #12]
 80015d8:	687a      	ldr	r2, [r7, #4]
 80015da:	fb02 f203 	mul.w	r2, r2, r3
 80015de:	68bb      	ldr	r3, [r7, #8]
 80015e0:	6839      	ldr	r1, [r7, #0]
 80015e2:	fb01 f303 	mul.w	r3, r1, r3
 80015e6:	fbb2 f3f3 	udiv	r3, r2, r3
 80015ea:	60fb      	str	r3, [r7, #12]
  }

  return (clock_frequency);
 80015ec:	68fb      	ldr	r3, [r7, #12]
}
 80015ee:	4618      	mov	r0, r3
 80015f0:	3710      	adds	r7, #16
 80015f2:	46bd      	mov	sp, r7
 80015f4:	bd80      	pop	{r7, pc}
 80015f6:	bf00      	nop
 80015f8:	50004710 	.word	0x50004710

080015fc <XMC_SCU_CLOCK_GetSystemPllClockSourceFrequency>:

/**
 * API to retrieve frequency of System PLL VCO input clock
 */
uint32_t XMC_SCU_CLOCK_GetSystemPllClockSourceFrequency(void)
{
 80015fc:	b580      	push	{r7, lr}
 80015fe:	b082      	sub	sp, #8
 8001600:	af00      	add	r7, sp, #0
  uint32_t clock_frequency;

  /* Prescalar mode - fOSC is the parent*/
  if((SCU_PLL->PLLCON2 & SCU_PLL_PLLCON2_PINSEL_Msk) == (uint32_t)XMC_SCU_CLOCK_SYSPLLCLKSRC_OSCHP)
 8001602:	4b08      	ldr	r3, [pc, #32]	; (8001624 <XMC_SCU_CLOCK_GetSystemPllClockSourceFrequency+0x28>)
 8001604:	68db      	ldr	r3, [r3, #12]
 8001606:	f003 0301 	and.w	r3, r3, #1
 800160a:	2b00      	cmp	r3, #0
 800160c:	d103      	bne.n	8001616 <XMC_SCU_CLOCK_GetSystemPllClockSourceFrequency+0x1a>
  {
    clock_frequency = OSCHP_GetFrequency();
 800160e:	f001 fb63 	bl	8002cd8 <OSCHP_GetFrequency>
 8001612:	6078      	str	r0, [r7, #4]
 8001614:	e001      	b.n	800161a <XMC_SCU_CLOCK_GetSystemPllClockSourceFrequency+0x1e>
  }
  else
  {
    clock_frequency = OFI_FREQUENCY;
 8001616:	4b04      	ldr	r3, [pc, #16]	; (8001628 <XMC_SCU_CLOCK_GetSystemPllClockSourceFrequency+0x2c>)
 8001618:	607b      	str	r3, [r7, #4]
  }
  
  return (clock_frequency);
 800161a:	687b      	ldr	r3, [r7, #4]
}
 800161c:	4618      	mov	r0, r3
 800161e:	3708      	adds	r7, #8
 8001620:	46bd      	mov	sp, r7
 8001622:	bd80      	pop	{r7, pc}
 8001624:	50004710 	.word	0x50004710
 8001628:	016e3600 	.word	0x016e3600

0800162c <XMC_SCU_CLOCK_GetUsbPllClockFrequency>:

/*
 * API to retrieve frequency of USB PLL output clock
 */
uint32_t XMC_SCU_CLOCK_GetUsbPllClockFrequency(void)
{
 800162c:	b580      	push	{r7, lr}
 800162e:	b084      	sub	sp, #16
 8001630:	af00      	add	r7, sp, #0
  uint32_t clock_frequency;
  uint32_t n_div;
  uint32_t p_div;
  
  clock_frequency = OSCHP_GetFrequency();
 8001632:	f001 fb51 	bl	8002cd8 <OSCHP_GetFrequency>
 8001636:	60f8      	str	r0, [r7, #12]
  if((SCU_PLL->USBPLLSTAT & SCU_PLL_USBPLLSTAT_VCOBYST_Msk) == 0U)
 8001638:	4b10      	ldr	r3, [pc, #64]	; (800167c <XMC_SCU_CLOCK_GetUsbPllClockFrequency+0x50>)
 800163a:	691b      	ldr	r3, [r3, #16]
 800163c:	f003 0301 	and.w	r3, r3, #1
 8001640:	2b00      	cmp	r3, #0
 8001642:	d116      	bne.n	8001672 <XMC_SCU_CLOCK_GetUsbPllClockFrequency+0x46>
  {
    /* Normal mode - fVCO is the parent*/
    n_div = (uint32_t)((((SCU_PLL->USBPLLCON) & SCU_PLL_USBPLLCON_NDIV_Msk) >> SCU_PLL_USBPLLCON_NDIV_Pos) + 1UL);
 8001644:	4b0d      	ldr	r3, [pc, #52]	; (800167c <XMC_SCU_CLOCK_GetUsbPllClockFrequency+0x50>)
 8001646:	695b      	ldr	r3, [r3, #20]
 8001648:	0a1b      	lsrs	r3, r3, #8
 800164a:	f003 037f 	and.w	r3, r3, #127	; 0x7f
 800164e:	3301      	adds	r3, #1
 8001650:	60bb      	str	r3, [r7, #8]
    p_div = (uint32_t)((((SCU_PLL->USBPLLCON) & SCU_PLL_USBPLLCON_PDIV_Msk) >> SCU_PLL_USBPLLCON_PDIV_Pos) + 1UL);
 8001652:	4b0a      	ldr	r3, [pc, #40]	; (800167c <XMC_SCU_CLOCK_GetUsbPllClockFrequency+0x50>)
 8001654:	695b      	ldr	r3, [r3, #20]
 8001656:	0e1b      	lsrs	r3, r3, #24
 8001658:	f003 030f 	and.w	r3, r3, #15
 800165c:	3301      	adds	r3, #1
 800165e:	607b      	str	r3, [r7, #4]
    clock_frequency = (uint32_t)((clock_frequency * n_div)/ (uint32_t)(p_div * 2UL));
 8001660:	68fb      	ldr	r3, [r7, #12]
 8001662:	68ba      	ldr	r2, [r7, #8]
 8001664:	fb02 f203 	mul.w	r2, r2, r3
 8001668:	687b      	ldr	r3, [r7, #4]
 800166a:	005b      	lsls	r3, r3, #1
 800166c:	fbb2 f3f3 	udiv	r3, r2, r3
 8001670:	60fb      	str	r3, [r7, #12]
  }
  return (clock_frequency);
 8001672:	68fb      	ldr	r3, [r7, #12]
}
 8001674:	4618      	mov	r0, r3
 8001676:	3710      	adds	r7, #16
 8001678:	46bd      	mov	sp, r7
 800167a:	bd80      	pop	{r7, pc}
 800167c:	50004710 	.word	0x50004710

08001680 <XMC_SCU_CLOCK_GetCcuClockFrequency>:

/*
 * API to retrieve frequency of CCU clock frequency
 */
uint32_t XMC_SCU_CLOCK_GetCcuClockFrequency(void)
{
 8001680:	b580      	push	{r7, lr}
 8001682:	b082      	sub	sp, #8
 8001684:	af00      	add	r7, sp, #0
  uint32_t frequency = 0UL;
 8001686:	2300      	movs	r3, #0
 8001688:	607b      	str	r3, [r7, #4]
  frequency = XMC_SCU_CLOCK_GetSystemClockFrequency();
 800168a:	f7ff fb9d 	bl	8000dc8 <XMC_SCU_CLOCK_GetSystemClockFrequency>
 800168e:	6078      	str	r0, [r7, #4]
  
  return (uint32_t)(frequency >> ((uint32_t)((SCU_CLK->CCUCLKCR & SCU_CLK_CCUCLKCR_CCUDIV_Msk) >>
 8001690:	4b05      	ldr	r3, [pc, #20]	; (80016a8 <XMC_SCU_CLOCK_GetCcuClockFrequency+0x28>)
 8001692:	6a1b      	ldr	r3, [r3, #32]
 8001694:	f003 0301 	and.w	r3, r3, #1
 8001698:	687a      	ldr	r2, [r7, #4]
 800169a:	fa22 f303 	lsr.w	r3, r2, r3
                                              SCU_CLK_CCUCLKCR_CCUDIV_Pos)));
}
 800169e:	4618      	mov	r0, r3
 80016a0:	3708      	adds	r7, #8
 80016a2:	46bd      	mov	sp, r7
 80016a4:	bd80      	pop	{r7, pc}
 80016a6:	bf00      	nop
 80016a8:	50004600 	.word	0x50004600

080016ac <XMC_SCU_CLOCK_GetUsbClockFrequency>:

/*
 * API to retrieve USB and SDMMC clock frequency
 */
uint32_t XMC_SCU_CLOCK_GetUsbClockFrequency(void)
{
 80016ac:	b580      	push	{r7, lr}
 80016ae:	b082      	sub	sp, #8
 80016b0:	af00      	add	r7, sp, #0
  uint32_t frequency = 0UL;
 80016b2:	2300      	movs	r3, #0
 80016b4:	607b      	str	r3, [r7, #4]
  XMC_SCU_CLOCK_USBCLKSRC_t clksrc;

  clksrc = XMC_SCU_CLOCK_GetUsbClockSource();
 80016b6:	f7ff fb5b 	bl	8000d70 <XMC_SCU_CLOCK_GetUsbClockSource>
 80016ba:	6038      	str	r0, [r7, #0]

  if (clksrc == XMC_SCU_CLOCK_USBCLKSRC_SYSPLL)
 80016bc:	683b      	ldr	r3, [r7, #0]
 80016be:	f5b3 3f80 	cmp.w	r3, #65536	; 0x10000
 80016c2:	d103      	bne.n	80016cc <XMC_SCU_CLOCK_GetUsbClockFrequency+0x20>
  {
    frequency = XMC_SCU_CLOCK_GetSystemPllClockFrequency();
 80016c4:	f7ff ff5c 	bl	8001580 <XMC_SCU_CLOCK_GetSystemPllClockFrequency>
 80016c8:	6078      	str	r0, [r7, #4]
 80016ca:	e005      	b.n	80016d8 <XMC_SCU_CLOCK_GetUsbClockFrequency+0x2c>
  }
  else if (clksrc == XMC_SCU_CLOCK_USBCLKSRC_USBPLL)
 80016cc:	683b      	ldr	r3, [r7, #0]
 80016ce:	2b00      	cmp	r3, #0
 80016d0:	d102      	bne.n	80016d8 <XMC_SCU_CLOCK_GetUsbClockFrequency+0x2c>
  {
    frequency = XMC_SCU_CLOCK_GetUsbPllClockFrequency();
 80016d2:	f7ff ffab 	bl	800162c <XMC_SCU_CLOCK_GetUsbPllClockFrequency>
 80016d6:	6078      	str	r0, [r7, #4]
  }
  else
  {
  }

  return (uint32_t)(frequency / (((SCU_CLK->USBCLKCR & SCU_CLK_USBCLKCR_USBDIV_Msk) >>
 80016d8:	4b05      	ldr	r3, [pc, #20]	; (80016f0 <XMC_SCU_CLOCK_GetUsbClockFrequency+0x44>)
 80016da:	699b      	ldr	r3, [r3, #24]
 80016dc:	f003 0307 	and.w	r3, r3, #7
                                   SCU_CLK_USBCLKCR_USBDIV_Pos) + 1UL));
 80016e0:	3301      	adds	r3, #1
  return (uint32_t)(frequency / (((SCU_CLK->USBCLKCR & SCU_CLK_USBCLKCR_USBDIV_Msk) >>
 80016e2:	687a      	ldr	r2, [r7, #4]
 80016e4:	fbb2 f3f3 	udiv	r3, r2, r3
}
 80016e8:	4618      	mov	r0, r3
 80016ea:	3708      	adds	r7, #8
 80016ec:	46bd      	mov	sp, r7
 80016ee:	bd80      	pop	{r7, pc}
 80016f0:	50004600 	.word	0x50004600

080016f4 <XMC_SCU_CLOCK_GetEbuClockFrequency>:
#if defined(EBU)
/*
 * API to retrieve EBU clock frequency
 */
uint32_t XMC_SCU_CLOCK_GetEbuClockFrequency(void)
{
 80016f4:	b580      	push	{r7, lr}
 80016f6:	b082      	sub	sp, #8
 80016f8:	af00      	add	r7, sp, #0
  uint32_t frequency = XMC_SCU_CLOCK_GetSystemPllClockFrequency();
 80016fa:	f7ff ff41 	bl	8001580 <XMC_SCU_CLOCK_GetSystemPllClockFrequency>
 80016fe:	6078      	str	r0, [r7, #4]
  
  return (uint32_t)((frequency /(((SCU_CLK->EBUCLKCR & SCU_CLK_EBUCLKCR_EBUDIV_Msk) >>
 8001700:	4b05      	ldr	r3, [pc, #20]	; (8001718 <XMC_SCU_CLOCK_GetEbuClockFrequency+0x24>)
 8001702:	69db      	ldr	r3, [r3, #28]
 8001704:	f003 033f 	and.w	r3, r3, #63	; 0x3f
                                   SCU_CLK_EBUCLKCR_EBUDIV_Pos) + 1UL)));
 8001708:	3301      	adds	r3, #1
  return (uint32_t)((frequency /(((SCU_CLK->EBUCLKCR & SCU_CLK_EBUCLKCR_EBUDIV_Msk) >>
 800170a:	687a      	ldr	r2, [r7, #4]
 800170c:	fbb2 f3f3 	udiv	r3, r2, r3
}
 8001710:	4618      	mov	r0, r3
 8001712:	3708      	adds	r7, #8
 8001714:	46bd      	mov	sp, r7
 8001716:	bd80      	pop	{r7, pc}
 8001718:	50004600 	.word	0x50004600

0800171c <XMC_SCU_CLOCK_GetWdtClockFrequency>:

/*
 * API to retrieve WDT clock frequency
 */
uint32_t XMC_SCU_CLOCK_GetWdtClockFrequency(void)
{
 800171c:	b580      	push	{r7, lr}
 800171e:	b082      	sub	sp, #8
 8001720:	af00      	add	r7, sp, #0
  uint32_t frequency = 0UL;
 8001722:	2300      	movs	r3, #0
 8001724:	607b      	str	r3, [r7, #4]
  XMC_SCU_CLOCK_WDTCLKSRC_t clksrc;

  clksrc = XMC_SCU_CLOCK_GetWdtClockSource();
 8001726:	f7ff fb31 	bl	8000d8c <XMC_SCU_CLOCK_GetWdtClockSource>
 800172a:	6038      	str	r0, [r7, #0]

  if (clksrc == XMC_SCU_CLOCK_WDTCLKSRC_PLL)
 800172c:	683b      	ldr	r3, [r7, #0]
 800172e:	f5b3 3f00 	cmp.w	r3, #131072	; 0x20000
 8001732:	d103      	bne.n	800173c <XMC_SCU_CLOCK_GetWdtClockFrequency+0x20>
  {
    frequency = XMC_SCU_CLOCK_GetSystemPllClockFrequency();
 8001734:	f7ff ff24 	bl	8001580 <XMC_SCU_CLOCK_GetSystemPllClockFrequency>
 8001738:	6078      	str	r0, [r7, #4]
 800173a:	e00c      	b.n	8001756 <XMC_SCU_CLOCK_GetWdtClockFrequency+0x3a>
  }
  else if (clksrc == XMC_SCU_CLOCK_WDTCLKSRC_OFI)
 800173c:	683b      	ldr	r3, [r7, #0]
 800173e:	2b00      	cmp	r3, #0
 8001740:	d102      	bne.n	8001748 <XMC_SCU_CLOCK_GetWdtClockFrequency+0x2c>
  {
    frequency = OFI_FREQUENCY;
 8001742:	4b0a      	ldr	r3, [pc, #40]	; (800176c <XMC_SCU_CLOCK_GetWdtClockFrequency+0x50>)
 8001744:	607b      	str	r3, [r7, #4]
 8001746:	e006      	b.n	8001756 <XMC_SCU_CLOCK_GetWdtClockFrequency+0x3a>
  }
  else if (clksrc == XMC_SCU_CLOCK_WDTCLKSRC_STDBY)
 8001748:	683b      	ldr	r3, [r7, #0]
 800174a:	f5b3 3f80 	cmp.w	r3, #65536	; 0x10000
 800174e:	d102      	bne.n	8001756 <XMC_SCU_CLOCK_GetWdtClockFrequency+0x3a>
  {
    frequency = OSI_FREQUENCY;
 8001750:	f44f 4300 	mov.w	r3, #32768	; 0x8000
 8001754:	607b      	str	r3, [r7, #4]
  else
  {

  }

  return (uint32_t)((frequency / (((SCU_CLK->WDTCLKCR & SCU_CLK_WDTCLKCR_WDTDIV_Msk) >>
 8001756:	4b06      	ldr	r3, [pc, #24]	; (8001770 <XMC_SCU_CLOCK_GetWdtClockFrequency+0x54>)
 8001758:	6a5b      	ldr	r3, [r3, #36]	; 0x24
 800175a:	b2db      	uxtb	r3, r3
                                    SCU_CLK_WDTCLKCR_WDTDIV_Pos) + 1UL)));
 800175c:	3301      	adds	r3, #1
  return (uint32_t)((frequency / (((SCU_CLK->WDTCLKCR & SCU_CLK_WDTCLKCR_WDTDIV_Msk) >>
 800175e:	687a      	ldr	r2, [r7, #4]
 8001760:	fbb2 f3f3 	udiv	r3, r2, r3
}
 8001764:	4618      	mov	r0, r3
 8001766:	3708      	adds	r7, #8
 8001768:	46bd      	mov	sp, r7
 800176a:	bd80      	pop	{r7, pc}
 800176c:	016e3600 	.word	0x016e3600
 8001770:	50004600 	.word	0x50004600

08001774 <XMC_SCU_CLOCK_GetExternalOutputClockFrequency>:
/**
 * @brief API to retrieve EXTERNAL-OUT clock frequency
 * @retval Clock frequency
 */
uint32_t XMC_SCU_CLOCK_GetExternalOutputClockFrequency(void)
{
 8001774:	b580      	push	{r7, lr}
 8001776:	b082      	sub	sp, #8
 8001778:	af00      	add	r7, sp, #0
  uint32_t frequency = 0UL;
 800177a:	2300      	movs	r3, #0
 800177c:	607b      	str	r3, [r7, #4]
  XMC_SCU_CLOCK_EXTOUTCLKSRC_t clksrc;

  clksrc = XMC_SCU_CLOCK_GetExternalOutputClockSource();
 800177e:	f7ff fb13 	bl	8000da8 <XMC_SCU_CLOCK_GetExternalOutputClockSource>
 8001782:	4603      	mov	r3, r0
 8001784:	70fb      	strb	r3, [r7, #3]

  if (clksrc == XMC_SCU_CLOCK_EXTOUTCLKSRC_PLL)
 8001786:	78fb      	ldrb	r3, [r7, #3]
 8001788:	2b03      	cmp	r3, #3
 800178a:	d10d      	bne.n	80017a8 <XMC_SCU_CLOCK_GetExternalOutputClockFrequency+0x34>
  {
    frequency = XMC_SCU_CLOCK_GetSystemPllClockFrequency();
 800178c:	f7ff fef8 	bl	8001580 <XMC_SCU_CLOCK_GetSystemPllClockFrequency>
 8001790:	6078      	str	r0, [r7, #4]
    
    frequency = (uint32_t)((frequency / ((((SCU_CLK->EXTCLKCR) & SCU_CLK_EXTCLKCR_ECKDIV_Msk) >>
 8001792:	4b13      	ldr	r3, [pc, #76]	; (80017e0 <XMC_SCU_CLOCK_GetExternalOutputClockFrequency+0x6c>)
 8001794:	6a9b      	ldr	r3, [r3, #40]	; 0x28
 8001796:	0c1b      	lsrs	r3, r3, #16
 8001798:	f3c3 0308 	ubfx	r3, r3, #0, #9
                 SCU_CLK_EXTCLKCR_ECKDIV_Pos)+ 1UL)));
 800179c:	3301      	adds	r3, #1
    frequency = (uint32_t)((frequency / ((((SCU_CLK->EXTCLKCR) & SCU_CLK_EXTCLKCR_ECKDIV_Msk) >>
 800179e:	687a      	ldr	r2, [r7, #4]
 80017a0:	fbb2 f3f3 	udiv	r3, r2, r3
 80017a4:	607b      	str	r3, [r7, #4]
 80017a6:	e016      	b.n	80017d6 <XMC_SCU_CLOCK_GetExternalOutputClockFrequency+0x62>
  }
  else if (clksrc == XMC_SCU_CLOCK_EXTOUTCLKSRC_SYS)
 80017a8:	78fb      	ldrb	r3, [r7, #3]
 80017aa:	2b00      	cmp	r3, #0
 80017ac:	d103      	bne.n	80017b6 <XMC_SCU_CLOCK_GetExternalOutputClockFrequency+0x42>
  {
    frequency = XMC_SCU_CLOCK_GetSystemClockFrequency();
 80017ae:	f7ff fb0b 	bl	8000dc8 <XMC_SCU_CLOCK_GetSystemClockFrequency>
 80017b2:	6078      	str	r0, [r7, #4]
 80017b4:	e00f      	b.n	80017d6 <XMC_SCU_CLOCK_GetExternalOutputClockFrequency+0x62>
  }
  else if (clksrc == XMC_SCU_CLOCK_EXTOUTCLKSRC_USB)
 80017b6:	78fb      	ldrb	r3, [r7, #3]
 80017b8:	2b02      	cmp	r3, #2
 80017ba:	d10c      	bne.n	80017d6 <XMC_SCU_CLOCK_GetExternalOutputClockFrequency+0x62>
  {
    frequency = XMC_SCU_CLOCK_GetUsbPllClockFrequency();
 80017bc:	f7ff ff36 	bl	800162c <XMC_SCU_CLOCK_GetUsbPllClockFrequency>
 80017c0:	6078      	str	r0, [r7, #4]
    
    frequency = (uint32_t)((frequency / ((((SCU_CLK->EXTCLKCR) & SCU_CLK_EXTCLKCR_ECKDIV_Msk) >>
 80017c2:	4b07      	ldr	r3, [pc, #28]	; (80017e0 <XMC_SCU_CLOCK_GetExternalOutputClockFrequency+0x6c>)
 80017c4:	6a9b      	ldr	r3, [r3, #40]	; 0x28
 80017c6:	0c1b      	lsrs	r3, r3, #16
 80017c8:	f3c3 0308 	ubfx	r3, r3, #0, #9
                 SCU_CLK_EXTCLKCR_ECKDIV_Pos)+ 1UL)));
 80017cc:	3301      	adds	r3, #1
    frequency = (uint32_t)((frequency / ((((SCU_CLK->EXTCLKCR) & SCU_CLK_EXTCLKCR_ECKDIV_Msk) >>
 80017ce:	687a      	ldr	r2, [r7, #4]
 80017d0:	fbb2 f3f3 	udiv	r3, r2, r3
 80017d4:	607b      	str	r3, [r7, #4]
  else
  {

  }

  return (frequency);
 80017d6:	687b      	ldr	r3, [r7, #4]
}
 80017d8:	4618      	mov	r0, r3
 80017da:	3708      	adds	r7, #8
 80017dc:	46bd      	mov	sp, r7
 80017de:	bd80      	pop	{r7, pc}
 80017e0:	50004600 	.word	0x50004600

080017e4 <XMC_SCU_CLOCK_GetPeripheralClockFrequency>:

/*
 * API to retrieve clock frequency of peripherals on the peripheral bus using a shared functional clock
 */
uint32_t XMC_SCU_CLOCK_GetPeripheralClockFrequency(void)
{
 80017e4:	b580      	push	{r7, lr}
 80017e6:	af00      	add	r7, sp, #0
  return (uint32_t)(XMC_SCU_CLOCK_GetCpuClockFrequency() >>
 80017e8:	f7ff fb02 	bl	8000df0 <XMC_SCU_CLOCK_GetCpuClockFrequency>
 80017ec:	4602      	mov	r2, r0
         ((SCU_CLK->PBCLKCR & SCU_CLK_PBCLKCR_PBDIV_Msk) >> SCU_CLK_PBCLKCR_PBDIV_Pos));  
 80017ee:	4b04      	ldr	r3, [pc, #16]	; (8001800 <XMC_SCU_CLOCK_GetPeripheralClockFrequency+0x1c>)
 80017f0:	695b      	ldr	r3, [r3, #20]
 80017f2:	f003 0301 	and.w	r3, r3, #1
  return (uint32_t)(XMC_SCU_CLOCK_GetCpuClockFrequency() >>
 80017f6:	fa22 f303 	lsr.w	r3, r2, r3
}
 80017fa:	4618      	mov	r0, r3
 80017fc:	bd80      	pop	{r7, pc}
 80017fe:	bf00      	nop
 8001800:	50004600 	.word	0x50004600

08001804 <XMC_SCU_CLOCK_SetSystemClockSource>:

/* API to select fSYS */
void XMC_SCU_CLOCK_SetSystemClockSource(const XMC_SCU_CLOCK_SYSCLKSRC_t source)
{
 8001804:	b480      	push	{r7}
 8001806:	b083      	sub	sp, #12
 8001808:	af00      	add	r7, sp, #0
 800180a:	6078      	str	r0, [r7, #4]
  SCU_CLK->SYSCLKCR = (SCU_CLK->SYSCLKCR & ((uint32_t)~SCU_CLK_SYSCLKCR_SYSSEL_Msk)) |
 800180c:	4b06      	ldr	r3, [pc, #24]	; (8001828 <XMC_SCU_CLOCK_SetSystemClockSource+0x24>)
 800180e:	68db      	ldr	r3, [r3, #12]
 8001810:	f423 3280 	bic.w	r2, r3, #65536	; 0x10000
 8001814:	4904      	ldr	r1, [pc, #16]	; (8001828 <XMC_SCU_CLOCK_SetSystemClockSource+0x24>)
 8001816:	687b      	ldr	r3, [r7, #4]
 8001818:	4313      	orrs	r3, r2
 800181a:	60cb      	str	r3, [r1, #12]
                      ((uint32_t)source);
}
 800181c:	bf00      	nop
 800181e:	370c      	adds	r7, #12
 8001820:	46bd      	mov	sp, r7
 8001822:	f85d 7b04 	ldr.w	r7, [sp], #4
 8001826:	4770      	bx	lr
 8001828:	50004600 	.word	0x50004600

0800182c <XMC_SCU_CLOCK_SetUsbClockSource>:

/* API to select fUSB */
void XMC_SCU_CLOCK_SetUsbClockSource(const XMC_SCU_CLOCK_USBCLKSRC_t source)
{
 800182c:	b480      	push	{r7}
 800182e:	b083      	sub	sp, #12
 8001830:	af00      	add	r7, sp, #0
 8001832:	6078      	str	r0, [r7, #4]
  SCU_CLK->USBCLKCR = (SCU_CLK->USBCLKCR & ((uint32_t)~SCU_CLK_USBCLKCR_USBSEL_Msk)) |
 8001834:	4b06      	ldr	r3, [pc, #24]	; (8001850 <XMC_SCU_CLOCK_SetUsbClockSource+0x24>)
 8001836:	699b      	ldr	r3, [r3, #24]
 8001838:	f423 3280 	bic.w	r2, r3, #65536	; 0x10000
 800183c:	4904      	ldr	r1, [pc, #16]	; (8001850 <XMC_SCU_CLOCK_SetUsbClockSource+0x24>)
 800183e:	687b      	ldr	r3, [r7, #4]
 8001840:	4313      	orrs	r3, r2
 8001842:	618b      	str	r3, [r1, #24]
                      ((uint32_t)source);
}
 8001844:	bf00      	nop
 8001846:	370c      	adds	r7, #12
 8001848:	46bd      	mov	sp, r7
 800184a:	f85d 7b04 	ldr.w	r7, [sp], #4
 800184e:	4770      	bx	lr
 8001850:	50004600 	.word	0x50004600

08001854 <XMC_SCU_CLOCK_SetWdtClockSource>:

/* API to select fWDT */
void XMC_SCU_CLOCK_SetWdtClockSource(const XMC_SCU_CLOCK_WDTCLKSRC_t source)
{
 8001854:	b480      	push	{r7}
 8001856:	b083      	sub	sp, #12
 8001858:	af00      	add	r7, sp, #0
 800185a:	6078      	str	r0, [r7, #4]
  SCU_CLK->WDTCLKCR = (SCU_CLK->WDTCLKCR & ((uint32_t)~SCU_CLK_WDTCLKCR_WDTSEL_Msk)) |
 800185c:	4b06      	ldr	r3, [pc, #24]	; (8001878 <XMC_SCU_CLOCK_SetWdtClockSource+0x24>)
 800185e:	6a5b      	ldr	r3, [r3, #36]	; 0x24
 8001860:	f423 3240 	bic.w	r2, r3, #196608	; 0x30000
 8001864:	4904      	ldr	r1, [pc, #16]	; (8001878 <XMC_SCU_CLOCK_SetWdtClockSource+0x24>)
 8001866:	687b      	ldr	r3, [r7, #4]
 8001868:	4313      	orrs	r3, r2
 800186a:	624b      	str	r3, [r1, #36]	; 0x24
                      ((uint32_t)source);
}
 800186c:	bf00      	nop
 800186e:	370c      	adds	r7, #12
 8001870:	46bd      	mov	sp, r7
 8001872:	f85d 7b04 	ldr.w	r7, [sp], #4
 8001876:	4770      	bx	lr
 8001878:	50004600 	.word	0x50004600

0800187c <XMC_SCU_CLOCK_SetExternalOutputClockSource>:

/* API to select fEXT */
void XMC_SCU_CLOCK_SetExternalOutputClockSource(const XMC_SCU_CLOCK_EXTOUTCLKSRC_t source)
{
 800187c:	b480      	push	{r7}
 800187e:	b083      	sub	sp, #12
 8001880:	af00      	add	r7, sp, #0
 8001882:	4603      	mov	r3, r0
 8001884:	71fb      	strb	r3, [r7, #7]
  SCU_CLK->EXTCLKCR = (SCU_CLK->EXTCLKCR & ((uint32_t)~SCU_CLK_EXTCLKCR_ECKSEL_Msk)) |
 8001886:	4b07      	ldr	r3, [pc, #28]	; (80018a4 <XMC_SCU_CLOCK_SetExternalOutputClockSource+0x28>)
 8001888:	6a9b      	ldr	r3, [r3, #40]	; 0x28
 800188a:	f023 0203 	bic.w	r2, r3, #3
                      ((uint32_t)source);
 800188e:	79fb      	ldrb	r3, [r7, #7]
  SCU_CLK->EXTCLKCR = (SCU_CLK->EXTCLKCR & ((uint32_t)~SCU_CLK_EXTCLKCR_ECKSEL_Msk)) |
 8001890:	4904      	ldr	r1, [pc, #16]	; (80018a4 <XMC_SCU_CLOCK_SetExternalOutputClockSource+0x28>)
 8001892:	4313      	orrs	r3, r2
 8001894:	628b      	str	r3, [r1, #40]	; 0x28
}
 8001896:	bf00      	nop
 8001898:	370c      	adds	r7, #12
 800189a:	46bd      	mov	sp, r7
 800189c:	f85d 7b04 	ldr.w	r7, [sp], #4
 80018a0:	4770      	bx	lr
 80018a2:	bf00      	nop
 80018a4:	50004600 	.word	0x50004600

080018a8 <XMC_SCU_CLOCK_SetSystemPllClockSource>:

/* API to select fPLL */
void XMC_SCU_CLOCK_SetSystemPllClockSource(const XMC_SCU_CLOCK_SYSPLLCLKSRC_t source)
{
 80018a8:	b480      	push	{r7}
 80018aa:	b083      	sub	sp, #12
 80018ac:	af00      	add	r7, sp, #0
 80018ae:	4603      	mov	r3, r0
 80018b0:	80fb      	strh	r3, [r7, #6]
  /* Check input clock */
  if (source == XMC_SCU_CLOCK_SYSPLLCLKSRC_OSCHP) /* Select PLLClockSource */
 80018b2:	88fb      	ldrh	r3, [r7, #6]
 80018b4:	2b00      	cmp	r3, #0
 80018b6:	d108      	bne.n	80018ca <XMC_SCU_CLOCK_SetSystemPllClockSource+0x22>
  {
    SCU_PLL->PLLCON2 &= (uint32_t)~(SCU_PLL_PLLCON2_PINSEL_Msk | SCU_PLL_PLLCON2_K1INSEL_Msk);
 80018b8:	4b0b      	ldr	r3, [pc, #44]	; (80018e8 <XMC_SCU_CLOCK_SetSystemPllClockSource+0x40>)
 80018ba:	68db      	ldr	r3, [r3, #12]
 80018bc:	4a0a      	ldr	r2, [pc, #40]	; (80018e8 <XMC_SCU_CLOCK_SetSystemPllClockSource+0x40>)
 80018be:	f423 7380 	bic.w	r3, r3, #256	; 0x100
 80018c2:	f023 0301 	bic.w	r3, r3, #1
 80018c6:	60d3      	str	r3, [r2, #12]
  }
  else
  {
    SCU_PLL->PLLCON2 |= (uint32_t)(SCU_PLL_PLLCON2_PINSEL_Msk | SCU_PLL_PLLCON2_K1INSEL_Msk);
  }
}
 80018c8:	e007      	b.n	80018da <XMC_SCU_CLOCK_SetSystemPllClockSource+0x32>
    SCU_PLL->PLLCON2 |= (uint32_t)(SCU_PLL_PLLCON2_PINSEL_Msk | SCU_PLL_PLLCON2_K1INSEL_Msk);
 80018ca:	4b07      	ldr	r3, [pc, #28]	; (80018e8 <XMC_SCU_CLOCK_SetSystemPllClockSource+0x40>)
 80018cc:	68db      	ldr	r3, [r3, #12]
 80018ce:	4a06      	ldr	r2, [pc, #24]	; (80018e8 <XMC_SCU_CLOCK_SetSystemPllClockSource+0x40>)
 80018d0:	f443 7380 	orr.w	r3, r3, #256	; 0x100
 80018d4:	f043 0301 	orr.w	r3, r3, #1
 80018d8:	60d3      	str	r3, [r2, #12]
}
 80018da:	bf00      	nop
 80018dc:	370c      	adds	r7, #12
 80018de:	46bd      	mov	sp, r7
 80018e0:	f85d 7b04 	ldr.w	r7, [sp], #4
 80018e4:	4770      	bx	lr
 80018e6:	bf00      	nop
 80018e8:	50004710 	.word	0x50004710

080018ec <XMC_SCU_HIB_SetRtcClockSource>:

/* API to select fRTC */
void XMC_SCU_HIB_SetRtcClockSource(const XMC_SCU_HIB_RTCCLKSRC_t source)
{ 
 80018ec:	b480      	push	{r7}
 80018ee:	b083      	sub	sp, #12
 80018f0:	af00      	add	r7, sp, #0
 80018f2:	4603      	mov	r3, r0
 80018f4:	71fb      	strb	r3, [r7, #7]
  /* Wait until the update of HDCR register in hibernate domain is completed */
  while((SCU_GENERAL->MIRRSTS) & SCU_GENERAL_MIRRSTS_HDCR_Msk)
 80018f6:	bf00      	nop
 80018f8:	4b0a      	ldr	r3, [pc, #40]	; (8001924 <XMC_SCU_HIB_SetRtcClockSource+0x38>)
 80018fa:	f8d3 30c4 	ldr.w	r3, [r3, #196]	; 0xc4
 80018fe:	f003 0308 	and.w	r3, r3, #8
 8001902:	2b00      	cmp	r3, #0
 8001904:	d1f8      	bne.n	80018f8 <XMC_SCU_HIB_SetRtcClockSource+0xc>
  {
  }

  SCU_HIBERNATE->HDCR = (SCU_HIBERNATE->HDCR & ((uint32_t)~SCU_HIBERNATE_HDCR_RCS_Msk)) |
 8001906:	4b08      	ldr	r3, [pc, #32]	; (8001928 <XMC_SCU_HIB_SetRtcClockSource+0x3c>)
 8001908:	68db      	ldr	r3, [r3, #12]
 800190a:	f023 0240 	bic.w	r2, r3, #64	; 0x40
                        ((uint32_t)source);
 800190e:	79fb      	ldrb	r3, [r7, #7]
  SCU_HIBERNATE->HDCR = (SCU_HIBERNATE->HDCR & ((uint32_t)~SCU_HIBERNATE_HDCR_RCS_Msk)) |
 8001910:	4905      	ldr	r1, [pc, #20]	; (8001928 <XMC_SCU_HIB_SetRtcClockSource+0x3c>)
 8001912:	4313      	orrs	r3, r2
 8001914:	60cb      	str	r3, [r1, #12]
}
 8001916:	bf00      	nop
 8001918:	370c      	adds	r7, #12
 800191a:	46bd      	mov	sp, r7
 800191c:	f85d 7b04 	ldr.w	r7, [sp], #4
 8001920:	4770      	bx	lr
 8001922:	bf00      	nop
 8001924:	50004000 	.word	0x50004000
 8001928:	50004300 	.word	0x50004300

0800192c <XMC_SCU_HIB_SetStandbyClockSource>:

/* API to select fSTDBY */
void XMC_SCU_HIB_SetStandbyClockSource(const XMC_SCU_HIB_STDBYCLKSRC_t source)
{
 800192c:	b480      	push	{r7}
 800192e:	b083      	sub	sp, #12
 8001930:	af00      	add	r7, sp, #0
 8001932:	4603      	mov	r3, r0
 8001934:	71fb      	strb	r3, [r7, #7]
  while((SCU_GENERAL->MIRRSTS) & SCU_GENERAL_MIRRSTS_HDCR_Msk)
 8001936:	bf00      	nop
 8001938:	4b0a      	ldr	r3, [pc, #40]	; (8001964 <XMC_SCU_HIB_SetStandbyClockSource+0x38>)
 800193a:	f8d3 30c4 	ldr.w	r3, [r3, #196]	; 0xc4
 800193e:	f003 0308 	and.w	r3, r3, #8
 8001942:	2b00      	cmp	r3, #0
 8001944:	d1f8      	bne.n	8001938 <XMC_SCU_HIB_SetStandbyClockSource+0xc>
  {
    /* check SCU_MIRRSTS to ensure that no transfer over serial interface is pending */
  }
  SCU_HIBERNATE->HDCR = (SCU_HIBERNATE->HDCR & ((uint32_t)~SCU_HIBERNATE_HDCR_STDBYSEL_Msk)) |
 8001946:	4b08      	ldr	r3, [pc, #32]	; (8001968 <XMC_SCU_HIB_SetStandbyClockSource+0x3c>)
 8001948:	68db      	ldr	r3, [r3, #12]
 800194a:	f023 0280 	bic.w	r2, r3, #128	; 0x80
                        ((uint32_t)source);
 800194e:	79fb      	ldrb	r3, [r7, #7]
  SCU_HIBERNATE->HDCR = (SCU_HIBERNATE->HDCR & ((uint32_t)~SCU_HIBERNATE_HDCR_STDBYSEL_Msk)) |
 8001950:	4905      	ldr	r1, [pc, #20]	; (8001968 <XMC_SCU_HIB_SetStandbyClockSource+0x3c>)
 8001952:	4313      	orrs	r3, r2
 8001954:	60cb      	str	r3, [r1, #12]
}
 8001956:	bf00      	nop
 8001958:	370c      	adds	r7, #12
 800195a:	46bd      	mov	sp, r7
 800195c:	f85d 7b04 	ldr.w	r7, [sp], #4
 8001960:	4770      	bx	lr
 8001962:	bf00      	nop
 8001964:	50004000 	.word	0x50004000
 8001968:	50004300 	.word	0x50004300

0800196c <XMC_SCU_CLOCK_SetSystemClockDivider>:

/* API to program the divider placed between fsys and its parent */
void XMC_SCU_CLOCK_SetSystemClockDivider(const uint32_t divider)
{
 800196c:	b480      	push	{r7}
 800196e:	b083      	sub	sp, #12
 8001970:	af00      	add	r7, sp, #0
 8001972:	6078      	str	r0, [r7, #4]
  XMC_ASSERT("XMC_SCU_CLOCK_SetSystemClockDivider:Wrong clock divider value",
              (divider <= (SCU_CLK_SYSCLKCR_SYSDIV_Msk + 1UL)) );

  SCU_CLK->SYSCLKCR = (SCU_CLK->SYSCLKCR & ((uint32_t)~SCU_CLK_SYSCLKCR_SYSDIV_Msk)) |
 8001974:	4b07      	ldr	r3, [pc, #28]	; (8001994 <XMC_SCU_CLOCK_SetSystemClockDivider+0x28>)
 8001976:	68db      	ldr	r3, [r3, #12]
 8001978:	f023 02ff 	bic.w	r2, r3, #255	; 0xff
                      ((uint32_t)(((uint32_t)(divider - 1UL)) << SCU_CLK_SYSCLKCR_SYSDIV_Pos));
 800197c:	687b      	ldr	r3, [r7, #4]
 800197e:	3b01      	subs	r3, #1
  SCU_CLK->SYSCLKCR = (SCU_CLK->SYSCLKCR & ((uint32_t)~SCU_CLK_SYSCLKCR_SYSDIV_Msk)) |
 8001980:	4904      	ldr	r1, [pc, #16]	; (8001994 <XMC_SCU_CLOCK_SetSystemClockDivider+0x28>)
 8001982:	4313      	orrs	r3, r2
 8001984:	60cb      	str	r3, [r1, #12]
}
 8001986:	bf00      	nop
 8001988:	370c      	adds	r7, #12
 800198a:	46bd      	mov	sp, r7
 800198c:	f85d 7b04 	ldr.w	r7, [sp], #4
 8001990:	4770      	bx	lr
 8001992:	bf00      	nop
 8001994:	50004600 	.word	0x50004600

08001998 <XMC_SCU_CLOCK_SetCcuClockDivider>:

/* API to program the divider placed between fccu and its parent */
void XMC_SCU_CLOCK_SetCcuClockDivider(const uint32_t divider)
{
 8001998:	b480      	push	{r7}
 800199a:	b083      	sub	sp, #12
 800199c:	af00      	add	r7, sp, #0
 800199e:	6078      	str	r0, [r7, #4]
  XMC_ASSERT("XMC_SCU_CLOCK_SetCapcomClockDivider:Wrong clock divider value", (divider <= 2UL) );

  SCU_CLK->CCUCLKCR = (SCU_CLK->CCUCLKCR & ((uint32_t)~SCU_CLK_CCUCLKCR_CCUDIV_Msk)) |
 80019a0:	4b07      	ldr	r3, [pc, #28]	; (80019c0 <XMC_SCU_CLOCK_SetCcuClockDivider+0x28>)
 80019a2:	6a1b      	ldr	r3, [r3, #32]
 80019a4:	f023 0201 	bic.w	r2, r3, #1
                      (uint32_t)((uint32_t)(divider - 1UL) << SCU_CLK_CCUCLKCR_CCUDIV_Pos);
 80019a8:	687b      	ldr	r3, [r7, #4]
 80019aa:	3b01      	subs	r3, #1
  SCU_CLK->CCUCLKCR = (SCU_CLK->CCUCLKCR & ((uint32_t)~SCU_CLK_CCUCLKCR_CCUDIV_Msk)) |
 80019ac:	4904      	ldr	r1, [pc, #16]	; (80019c0 <XMC_SCU_CLOCK_SetCcuClockDivider+0x28>)
 80019ae:	4313      	orrs	r3, r2
 80019b0:	620b      	str	r3, [r1, #32]
}
 80019b2:	bf00      	nop
 80019b4:	370c      	adds	r7, #12
 80019b6:	46bd      	mov	sp, r7
 80019b8:	f85d 7b04 	ldr.w	r7, [sp], #4
 80019bc:	4770      	bx	lr
 80019be:	bf00      	nop
 80019c0:	50004600 	.word	0x50004600

080019c4 <XMC_SCU_CLOCK_SetCpuClockDivider>:

/* API to program the divider placed between fcpu and its parent */
void XMC_SCU_CLOCK_SetCpuClockDivider(const uint32_t divider)
{
 80019c4:	b480      	push	{r7}
 80019c6:	b083      	sub	sp, #12
 80019c8:	af00      	add	r7, sp, #0
 80019ca:	6078      	str	r0, [r7, #4]
  XMC_ASSERT("XMC_SCU_CLOCK_SetCpuClockDivider:Wrong clock divider value", (divider <= 2UL) );

  SCU_CLK->CPUCLKCR = (SCU_CLK->CPUCLKCR & ((uint32_t)~SCU_CLK_CPUCLKCR_CPUDIV_Msk)) |
 80019cc:	4b07      	ldr	r3, [pc, #28]	; (80019ec <XMC_SCU_CLOCK_SetCpuClockDivider+0x28>)
 80019ce:	691b      	ldr	r3, [r3, #16]
 80019d0:	f023 0201 	bic.w	r2, r3, #1
                      (uint32_t)((uint32_t)(divider - 1UL) << SCU_CLK_CPUCLKCR_CPUDIV_Pos);
 80019d4:	687b      	ldr	r3, [r7, #4]
 80019d6:	3b01      	subs	r3, #1
  SCU_CLK->CPUCLKCR = (SCU_CLK->CPUCLKCR & ((uint32_t)~SCU_CLK_CPUCLKCR_CPUDIV_Msk)) |
 80019d8:	4904      	ldr	r1, [pc, #16]	; (80019ec <XMC_SCU_CLOCK_SetCpuClockDivider+0x28>)
 80019da:	4313      	orrs	r3, r2
 80019dc:	610b      	str	r3, [r1, #16]
}
 80019de:	bf00      	nop
 80019e0:	370c      	adds	r7, #12
 80019e2:	46bd      	mov	sp, r7
 80019e4:	f85d 7b04 	ldr.w	r7, [sp], #4
 80019e8:	4770      	bx	lr
 80019ea:	bf00      	nop
 80019ec:	50004600 	.word	0x50004600

080019f0 <XMC_SCU_CLOCK_SetPeripheralClockDivider>:

/* API to program the divider placed between fperiph and its parent */
void XMC_SCU_CLOCK_SetPeripheralClockDivider(const uint32_t divider)
{
 80019f0:	b480      	push	{r7}
 80019f2:	b083      	sub	sp, #12
 80019f4:	af00      	add	r7, sp, #0
 80019f6:	6078      	str	r0, [r7, #4]
  XMC_ASSERT("XMC_SCU_CLOCK_SetPeripheralClockDivider:Wrong clock divider value", (divider <= 2UL) );

  SCU_CLK->PBCLKCR = (SCU_CLK->PBCLKCR & ((uint32_t)~SCU_CLK_PBCLKCR_PBDIV_Msk)) |
 80019f8:	4b07      	ldr	r3, [pc, #28]	; (8001a18 <XMC_SCU_CLOCK_SetPeripheralClockDivider+0x28>)
 80019fa:	695b      	ldr	r3, [r3, #20]
 80019fc:	f023 0201 	bic.w	r2, r3, #1
                     ((uint32_t)((uint32_t)(divider - 1UL) << SCU_CLK_PBCLKCR_PBDIV_Pos));
 8001a00:	687b      	ldr	r3, [r7, #4]
 8001a02:	3b01      	subs	r3, #1
  SCU_CLK->PBCLKCR = (SCU_CLK->PBCLKCR & ((uint32_t)~SCU_CLK_PBCLKCR_PBDIV_Msk)) |
 8001a04:	4904      	ldr	r1, [pc, #16]	; (8001a18 <XMC_SCU_CLOCK_SetPeripheralClockDivider+0x28>)
 8001a06:	4313      	orrs	r3, r2
 8001a08:	614b      	str	r3, [r1, #20]
}
 8001a0a:	bf00      	nop
 8001a0c:	370c      	adds	r7, #12
 8001a0e:	46bd      	mov	sp, r7
 8001a10:	f85d 7b04 	ldr.w	r7, [sp], #4
 8001a14:	4770      	bx	lr
 8001a16:	bf00      	nop
 8001a18:	50004600 	.word	0x50004600

08001a1c <XMC_SCU_CLOCK_SetUsbClockDivider>:

/* API to program the divider placed between fsdmmc and its parent */
void XMC_SCU_CLOCK_SetUsbClockDivider(const uint32_t divider)
{
 8001a1c:	b480      	push	{r7}
 8001a1e:	b083      	sub	sp, #12
 8001a20:	af00      	add	r7, sp, #0
 8001a22:	6078      	str	r0, [r7, #4]
  XMC_ASSERT("XMC_SCU_CLOCK_SetSdmmcClockDivider:Wrong clock divider value",
              (divider <= (SCU_CLK_USBCLKCR_USBDIV_Msk + 1UL)) );

  SCU_CLK->USBCLKCR = (SCU_CLK->USBCLKCR & ((uint32_t)~SCU_CLK_USBCLKCR_USBDIV_Msk)) |
 8001a24:	4b07      	ldr	r3, [pc, #28]	; (8001a44 <XMC_SCU_CLOCK_SetUsbClockDivider+0x28>)
 8001a26:	699b      	ldr	r3, [r3, #24]
 8001a28:	f023 0207 	bic.w	r2, r3, #7
                      (uint32_t)((uint32_t)(divider - 1UL) << SCU_CLK_USBCLKCR_USBDIV_Pos); 
 8001a2c:	687b      	ldr	r3, [r7, #4]
 8001a2e:	3b01      	subs	r3, #1
  SCU_CLK->USBCLKCR = (SCU_CLK->USBCLKCR & ((uint32_t)~SCU_CLK_USBCLKCR_USBDIV_Msk)) |
 8001a30:	4904      	ldr	r1, [pc, #16]	; (8001a44 <XMC_SCU_CLOCK_SetUsbClockDivider+0x28>)
 8001a32:	4313      	orrs	r3, r2
 8001a34:	618b      	str	r3, [r1, #24]
}
 8001a36:	bf00      	nop
 8001a38:	370c      	adds	r7, #12
 8001a3a:	46bd      	mov	sp, r7
 8001a3c:	f85d 7b04 	ldr.w	r7, [sp], #4
 8001a40:	4770      	bx	lr
 8001a42:	bf00      	nop
 8001a44:	50004600 	.word	0x50004600

08001a48 <XMC_SCU_CLOCK_SetEbuClockDivider>:

#if defined(EBU)
/* API to program the divider placed between febu and its parent */
void XMC_SCU_CLOCK_SetEbuClockDivider(const uint32_t divider)
{
 8001a48:	b480      	push	{r7}
 8001a4a:	b083      	sub	sp, #12
 8001a4c:	af00      	add	r7, sp, #0
 8001a4e:	6078      	str	r0, [r7, #4]
  XMC_ASSERT("XMC_SCU_CLOCK_SetEbuClockDivider:Wrong clock divider value",
              (divider <= (SCU_CLK_EBUCLKCR_EBUDIV_Msk + 1UL) ) );

  SCU_CLK->EBUCLKCR = (SCU_CLK->EBUCLKCR & ((uint32_t)~SCU_CLK_EBUCLKCR_EBUDIV_Msk)) |
 8001a50:	4b07      	ldr	r3, [pc, #28]	; (8001a70 <XMC_SCU_CLOCK_SetEbuClockDivider+0x28>)
 8001a52:	69db      	ldr	r3, [r3, #28]
 8001a54:	f023 023f 	bic.w	r2, r3, #63	; 0x3f
                      (uint32_t)(((uint32_t)(divider - 1UL)) << SCU_CLK_EBUCLKCR_EBUDIV_Pos);
 8001a58:	687b      	ldr	r3, [r7, #4]
 8001a5a:	3b01      	subs	r3, #1
  SCU_CLK->EBUCLKCR = (SCU_CLK->EBUCLKCR & ((uint32_t)~SCU_CLK_EBUCLKCR_EBUDIV_Msk)) |
 8001a5c:	4904      	ldr	r1, [pc, #16]	; (8001a70 <XMC_SCU_CLOCK_SetEbuClockDivider+0x28>)
 8001a5e:	4313      	orrs	r3, r2
 8001a60:	61cb      	str	r3, [r1, #28]
}
 8001a62:	bf00      	nop
 8001a64:	370c      	adds	r7, #12
 8001a66:	46bd      	mov	sp, r7
 8001a68:	f85d 7b04 	ldr.w	r7, [sp], #4
 8001a6c:	4770      	bx	lr
 8001a6e:	bf00      	nop
 8001a70:	50004600 	.word	0x50004600

08001a74 <XMC_SCU_CLOCK_SetWdtClockDivider>:
#endif

/* API to program the divider placed between fwdt and its parent */
void XMC_SCU_CLOCK_SetWdtClockDivider(const uint32_t divider)
{
 8001a74:	b480      	push	{r7}
 8001a76:	b083      	sub	sp, #12
 8001a78:	af00      	add	r7, sp, #0
 8001a7a:	6078      	str	r0, [r7, #4]
  XMC_ASSERT("XMC_SCU_CLOCK_SetWdtClockDivider:Wrong clock divider value",
              (divider <= (SCU_CLK_WDTCLKCR_WDTDIV_Msk + 1UL) ) );

  SCU_CLK->WDTCLKCR = (SCU_CLK->WDTCLKCR & ((uint32_t)~SCU_CLK_WDTCLKCR_WDTDIV_Msk)) |
 8001a7c:	4b07      	ldr	r3, [pc, #28]	; (8001a9c <XMC_SCU_CLOCK_SetWdtClockDivider+0x28>)
 8001a7e:	6a5b      	ldr	r3, [r3, #36]	; 0x24
 8001a80:	f023 02ff 	bic.w	r2, r3, #255	; 0xff
                      (uint32_t)(((uint32_t)(divider - 1UL)) << SCU_CLK_WDTCLKCR_WDTDIV_Pos);
 8001a84:	687b      	ldr	r3, [r7, #4]
 8001a86:	3b01      	subs	r3, #1
  SCU_CLK->WDTCLKCR = (SCU_CLK->WDTCLKCR & ((uint32_t)~SCU_CLK_WDTCLKCR_WDTDIV_Msk)) |
 8001a88:	4904      	ldr	r1, [pc, #16]	; (8001a9c <XMC_SCU_CLOCK_SetWdtClockDivider+0x28>)
 8001a8a:	4313      	orrs	r3, r2
 8001a8c:	624b      	str	r3, [r1, #36]	; 0x24
}
 8001a8e:	bf00      	nop
 8001a90:	370c      	adds	r7, #12
 8001a92:	46bd      	mov	sp, r7
 8001a94:	f85d 7b04 	ldr.w	r7, [sp], #4
 8001a98:	4770      	bx	lr
 8001a9a:	bf00      	nop
 8001a9c:	50004600 	.word	0x50004600

08001aa0 <XMC_SCU_CLOCK_SetExternalOutputClockDivider>:

/* API to program the divider placed between fext and its parent */
void XMC_SCU_CLOCK_SetExternalOutputClockDivider(const uint32_t divider)
{
 8001aa0:	b480      	push	{r7}
 8001aa2:	b083      	sub	sp, #12
 8001aa4:	af00      	add	r7, sp, #0
 8001aa6:	6078      	str	r0, [r7, #4]
  XMC_ASSERT("XMC_SCU_CLOCK_SetExternalOutputClockDivider:Wrong clock divider value",
              (divider <= (SCU_CLK_EXTCLKCR_ECKDIV_Msk + 1UL) ) );

  SCU_CLK->EXTCLKCR = (SCU_CLK->EXTCLKCR & ((uint32_t)~SCU_CLK_EXTCLKCR_ECKDIV_Msk)) |
 8001aa8:	4b08      	ldr	r3, [pc, #32]	; (8001acc <XMC_SCU_CLOCK_SetExternalOutputClockDivider+0x2c>)
 8001aaa:	6a9b      	ldr	r3, [r3, #40]	; 0x28
 8001aac:	f023 73ff 	bic.w	r3, r3, #33423360	; 0x1fe0000
 8001ab0:	f423 3380 	bic.w	r3, r3, #65536	; 0x10000
                      (uint32_t)(((uint32_t)(divider - 1UL)) << SCU_CLK_EXTCLKCR_ECKDIV_Pos);
 8001ab4:	687a      	ldr	r2, [r7, #4]
 8001ab6:	3a01      	subs	r2, #1
 8001ab8:	0412      	lsls	r2, r2, #16
  SCU_CLK->EXTCLKCR = (SCU_CLK->EXTCLKCR & ((uint32_t)~SCU_CLK_EXTCLKCR_ECKDIV_Msk)) |
 8001aba:	4904      	ldr	r1, [pc, #16]	; (8001acc <XMC_SCU_CLOCK_SetExternalOutputClockDivider+0x2c>)
 8001abc:	4313      	orrs	r3, r2
 8001abe:	628b      	str	r3, [r1, #40]	; 0x28
}
 8001ac0:	bf00      	nop
 8001ac2:	370c      	adds	r7, #12
 8001ac4:	46bd      	mov	sp, r7
 8001ac6:	f85d 7b04 	ldr.w	r7, [sp], #4
 8001aca:	4770      	bx	lr
 8001acc:	50004600 	.word	0x50004600

08001ad0 <XMC_SCU_CLOCK_EnableClock>:
}
#endif

/* API to enable a given module clock */
void XMC_SCU_CLOCK_EnableClock(const XMC_SCU_CLOCK_t clock)
{
 8001ad0:	b480      	push	{r7}
 8001ad2:	b083      	sub	sp, #12
 8001ad4:	af00      	add	r7, sp, #0
 8001ad6:	4603      	mov	r3, r0
 8001ad8:	71fb      	strb	r3, [r7, #7]
  SCU_CLK->CLKSET = ((uint32_t)clock);
 8001ada:	4a04      	ldr	r2, [pc, #16]	; (8001aec <XMC_SCU_CLOCK_EnableClock+0x1c>)
 8001adc:	79fb      	ldrb	r3, [r7, #7]
 8001ade:	6053      	str	r3, [r2, #4]
}
 8001ae0:	bf00      	nop
 8001ae2:	370c      	adds	r7, #12
 8001ae4:	46bd      	mov	sp, r7
 8001ae6:	f85d 7b04 	ldr.w	r7, [sp], #4
 8001aea:	4770      	bx	lr
 8001aec:	50004600 	.word	0x50004600

08001af0 <XMC_SCU_CLOCK_DisableClock>:

/* API to disable a given module clock */
void XMC_SCU_CLOCK_DisableClock(const XMC_SCU_CLOCK_t clock)
{
 8001af0:	b480      	push	{r7}
 8001af2:	b083      	sub	sp, #12
 8001af4:	af00      	add	r7, sp, #0
 8001af6:	4603      	mov	r3, r0
 8001af8:	71fb      	strb	r3, [r7, #7]
  SCU_CLK->CLKCLR = ((uint32_t)clock);
 8001afa:	4a04      	ldr	r2, [pc, #16]	; (8001b0c <XMC_SCU_CLOCK_DisableClock+0x1c>)
 8001afc:	79fb      	ldrb	r3, [r7, #7]
 8001afe:	6093      	str	r3, [r2, #8]
}
 8001b00:	bf00      	nop
 8001b02:	370c      	adds	r7, #12
 8001b04:	46bd      	mov	sp, r7
 8001b06:	f85d 7b04 	ldr.w	r7, [sp], #4
 8001b0a:	4770      	bx	lr
 8001b0c:	50004600 	.word	0x50004600

08001b10 <XMC_SCU_CLOCK_IsClockEnabled>:

/* API to determine if module clock of the given peripheral is enabled */
bool XMC_SCU_CLOCK_IsClockEnabled(const XMC_SCU_CLOCK_t clock)
{
 8001b10:	b480      	push	{r7}
 8001b12:	b083      	sub	sp, #12
 8001b14:	af00      	add	r7, sp, #0
 8001b16:	4603      	mov	r3, r0
 8001b18:	71fb      	strb	r3, [r7, #7]
  return (bool)(SCU_CLK->CLKSTAT & ((uint32_t)clock));
 8001b1a:	4b07      	ldr	r3, [pc, #28]	; (8001b38 <XMC_SCU_CLOCK_IsClockEnabled+0x28>)
 8001b1c:	681a      	ldr	r2, [r3, #0]
 8001b1e:	79fb      	ldrb	r3, [r7, #7]
 8001b20:	4013      	ands	r3, r2
 8001b22:	2b00      	cmp	r3, #0
 8001b24:	bf14      	ite	ne
 8001b26:	2301      	movne	r3, #1
 8001b28:	2300      	moveq	r3, #0
 8001b2a:	b2db      	uxtb	r3, r3
}
 8001b2c:	4618      	mov	r0, r3
 8001b2e:	370c      	adds	r7, #12
 8001b30:	46bd      	mov	sp, r7
 8001b32:	f85d 7b04 	ldr.w	r7, [sp], #4
 8001b36:	4770      	bx	lr
 8001b38:	50004600 	.word	0x50004600

08001b3c <XMC_SCU_POWER_GetEVR13Voltage>:
  return ((*(uint32_t *)(&(SCU_CLK->CGATSTAT0) + (index * 3U)) & mask) != 0U);
}
#endif

float XMC_SCU_POWER_GetEVR13Voltage(void)
{
 8001b3c:	b480      	push	{r7}
 8001b3e:	af00      	add	r7, sp, #0
  return (SCU_POWER->EVRVADCSTAT & SCU_POWER_EVRVADCSTAT_VADC13V_Msk) * XMC_SCU_POWER_LSB13V;
 8001b40:	4b08      	ldr	r3, [pc, #32]	; (8001b64 <XMC_SCU_POWER_GetEVR13Voltage+0x28>)
 8001b42:	695b      	ldr	r3, [r3, #20]
 8001b44:	b2db      	uxtb	r3, r3
 8001b46:	ee07 3a90 	vmov	s15, r3
 8001b4a:	eef8 7a67 	vcvt.f32.u32	s15, s15
 8001b4e:	ed9f 7a06 	vldr	s14, [pc, #24]	; 8001b68 <XMC_SCU_POWER_GetEVR13Voltage+0x2c>
 8001b52:	ee67 7a87 	vmul.f32	s15, s15, s14
 8001b56:	ee17 3a90 	vmov	r3, s15
}
 8001b5a:	4618      	mov	r0, r3
 8001b5c:	46bd      	mov	sp, r7
 8001b5e:	f85d 7b04 	ldr.w	r7, [sp], #4
 8001b62:	4770      	bx	lr
 8001b64:	50004200 	.word	0x50004200
 8001b68:	3bbe0ded 	.word	0x3bbe0ded

08001b6c <XMC_SCU_POWER_GetEVR33Voltage>:

float XMC_SCU_POWER_GetEVR33Voltage(void)
{
 8001b6c:	b480      	push	{r7}
 8001b6e:	af00      	add	r7, sp, #0
  return ((SCU_POWER->EVRVADCSTAT & SCU_POWER_EVRVADCSTAT_VADC33V_Msk) >> SCU_POWER_EVRVADCSTAT_VADC33V_Pos) * XMC_SCU_POWER_LSB33V;
 8001b70:	4b09      	ldr	r3, [pc, #36]	; (8001b98 <XMC_SCU_POWER_GetEVR33Voltage+0x2c>)
 8001b72:	695b      	ldr	r3, [r3, #20]
 8001b74:	0a1b      	lsrs	r3, r3, #8
 8001b76:	b2db      	uxtb	r3, r3
 8001b78:	ee07 3a90 	vmov	s15, r3
 8001b7c:	eef8 7a67 	vcvt.f32.u32	s15, s15
 8001b80:	ed9f 7a06 	vldr	s14, [pc, #24]	; 8001b9c <XMC_SCU_POWER_GetEVR33Voltage+0x30>
 8001b84:	ee67 7a87 	vmul.f32	s15, s15, s14
 8001b88:	ee17 3a90 	vmov	r3, s15
}
 8001b8c:	4618      	mov	r0, r3
 8001b8e:	46bd      	mov	sp, r7
 8001b90:	f85d 7b04 	ldr.w	r7, [sp], #4
 8001b94:	4770      	bx	lr
 8001b96:	bf00      	nop
 8001b98:	50004200 	.word	0x50004200
 8001b9c:	3cb851ec 	.word	0x3cb851ec

08001ba0 <XMC_SCU_CLOCK_EnableUsbPll>:

/* API to enable USB PLL for USB clock */
void XMC_SCU_CLOCK_EnableUsbPll(void)
{
 8001ba0:	b480      	push	{r7}
 8001ba2:	af00      	add	r7, sp, #0
  SCU_PLL->USBPLLCON &= (uint32_t)~(SCU_PLL_USBPLLCON_VCOPWD_Msk | SCU_PLL_USBPLLCON_PLLPWD_Msk);
 8001ba4:	4b06      	ldr	r3, [pc, #24]	; (8001bc0 <XMC_SCU_CLOCK_EnableUsbPll+0x20>)
 8001ba6:	695b      	ldr	r3, [r3, #20]
 8001ba8:	4a05      	ldr	r2, [pc, #20]	; (8001bc0 <XMC_SCU_CLOCK_EnableUsbPll+0x20>)
 8001baa:	f423 3380 	bic.w	r3, r3, #65536	; 0x10000
 8001bae:	f023 0302 	bic.w	r3, r3, #2
 8001bb2:	6153      	str	r3, [r2, #20]
}
 8001bb4:	bf00      	nop
 8001bb6:	46bd      	mov	sp, r7
 8001bb8:	f85d 7b04 	ldr.w	r7, [sp], #4
 8001bbc:	4770      	bx	lr
 8001bbe:	bf00      	nop
 8001bc0:	50004710 	.word	0x50004710

08001bc4 <XMC_SCU_CLOCK_DisableUsbPll>:

/* API to disable USB PLL for USB clock */
void XMC_SCU_CLOCK_DisableUsbPll(void)
{
 8001bc4:	b480      	push	{r7}
 8001bc6:	af00      	add	r7, sp, #0
  SCU_PLL->USBPLLCON |= (uint32_t)(SCU_PLL_USBPLLCON_VCOPWD_Msk | SCU_PLL_USBPLLCON_PLLPWD_Msk);
 8001bc8:	4b06      	ldr	r3, [pc, #24]	; (8001be4 <XMC_SCU_CLOCK_DisableUsbPll+0x20>)
 8001bca:	695b      	ldr	r3, [r3, #20]
 8001bcc:	4a05      	ldr	r2, [pc, #20]	; (8001be4 <XMC_SCU_CLOCK_DisableUsbPll+0x20>)
 8001bce:	f443 3380 	orr.w	r3, r3, #65536	; 0x10000
 8001bd2:	f043 0302 	orr.w	r3, r3, #2
 8001bd6:	6153      	str	r3, [r2, #20]
}
 8001bd8:	bf00      	nop
 8001bda:	46bd      	mov	sp, r7
 8001bdc:	f85d 7b04 	ldr.w	r7, [sp], #4
 8001be0:	4770      	bx	lr
 8001be2:	bf00      	nop
 8001be4:	50004710 	.word	0x50004710

08001be8 <XMC_SCU_CLOCK_StartUsbPll>:

/* API to configure USB PLL */
void XMC_SCU_CLOCK_StartUsbPll(uint32_t pdiv, uint32_t ndiv)
{
 8001be8:	b480      	push	{r7}
 8001bea:	b083      	sub	sp, #12
 8001bec:	af00      	add	r7, sp, #0
 8001bee:	6078      	str	r0, [r7, #4]
 8001bf0:	6039      	str	r1, [r7, #0]
  /* Go to bypass the USB PLL */
  SCU_PLL->USBPLLCON |= (uint32_t)SCU_PLL_USBPLLCON_VCOBYP_Msk;
 8001bf2:	4b1a      	ldr	r3, [pc, #104]	; (8001c5c <XMC_SCU_CLOCK_StartUsbPll+0x74>)
 8001bf4:	695b      	ldr	r3, [r3, #20]
 8001bf6:	4a19      	ldr	r2, [pc, #100]	; (8001c5c <XMC_SCU_CLOCK_StartUsbPll+0x74>)
 8001bf8:	f043 0301 	orr.w	r3, r3, #1
 8001bfc:	6153      	str	r3, [r2, #20]

  /* disconnect Oscillator from USB PLL */
  SCU_PLL->USBPLLCON |= (uint32_t)SCU_PLL_USBPLLCON_FINDIS_Msk;
 8001bfe:	4b17      	ldr	r3, [pc, #92]	; (8001c5c <XMC_SCU_CLOCK_StartUsbPll+0x74>)
 8001c00:	695b      	ldr	r3, [r3, #20]
 8001c02:	4a16      	ldr	r2, [pc, #88]	; (8001c5c <XMC_SCU_CLOCK_StartUsbPll+0x74>)
 8001c04:	f043 0310 	orr.w	r3, r3, #16
 8001c08:	6153      	str	r3, [r2, #20]

  /* Setup Divider settings for USB PLL */
  SCU_PLL->USBPLLCON = (uint32_t)((uint32_t)((ndiv -1U) << SCU_PLL_USBPLLCON_NDIV_Pos) |
 8001c0a:	683b      	ldr	r3, [r7, #0]
 8001c0c:	3b01      	subs	r3, #1
 8001c0e:	021a      	lsls	r2, r3, #8
                       (uint32_t)((pdiv - 1U) << SCU_PLL_USBPLLCON_PDIV_Pos));
 8001c10:	687b      	ldr	r3, [r7, #4]
 8001c12:	3b01      	subs	r3, #1
 8001c14:	061b      	lsls	r3, r3, #24
  SCU_PLL->USBPLLCON = (uint32_t)((uint32_t)((ndiv -1U) << SCU_PLL_USBPLLCON_NDIV_Pos) |
 8001c16:	4911      	ldr	r1, [pc, #68]	; (8001c5c <XMC_SCU_CLOCK_StartUsbPll+0x74>)
 8001c18:	4313      	orrs	r3, r2
 8001c1a:	614b      	str	r3, [r1, #20]

  /* Set OSCDISCDIS */
  SCU_PLL->USBPLLCON |= (uint32_t)SCU_PLL_USBPLLCON_OSCDISCDIS_Msk;
 8001c1c:	4b0f      	ldr	r3, [pc, #60]	; (8001c5c <XMC_SCU_CLOCK_StartUsbPll+0x74>)
 8001c1e:	695b      	ldr	r3, [r3, #20]
 8001c20:	4a0e      	ldr	r2, [pc, #56]	; (8001c5c <XMC_SCU_CLOCK_StartUsbPll+0x74>)
 8001c22:	f043 0340 	orr.w	r3, r3, #64	; 0x40
 8001c26:	6153      	str	r3, [r2, #20]

  /* connect Oscillator to USB PLL */
  SCU_PLL->USBPLLCON &= (uint32_t)~SCU_PLL_USBPLLCON_FINDIS_Msk;
 8001c28:	4b0c      	ldr	r3, [pc, #48]	; (8001c5c <XMC_SCU_CLOCK_StartUsbPll+0x74>)
 8001c2a:	695b      	ldr	r3, [r3, #20]
 8001c2c:	4a0b      	ldr	r2, [pc, #44]	; (8001c5c <XMC_SCU_CLOCK_StartUsbPll+0x74>)
 8001c2e:	f023 0310 	bic.w	r3, r3, #16
 8001c32:	6153      	str	r3, [r2, #20]

  /* restart PLL Lock detection */
  SCU_PLL->USBPLLCON |= (uint32_t)SCU_PLL_USBPLLCON_RESLD_Msk;
 8001c34:	4b09      	ldr	r3, [pc, #36]	; (8001c5c <XMC_SCU_CLOCK_StartUsbPll+0x74>)
 8001c36:	695b      	ldr	r3, [r3, #20]
 8001c38:	4a08      	ldr	r2, [pc, #32]	; (8001c5c <XMC_SCU_CLOCK_StartUsbPll+0x74>)
 8001c3a:	f443 2380 	orr.w	r3, r3, #262144	; 0x40000
 8001c3e:	6153      	str	r3, [r2, #20]

  while ((SCU_PLL->USBPLLSTAT & SCU_PLL_USBPLLSTAT_VCOLOCK_Msk) == 0U)
 8001c40:	bf00      	nop
 8001c42:	4b06      	ldr	r3, [pc, #24]	; (8001c5c <XMC_SCU_CLOCK_StartUsbPll+0x74>)
 8001c44:	691b      	ldr	r3, [r3, #16]
 8001c46:	f003 0304 	and.w	r3, r3, #4
 8001c4a:	2b00      	cmp	r3, #0
 8001c4c:	d0f9      	beq.n	8001c42 <XMC_SCU_CLOCK_StartUsbPll+0x5a>
  {
    /* wait for PLL Lock */
  }

}
 8001c4e:	bf00      	nop
 8001c50:	370c      	adds	r7, #12
 8001c52:	46bd      	mov	sp, r7
 8001c54:	f85d 7b04 	ldr.w	r7, [sp], #4
 8001c58:	4770      	bx	lr
 8001c5a:	bf00      	nop
 8001c5c:	50004710 	.word	0x50004710

08001c60 <XMC_SCU_CLOCK_StopUsbPll>:

/* API to disable USB PLL operation */
void XMC_SCU_CLOCK_StopUsbPll(void)
{
 8001c60:	b480      	push	{r7}
 8001c62:	af00      	add	r7, sp, #0
  SCU_PLL->USBPLLCON = (uint32_t)(SCU_PLL_USBPLLCON_VCOPWD_Msk | SCU_PLL_USBPLLCON_PLLPWD_Msk |
 8001c64:	4b03      	ldr	r3, [pc, #12]	; (8001c74 <XMC_SCU_CLOCK_StopUsbPll+0x14>)
 8001c66:	4a04      	ldr	r2, [pc, #16]	; (8001c78 <XMC_SCU_CLOCK_StopUsbPll+0x18>)
 8001c68:	615a      	str	r2, [r3, #20]
                                  SCU_PLL_USBPLLCON_VCOBYP_Msk);
}
 8001c6a:	bf00      	nop
 8001c6c:	46bd      	mov	sp, r7
 8001c6e:	f85d 7b04 	ldr.w	r7, [sp], #4
 8001c72:	4770      	bx	lr
 8001c74:	50004710 	.word	0x50004710
 8001c78:	00010003 	.word	0x00010003

08001c7c <XMC_SCU_CLOCK_SetBackupClockCalibrationMode>:

/* API to onfigure the calibration mode for internal oscillator */
void XMC_SCU_CLOCK_SetBackupClockCalibrationMode(XMC_SCU_CLOCK_FOFI_CALIBRATION_MODE_t mode)
{
 8001c7c:	b580      	push	{r7, lr}
 8001c7e:	b082      	sub	sp, #8
 8001c80:	af00      	add	r7, sp, #0
 8001c82:	4603      	mov	r3, r0
 8001c84:	71fb      	strb	r3, [r7, #7]
  /* Enable factory calibration based trimming */
  SCU_PLL->PLLCON0 |= (uint32_t)SCU_PLL_PLLCON0_FOTR_Msk;
 8001c86:	4b0f      	ldr	r3, [pc, #60]	; (8001cc4 <XMC_SCU_CLOCK_SetBackupClockCalibrationMode+0x48>)
 8001c88:	685b      	ldr	r3, [r3, #4]
 8001c8a:	4a0e      	ldr	r2, [pc, #56]	; (8001cc4 <XMC_SCU_CLOCK_SetBackupClockCalibrationMode+0x48>)
 8001c8c:	f443 1380 	orr.w	r3, r3, #1048576	; 0x100000
 8001c90:	6053      	str	r3, [r2, #4]

  if (mode == XMC_SCU_CLOCK_FOFI_CALIBRATION_MODE_AUTOMATIC)
 8001c92:	79fb      	ldrb	r3, [r7, #7]
 8001c94:	2b01      	cmp	r3, #1
 8001c96:	d10e      	bne.n	8001cb6 <XMC_SCU_CLOCK_SetBackupClockCalibrationMode+0x3a>
  {
    /* Disable factory calibration based trimming */
    SCU_PLL->PLLCON0 &= (uint32_t)~SCU_PLL_PLLCON0_FOTR_Msk;
 8001c98:	4b0a      	ldr	r3, [pc, #40]	; (8001cc4 <XMC_SCU_CLOCK_SetBackupClockCalibrationMode+0x48>)
 8001c9a:	685b      	ldr	r3, [r3, #4]
 8001c9c:	4a09      	ldr	r2, [pc, #36]	; (8001cc4 <XMC_SCU_CLOCK_SetBackupClockCalibrationMode+0x48>)
 8001c9e:	f423 1380 	bic.w	r3, r3, #1048576	; 0x100000
 8001ca2:	6053      	str	r3, [r2, #4]
    XMC_SCU_lDelay(100UL);
 8001ca4:	2064      	movs	r0, #100	; 0x64
 8001ca6:	f7ff f8bb 	bl	8000e20 <XMC_SCU_lDelay>

    /* Enable automatic calibration */
    SCU_PLL->PLLCON0 |= (uint32_t)SCU_PLL_PLLCON0_AOTREN_Msk;
 8001caa:	4b06      	ldr	r3, [pc, #24]	; (8001cc4 <XMC_SCU_CLOCK_SetBackupClockCalibrationMode+0x48>)
 8001cac:	685b      	ldr	r3, [r3, #4]
 8001cae:	4a05      	ldr	r2, [pc, #20]	; (8001cc4 <XMC_SCU_CLOCK_SetBackupClockCalibrationMode+0x48>)
 8001cb0:	f443 2300 	orr.w	r3, r3, #524288	; 0x80000
 8001cb4:	6053      	str	r3, [r2, #4]
  }

  XMC_SCU_lDelay(100UL);
 8001cb6:	2064      	movs	r0, #100	; 0x64
 8001cb8:	f7ff f8b2 	bl	8000e20 <XMC_SCU_lDelay>
}
 8001cbc:	bf00      	nop
 8001cbe:	3708      	adds	r7, #8
 8001cc0:	46bd      	mov	sp, r7
 8001cc2:	bd80      	pop	{r7, pc}
 8001cc4:	50004710 	.word	0x50004710

08001cc8 <XMC_SCU_POWER_EnableUsb>:



/* API to enable USB Phy and comparator */
void XMC_SCU_POWER_EnableUsb(void)
{
 8001cc8:	b480      	push	{r7}
 8001cca:	af00      	add	r7, sp, #0
#if defined(USB_OTG_SUPPORTED)
  SCU_POWER->PWRSET = (uint32_t)(SCU_POWER_PWRSET_USBOTGEN_Msk | SCU_POWER_PWRSET_USBPHYPDQ_Msk);
 8001ccc:	4b04      	ldr	r3, [pc, #16]	; (8001ce0 <XMC_SCU_POWER_EnableUsb+0x18>)
 8001cce:	f44f 3240 	mov.w	r2, #196608	; 0x30000
 8001cd2:	605a      	str	r2, [r3, #4]
#else
  SCU_POWER->PWRSET = (uint32_t)SCU_POWER_PWRSET_USBPHYPDQ_Msk;
#endif
}
 8001cd4:	bf00      	nop
 8001cd6:	46bd      	mov	sp, r7
 8001cd8:	f85d 7b04 	ldr.w	r7, [sp], #4
 8001cdc:	4770      	bx	lr
 8001cde:	bf00      	nop
 8001ce0:	50004200 	.word	0x50004200

08001ce4 <XMC_SCU_POWER_DisableUsb>:

/* API to power down USB Phy and comparator */
void XMC_SCU_POWER_DisableUsb(void)
{
 8001ce4:	b480      	push	{r7}
 8001ce6:	af00      	add	r7, sp, #0
#if defined(USB_OTG_SUPPORTED)
  SCU_POWER->PWRCLR = (uint32_t)(SCU_POWER_PWRCLR_USBOTGEN_Msk | SCU_POWER_PWRSET_USBPHYPDQ_Msk);
 8001ce8:	4b04      	ldr	r3, [pc, #16]	; (8001cfc <XMC_SCU_POWER_DisableUsb+0x18>)
 8001cea:	f44f 3240 	mov.w	r2, #196608	; 0x30000
 8001cee:	609a      	str	r2, [r3, #8]
#else
  SCU_POWER->PWRCLR = (uint32_t)SCU_POWER_PWRCLR_USBPHYPDQ_Msk;
#endif    
}
 8001cf0:	bf00      	nop
 8001cf2:	46bd      	mov	sp, r7
 8001cf4:	f85d 7b04 	ldr.w	r7, [sp], #4
 8001cf8:	4770      	bx	lr
 8001cfa:	bf00      	nop
 8001cfc:	50004200 	.word	0x50004200

08001d00 <XMC_SCU_CLOCK_IsUsbPllLocked>:

/* API to check USB PLL is locked or not */
bool XMC_SCU_CLOCK_IsUsbPllLocked(void)
{
 8001d00:	b480      	push	{r7}
 8001d02:	af00      	add	r7, sp, #0
  return (bool)((SCU_PLL->USBPLLSTAT & SCU_PLL_USBPLLSTAT_VCOLOCK_Msk) != 0UL);
 8001d04:	4b06      	ldr	r3, [pc, #24]	; (8001d20 <XMC_SCU_CLOCK_IsUsbPllLocked+0x20>)
 8001d06:	691b      	ldr	r3, [r3, #16]
 8001d08:	f003 0304 	and.w	r3, r3, #4
 8001d0c:	2b00      	cmp	r3, #0
 8001d0e:	bf14      	ite	ne
 8001d10:	2301      	movne	r3, #1
 8001d12:	2300      	moveq	r3, #0
 8001d14:	b2db      	uxtb	r3, r3
}
 8001d16:	4618      	mov	r0, r3
 8001d18:	46bd      	mov	sp, r7
 8001d1a:	f85d 7b04 	ldr.w	r7, [sp], #4
 8001d1e:	4770      	bx	lr
 8001d20:	50004710 	.word	0x50004710

08001d24 <XMC_SCU_HIB_EnableHibernateDomain>:

/* API to power up the hibernation domain */
void XMC_SCU_HIB_EnableHibernateDomain(void)
{
 8001d24:	b480      	push	{r7}
 8001d26:	af00      	add	r7, sp, #0
  /* Power up HIB domain if and only if it is currently powered down */
  if((SCU_POWER->PWRSTAT & SCU_POWER_PWRSTAT_HIBEN_Msk) == 0UL)
 8001d28:	4b12      	ldr	r3, [pc, #72]	; (8001d74 <XMC_SCU_HIB_EnableHibernateDomain+0x50>)
 8001d2a:	681b      	ldr	r3, [r3, #0]
 8001d2c:	f003 0301 	and.w	r3, r3, #1
 8001d30:	2b00      	cmp	r3, #0
 8001d32:	d109      	bne.n	8001d48 <XMC_SCU_HIB_EnableHibernateDomain+0x24>
  {
    SCU_POWER->PWRSET = (uint32_t)SCU_POWER_PWRSET_HIB_Msk;
 8001d34:	4b0f      	ldr	r3, [pc, #60]	; (8001d74 <XMC_SCU_HIB_EnableHibernateDomain+0x50>)
 8001d36:	2201      	movs	r2, #1
 8001d38:	605a      	str	r2, [r3, #4]
    
    while((SCU_POWER->PWRSTAT & SCU_POWER_PWRSTAT_HIBEN_Msk) == 0UL)
 8001d3a:	bf00      	nop
 8001d3c:	4b0d      	ldr	r3, [pc, #52]	; (8001d74 <XMC_SCU_HIB_EnableHibernateDomain+0x50>)
 8001d3e:	681b      	ldr	r3, [r3, #0]
 8001d40:	f003 0301 	and.w	r3, r3, #1
 8001d44:	2b00      	cmp	r3, #0
 8001d46:	d0f9      	beq.n	8001d3c <XMC_SCU_HIB_EnableHibernateDomain+0x18>
      /* wait until HIB domain is enabled */
    }    
  }
  
  /* Remove the reset only if HIB domain were in a state of reset */
  if((SCU_RESET->RSTSTAT) & SCU_RESET_RSTSTAT_HIBRS_Msk)
 8001d48:	4b0b      	ldr	r3, [pc, #44]	; (8001d78 <XMC_SCU_HIB_EnableHibernateDomain+0x54>)
 8001d4a:	681b      	ldr	r3, [r3, #0]
 8001d4c:	f403 7300 	and.w	r3, r3, #512	; 0x200
 8001d50:	2b00      	cmp	r3, #0
 8001d52:	d00a      	beq.n	8001d6a <XMC_SCU_HIB_EnableHibernateDomain+0x46>
  {
    SCU_RESET->RSTCLR = (uint32_t)SCU_RESET_RSTCLR_HIBRS_Msk;
 8001d54:	4b08      	ldr	r3, [pc, #32]	; (8001d78 <XMC_SCU_HIB_EnableHibernateDomain+0x54>)
 8001d56:	f44f 7200 	mov.w	r2, #512	; 0x200
 8001d5a:	609a      	str	r2, [r3, #8]
    while((SCU_RESET->RSTSTAT & SCU_RESET_RSTSTAT_HIBRS_Msk) != 0UL)
 8001d5c:	bf00      	nop
 8001d5e:	4b06      	ldr	r3, [pc, #24]	; (8001d78 <XMC_SCU_HIB_EnableHibernateDomain+0x54>)
 8001d60:	681b      	ldr	r3, [r3, #0]
 8001d62:	f403 7300 	and.w	r3, r3, #512	; 0x200
 8001d66:	2b00      	cmp	r3, #0
 8001d68:	d1f9      	bne.n	8001d5e <XMC_SCU_HIB_EnableHibernateDomain+0x3a>
    {
      /* wait until HIB domain is enabled */
    }
  }
}
 8001d6a:	bf00      	nop
 8001d6c:	46bd      	mov	sp, r7
 8001d6e:	f85d 7b04 	ldr.w	r7, [sp], #4
 8001d72:	4770      	bx	lr
 8001d74:	50004200 	.word	0x50004200
 8001d78:	50004400 	.word	0x50004400

08001d7c <XMC_SCU_HIB_DisableHibernateDomain>:

/* API to power down the hibernation domain */
void XMC_SCU_HIB_DisableHibernateDomain(void)
{
 8001d7c:	b480      	push	{r7}
 8001d7e:	af00      	add	r7, sp, #0
  /* Disable hibernate domain */   
  SCU_POWER->PWRCLR = (uint32_t)SCU_POWER_PWRCLR_HIB_Msk;
 8001d80:	4b05      	ldr	r3, [pc, #20]	; (8001d98 <XMC_SCU_HIB_DisableHibernateDomain+0x1c>)
 8001d82:	2201      	movs	r2, #1
 8001d84:	609a      	str	r2, [r3, #8]
  /* Reset of hibernate domain reset */  
  SCU_RESET->RSTSET = (uint32_t)SCU_RESET_RSTSET_HIBRS_Msk;
 8001d86:	4b05      	ldr	r3, [pc, #20]	; (8001d9c <XMC_SCU_HIB_DisableHibernateDomain+0x20>)
 8001d88:	f44f 7200 	mov.w	r2, #512	; 0x200
 8001d8c:	605a      	str	r2, [r3, #4]
}
 8001d8e:	bf00      	nop
 8001d90:	46bd      	mov	sp, r7
 8001d92:	f85d 7b04 	ldr.w	r7, [sp], #4
 8001d96:	4770      	bx	lr
 8001d98:	50004200 	.word	0x50004200
 8001d9c:	50004400 	.word	0x50004400

08001da0 <XMC_SCU_HIB_IsHibernateDomainEnabled>:

/* API to check the hibernation domain is enabled or not */
bool XMC_SCU_HIB_IsHibernateDomainEnabled(void)
{
 8001da0:	b480      	push	{r7}
 8001da2:	af00      	add	r7, sp, #0
  return ((bool)(SCU_POWER->PWRSTAT & SCU_POWER_PWRSTAT_HIBEN_Msk) && 
 8001da4:	4b0b      	ldr	r3, [pc, #44]	; (8001dd4 <XMC_SCU_HIB_IsHibernateDomainEnabled+0x34>)
 8001da6:	681b      	ldr	r3, [r3, #0]
 8001da8:	f003 0301 	and.w	r3, r3, #1
 8001dac:	2b00      	cmp	r3, #0
 8001dae:	d007      	beq.n	8001dc0 <XMC_SCU_HIB_IsHibernateDomainEnabled+0x20>
          !(bool)(SCU_RESET->RSTSTAT & SCU_RESET_RSTSTAT_HIBRS_Msk));
 8001db0:	4b09      	ldr	r3, [pc, #36]	; (8001dd8 <XMC_SCU_HIB_IsHibernateDomainEnabled+0x38>)
 8001db2:	681b      	ldr	r3, [r3, #0]
 8001db4:	f403 7300 	and.w	r3, r3, #512	; 0x200
  return ((bool)(SCU_POWER->PWRSTAT & SCU_POWER_PWRSTAT_HIBEN_Msk) && 
 8001db8:	2b00      	cmp	r3, #0
 8001dba:	d101      	bne.n	8001dc0 <XMC_SCU_HIB_IsHibernateDomainEnabled+0x20>
 8001dbc:	2301      	movs	r3, #1
 8001dbe:	e000      	b.n	8001dc2 <XMC_SCU_HIB_IsHibernateDomainEnabled+0x22>
 8001dc0:	2300      	movs	r3, #0
 8001dc2:	f003 0301 	and.w	r3, r3, #1
 8001dc6:	b2db      	uxtb	r3, r3
}
 8001dc8:	4618      	mov	r0, r3
 8001dca:	46bd      	mov	sp, r7
 8001dcc:	f85d 7b04 	ldr.w	r7, [sp], #4
 8001dd0:	4770      	bx	lr
 8001dd2:	bf00      	nop
 8001dd4:	50004200 	.word	0x50004200
 8001dd8:	50004400 	.word	0x50004400

08001ddc <XMC_SCU_HIB_EnableInternalSlowClock>:

/* API to enable internal slow clock - fOSI (32.768kHz) in hibernate domain */
void XMC_SCU_HIB_EnableInternalSlowClock(void)
{
 8001ddc:	b480      	push	{r7}
 8001dde:	af00      	add	r7, sp, #0
  while((SCU_GENERAL->MIRRSTS) & SCU_GENERAL_MIRRSTS_OSCSICTRL_Msk)
 8001de0:	bf00      	nop
 8001de2:	4b09      	ldr	r3, [pc, #36]	; (8001e08 <XMC_SCU_HIB_EnableInternalSlowClock+0x2c>)
 8001de4:	f8d3 30c4 	ldr.w	r3, [r3, #196]	; 0xc4
 8001de8:	f003 0320 	and.w	r3, r3, #32
 8001dec:	2b00      	cmp	r3, #0
 8001dee:	d1f8      	bne.n	8001de2 <XMC_SCU_HIB_EnableInternalSlowClock+0x6>
  {
    /* Wait until OSCSICTRL register in hibernate domain is ready to accept a write */  
  }
  SCU_HIBERNATE->OSCSICTRL &= (uint32_t)~(SCU_HIBERNATE_OSCSICTRL_PWD_Msk);
 8001df0:	4b06      	ldr	r3, [pc, #24]	; (8001e0c <XMC_SCU_HIB_EnableInternalSlowClock+0x30>)
 8001df2:	695b      	ldr	r3, [r3, #20]
 8001df4:	4a05      	ldr	r2, [pc, #20]	; (8001e0c <XMC_SCU_HIB_EnableInternalSlowClock+0x30>)
 8001df6:	f023 0301 	bic.w	r3, r3, #1
 8001dfa:	6153      	str	r3, [r2, #20]
}
 8001dfc:	bf00      	nop
 8001dfe:	46bd      	mov	sp, r7
 8001e00:	f85d 7b04 	ldr.w	r7, [sp], #4
 8001e04:	4770      	bx	lr
 8001e06:	bf00      	nop
 8001e08:	50004000 	.word	0x50004000
 8001e0c:	50004300 	.word	0x50004300

08001e10 <XMC_SCU_HIB_DisableInternalSlowClock>:

/* API to disable internal slow clock - fOSI (32.768kHz) in hibernate domain */
void XMC_SCU_HIB_DisableInternalSlowClock(void)
{
 8001e10:	b480      	push	{r7}
 8001e12:	af00      	add	r7, sp, #0
  while((SCU_GENERAL->MIRRSTS) & SCU_GENERAL_MIRRSTS_OSCSICTRL_Msk)
 8001e14:	bf00      	nop
 8001e16:	4b09      	ldr	r3, [pc, #36]	; (8001e3c <XMC_SCU_HIB_DisableInternalSlowClock+0x2c>)
 8001e18:	f8d3 30c4 	ldr.w	r3, [r3, #196]	; 0xc4
 8001e1c:	f003 0320 	and.w	r3, r3, #32
 8001e20:	2b00      	cmp	r3, #0
 8001e22:	d1f8      	bne.n	8001e16 <XMC_SCU_HIB_DisableInternalSlowClock+0x6>
  {
    /* Wait until OSCSICTRL register in hibernate domain is ready to accept a write */  
  }
  SCU_HIBERNATE->OSCSICTRL |= (uint32_t)SCU_HIBERNATE_OSCSICTRL_PWD_Msk;
 8001e24:	4b06      	ldr	r3, [pc, #24]	; (8001e40 <XMC_SCU_HIB_DisableInternalSlowClock+0x30>)
 8001e26:	695b      	ldr	r3, [r3, #20]
 8001e28:	4a05      	ldr	r2, [pc, #20]	; (8001e40 <XMC_SCU_HIB_DisableInternalSlowClock+0x30>)
 8001e2a:	f043 0301 	orr.w	r3, r3, #1
 8001e2e:	6153      	str	r3, [r2, #20]
}
 8001e30:	bf00      	nop
 8001e32:	46bd      	mov	sp, r7
 8001e34:	f85d 7b04 	ldr.w	r7, [sp], #4
 8001e38:	4770      	bx	lr
 8001e3a:	bf00      	nop
 8001e3c:	50004000 	.word	0x50004000
 8001e40:	50004300 	.word	0x50004300

08001e44 <XMC_SCU_HIB_ClearEventStatus>:

void XMC_SCU_HIB_ClearEventStatus(int32_t event)
{
 8001e44:	b480      	push	{r7}
 8001e46:	b083      	sub	sp, #12
 8001e48:	af00      	add	r7, sp, #0
 8001e4a:	6078      	str	r0, [r7, #4]
  while((SCU_GENERAL->MIRRSTS) & SCU_GENERAL_MIRRSTS_HDCLR_Msk)
 8001e4c:	bf00      	nop
 8001e4e:	4b08      	ldr	r3, [pc, #32]	; (8001e70 <XMC_SCU_HIB_ClearEventStatus+0x2c>)
 8001e50:	f8d3 30c4 	ldr.w	r3, [r3, #196]	; 0xc4
 8001e54:	f003 0302 	and.w	r3, r3, #2
 8001e58:	2b00      	cmp	r3, #0
 8001e5a:	d1f8      	bne.n	8001e4e <XMC_SCU_HIB_ClearEventStatus+0xa>
  {
    /* Wait until HDCLR register in hibernate domain is ready to accept a write */  
  }
  SCU_HIBERNATE->HDCLR = event;
 8001e5c:	4a05      	ldr	r2, [pc, #20]	; (8001e74 <XMC_SCU_HIB_ClearEventStatus+0x30>)
 8001e5e:	687b      	ldr	r3, [r7, #4]
 8001e60:	6053      	str	r3, [r2, #4]
}
 8001e62:	bf00      	nop
 8001e64:	370c      	adds	r7, #12
 8001e66:	46bd      	mov	sp, r7
 8001e68:	f85d 7b04 	ldr.w	r7, [sp], #4
 8001e6c:	4770      	bx	lr
 8001e6e:	bf00      	nop
 8001e70:	50004000 	.word	0x50004000
 8001e74:	50004300 	.word	0x50004300

08001e78 <XMC_SCU_HIB_TriggerEvent>:

void XMC_SCU_HIB_TriggerEvent(int32_t event)
{
 8001e78:	b480      	push	{r7}
 8001e7a:	b083      	sub	sp, #12
 8001e7c:	af00      	add	r7, sp, #0
 8001e7e:	6078      	str	r0, [r7, #4]
  while((SCU_GENERAL->MIRRSTS) & SCU_GENERAL_MIRRSTS_HDSET_Msk)
 8001e80:	bf00      	nop
 8001e82:	4b08      	ldr	r3, [pc, #32]	; (8001ea4 <XMC_SCU_HIB_TriggerEvent+0x2c>)
 8001e84:	f8d3 30c4 	ldr.w	r3, [r3, #196]	; 0xc4
 8001e88:	f003 0304 	and.w	r3, r3, #4
 8001e8c:	2b00      	cmp	r3, #0
 8001e8e:	d1f8      	bne.n	8001e82 <XMC_SCU_HIB_TriggerEvent+0xa>
  {
    /* Wait until HDSET register in hibernate domain is ready to accept a write */    
  }
  SCU_HIBERNATE->HDSET = event;
 8001e90:	4a05      	ldr	r2, [pc, #20]	; (8001ea8 <XMC_SCU_HIB_TriggerEvent+0x30>)
 8001e92:	687b      	ldr	r3, [r7, #4]
 8001e94:	6093      	str	r3, [r2, #8]
}
 8001e96:	bf00      	nop
 8001e98:	370c      	adds	r7, #12
 8001e9a:	46bd      	mov	sp, r7
 8001e9c:	f85d 7b04 	ldr.w	r7, [sp], #4
 8001ea0:	4770      	bx	lr
 8001ea2:	bf00      	nop
 8001ea4:	50004000 	.word	0x50004000
 8001ea8:	50004300 	.word	0x50004300

08001eac <XMC_SCU_HIB_EnableEvent>:

void XMC_SCU_HIB_EnableEvent(int32_t event)
{
 8001eac:	b480      	push	{r7}
 8001eae:	b083      	sub	sp, #12
 8001eb0:	af00      	add	r7, sp, #0
 8001eb2:	6078      	str	r0, [r7, #4]
  event = ((event & XMC_SCU_HIB_EVENT_LPAC_HIB_IO_1_POSEDGE) << (SCU_HIBERNATE_HDCR_AHIBIO1HI_Pos - SCU_HIBERNATE_HDSTAT_AHIBIO1PEV_Pos)) | (event & (uint32_t)~XMC_SCU_HIB_EVENT_LPAC_HIB_IO_1_POSEDGE);
  event = ((event & XMC_SCU_HIB_EVENT_LPAC_HIB_IO_1_NEGEDGE) << (SCU_HIBERNATE_HDCR_AHIBIO1LO_Pos - SCU_HIBERNATE_HDSTAT_AHIBIO1NEV_Pos)) | (event & (uint32_t)~XMC_SCU_HIB_EVENT_LPAC_HIB_IO_1_NEGEDGE);
#endif
#endif

  while((SCU_GENERAL->MIRRSTS) & SCU_GENERAL_MIRRSTS_HDCR_Msk)
 8001eb4:	bf00      	nop
 8001eb6:	4b09      	ldr	r3, [pc, #36]	; (8001edc <XMC_SCU_HIB_EnableEvent+0x30>)
 8001eb8:	f8d3 30c4 	ldr.w	r3, [r3, #196]	; 0xc4
 8001ebc:	f003 0308 	and.w	r3, r3, #8
 8001ec0:	2b00      	cmp	r3, #0
 8001ec2:	d1f8      	bne.n	8001eb6 <XMC_SCU_HIB_EnableEvent+0xa>
  {
    /* Wait until HDCR register in hibernate domain is ready to accept a write */    
  }
  SCU_HIBERNATE->HDCR |= event;
 8001ec4:	4b06      	ldr	r3, [pc, #24]	; (8001ee0 <XMC_SCU_HIB_EnableEvent+0x34>)
 8001ec6:	68da      	ldr	r2, [r3, #12]
 8001ec8:	687b      	ldr	r3, [r7, #4]
 8001eca:	4905      	ldr	r1, [pc, #20]	; (8001ee0 <XMC_SCU_HIB_EnableEvent+0x34>)
 8001ecc:	4313      	orrs	r3, r2
 8001ece:	60cb      	str	r3, [r1, #12]
}
 8001ed0:	bf00      	nop
 8001ed2:	370c      	adds	r7, #12
 8001ed4:	46bd      	mov	sp, r7
 8001ed6:	f85d 7b04 	ldr.w	r7, [sp], #4
 8001eda:	4770      	bx	lr
 8001edc:	50004000 	.word	0x50004000
 8001ee0:	50004300 	.word	0x50004300

08001ee4 <XMC_SCU_HIB_DisableEvent>:

void XMC_SCU_HIB_DisableEvent(int32_t event)
{
 8001ee4:	b480      	push	{r7}
 8001ee6:	b083      	sub	sp, #12
 8001ee8:	af00      	add	r7, sp, #0
 8001eea:	6078      	str	r0, [r7, #4]
  event = ((event & XMC_SCU_HIB_EVENT_LPAC_HIB_IO_1_POSEDGE) << (SCU_HIBERNATE_HDCR_AHIBIO1HI_Pos - SCU_HIBERNATE_HDSTAT_AHIBIO1PEV_Pos)) | (event & (uint32_t)~XMC_SCU_HIB_EVENT_LPAC_HIB_IO_1_POSEDGE);
  event = ((event & XMC_SCU_HIB_EVENT_LPAC_HIB_IO_1_NEGEDGE) << (SCU_HIBERNATE_HDCR_AHIBIO1LO_Pos - SCU_HIBERNATE_HDSTAT_AHIBIO1NEV_Pos)) | (event & (uint32_t)~XMC_SCU_HIB_EVENT_LPAC_HIB_IO_1_NEGEDGE);
#endif
#endif

  while((SCU_GENERAL->MIRRSTS) & SCU_GENERAL_MIRRSTS_HDCR_Msk)
 8001eec:	bf00      	nop
 8001eee:	4b0a      	ldr	r3, [pc, #40]	; (8001f18 <XMC_SCU_HIB_DisableEvent+0x34>)
 8001ef0:	f8d3 30c4 	ldr.w	r3, [r3, #196]	; 0xc4
 8001ef4:	f003 0308 	and.w	r3, r3, #8
 8001ef8:	2b00      	cmp	r3, #0
 8001efa:	d1f8      	bne.n	8001eee <XMC_SCU_HIB_DisableEvent+0xa>
  {
    /* Wait until HDCR register in hibernate domain is ready to accept a write */    
  }
  SCU_HIBERNATE->HDCR &= ~event;
 8001efc:	4b07      	ldr	r3, [pc, #28]	; (8001f1c <XMC_SCU_HIB_DisableEvent+0x38>)
 8001efe:	68db      	ldr	r3, [r3, #12]
 8001f00:	687a      	ldr	r2, [r7, #4]
 8001f02:	43d2      	mvns	r2, r2
 8001f04:	4611      	mov	r1, r2
 8001f06:	4a05      	ldr	r2, [pc, #20]	; (8001f1c <XMC_SCU_HIB_DisableEvent+0x38>)
 8001f08:	400b      	ands	r3, r1
 8001f0a:	60d3      	str	r3, [r2, #12]
}
 8001f0c:	bf00      	nop
 8001f0e:	370c      	adds	r7, #12
 8001f10:	46bd      	mov	sp, r7
 8001f12:	f85d 7b04 	ldr.w	r7, [sp], #4
 8001f16:	4770      	bx	lr
 8001f18:	50004000 	.word	0x50004000
 8001f1c:	50004300 	.word	0x50004300

08001f20 <XMC_SCU_HIB_EnterHibernateState>:

void XMC_SCU_HIB_EnterHibernateState(void) 
{
 8001f20:	b480      	push	{r7}
 8001f22:	af00      	add	r7, sp, #0
  while((SCU_GENERAL->MIRRSTS) & SCU_GENERAL_MIRRSTS_HDCR_Msk)
 8001f24:	bf00      	nop
 8001f26:	4b09      	ldr	r3, [pc, #36]	; (8001f4c <XMC_SCU_HIB_EnterHibernateState+0x2c>)
 8001f28:	f8d3 30c4 	ldr.w	r3, [r3, #196]	; 0xc4
 8001f2c:	f003 0308 	and.w	r3, r3, #8
 8001f30:	2b00      	cmp	r3, #0
 8001f32:	d1f8      	bne.n	8001f26 <XMC_SCU_HIB_EnterHibernateState+0x6>
  {
    /* Wait until HDCR register in hibernate domain is ready to accept a write */    
  }
  SCU_HIBERNATE->HDCR |= SCU_HIBERNATE_HDCR_HIB_Msk;
 8001f34:	4b06      	ldr	r3, [pc, #24]	; (8001f50 <XMC_SCU_HIB_EnterHibernateState+0x30>)
 8001f36:	68db      	ldr	r3, [r3, #12]
 8001f38:	4a05      	ldr	r2, [pc, #20]	; (8001f50 <XMC_SCU_HIB_EnterHibernateState+0x30>)
 8001f3a:	f043 0310 	orr.w	r3, r3, #16
 8001f3e:	60d3      	str	r3, [r2, #12]
}
 8001f40:	bf00      	nop
 8001f42:	46bd      	mov	sp, r7
 8001f44:	f85d 7b04 	ldr.w	r7, [sp], #4
 8001f48:	4770      	bx	lr
 8001f4a:	bf00      	nop
 8001f4c:	50004000 	.word	0x50004000
 8001f50:	50004300 	.word	0x50004300

08001f54 <XMC_SCU_HIB_EnterHibernateStateEx>:

void XMC_SCU_HIB_EnterHibernateStateEx(XMC_SCU_HIB_HIBERNATE_MODE_t mode)
{
 8001f54:	b580      	push	{r7, lr}
 8001f56:	b082      	sub	sp, #8
 8001f58:	af00      	add	r7, sp, #0
 8001f5a:	4603      	mov	r3, r0
 8001f5c:	71fb      	strb	r3, [r7, #7]
  if (mode == XMC_SCU_HIB_HIBERNATE_MODE_EXTERNAL)
 8001f5e:	79fb      	ldrb	r3, [r7, #7]
 8001f60:	2b00      	cmp	r3, #0
 8001f62:	d101      	bne.n	8001f68 <XMC_SCU_HIB_EnterHibernateStateEx+0x14>
  {
    XMC_SCU_HIB_EnterHibernateState();
 8001f64:	f7ff ffdc 	bl	8001f20 <XMC_SCU_HIB_EnterHibernateState>
      /* Wait until HDCR register in hibernate domain is ready to accept a write */
    }
    SCU_HIBERNATE->HINTSET = SCU_HIBERNATE_HINTSET_HIBNINT_Msk;
  }
#endif
}
 8001f68:	bf00      	nop
 8001f6a:	3708      	adds	r7, #8
 8001f6c:	46bd      	mov	sp, r7
 8001f6e:	bd80      	pop	{r7, pc}

08001f70 <XMC_SCU_HIB_SetWakeupTriggerInput>:

void XMC_SCU_HIB_SetWakeupTriggerInput(XMC_SCU_HIB_IO_t pin)
{
 8001f70:	b480      	push	{r7}
 8001f72:	b083      	sub	sp, #12
 8001f74:	af00      	add	r7, sp, #0
 8001f76:	4603      	mov	r3, r0
 8001f78:	71fb      	strb	r3, [r7, #7]
  while((SCU_GENERAL->MIRRSTS) & SCU_GENERAL_MIRRSTS_HDCR_Msk)
 8001f7a:	bf00      	nop
 8001f7c:	4b0e      	ldr	r3, [pc, #56]	; (8001fb8 <XMC_SCU_HIB_SetWakeupTriggerInput+0x48>)
 8001f7e:	f8d3 30c4 	ldr.w	r3, [r3, #196]	; 0xc4
 8001f82:	f003 0308 	and.w	r3, r3, #8
 8001f86:	2b00      	cmp	r3, #0
 8001f88:	d1f8      	bne.n	8001f7c <XMC_SCU_HIB_SetWakeupTriggerInput+0xc>
  {
    /* Wait until HDCR register in hibernate domain is ready to accept a write */    
  }

  if (pin == XMC_SCU_HIB_IO_0)
 8001f8a:	79fb      	ldrb	r3, [r7, #7]
 8001f8c:	2b00      	cmp	r3, #0
 8001f8e:	d106      	bne.n	8001f9e <XMC_SCU_HIB_SetWakeupTriggerInput+0x2e>
  {
    SCU_HIBERNATE->HDCR |= SCU_HIBERNATE_HDCR_WKUPSEL_Msk;
 8001f90:	4b0a      	ldr	r3, [pc, #40]	; (8001fbc <XMC_SCU_HIB_SetWakeupTriggerInput+0x4c>)
 8001f92:	68db      	ldr	r3, [r3, #12]
 8001f94:	4a09      	ldr	r2, [pc, #36]	; (8001fbc <XMC_SCU_HIB_SetWakeupTriggerInput+0x4c>)
 8001f96:	f443 7380 	orr.w	r3, r3, #256	; 0x100
 8001f9a:	60d3      	str	r3, [r2, #12]
  }
  else
  {
    SCU_HIBERNATE->HDCR &= ~SCU_HIBERNATE_HDCR_WKUPSEL_Msk; 
  }
}
 8001f9c:	e005      	b.n	8001faa <XMC_SCU_HIB_SetWakeupTriggerInput+0x3a>
    SCU_HIBERNATE->HDCR &= ~SCU_HIBERNATE_HDCR_WKUPSEL_Msk; 
 8001f9e:	4b07      	ldr	r3, [pc, #28]	; (8001fbc <XMC_SCU_HIB_SetWakeupTriggerInput+0x4c>)
 8001fa0:	68db      	ldr	r3, [r3, #12]
 8001fa2:	4a06      	ldr	r2, [pc, #24]	; (8001fbc <XMC_SCU_HIB_SetWakeupTriggerInput+0x4c>)
 8001fa4:	f423 7380 	bic.w	r3, r3, #256	; 0x100
 8001fa8:	60d3      	str	r3, [r2, #12]
}
 8001faa:	bf00      	nop
 8001fac:	370c      	adds	r7, #12
 8001fae:	46bd      	mov	sp, r7
 8001fb0:	f85d 7b04 	ldr.w	r7, [sp], #4
 8001fb4:	4770      	bx	lr
 8001fb6:	bf00      	nop
 8001fb8:	50004000 	.word	0x50004000
 8001fbc:	50004300 	.word	0x50004300

08001fc0 <XMC_SCU_HIB_SetPinMode>:

void XMC_SCU_HIB_SetPinMode(XMC_SCU_HIB_IO_t pin, XMC_SCU_HIB_PIN_MODE_t mode)
{
 8001fc0:	b480      	push	{r7}
 8001fc2:	b083      	sub	sp, #12
 8001fc4:	af00      	add	r7, sp, #0
 8001fc6:	4603      	mov	r3, r0
 8001fc8:	6039      	str	r1, [r7, #0]
 8001fca:	71fb      	strb	r3, [r7, #7]
  while((SCU_GENERAL->MIRRSTS) & SCU_GENERAL_MIRRSTS_HDCR_Msk)
 8001fcc:	bf00      	nop
 8001fce:	4b0f      	ldr	r3, [pc, #60]	; (800200c <XMC_SCU_HIB_SetPinMode+0x4c>)
 8001fd0:	f8d3 30c4 	ldr.w	r3, [r3, #196]	; 0xc4
 8001fd4:	f003 0308 	and.w	r3, r3, #8
 8001fd8:	2b00      	cmp	r3, #0
 8001fda:	d1f8      	bne.n	8001fce <XMC_SCU_HIB_SetPinMode+0xe>
  {
    /* Wait until HDCR register in hibernate domain is ready to accept a write */    
  }
  SCU_HIBERNATE->HDCR = (SCU_HIBERNATE->HDCR & ~(SCU_HIBERNATE_HDCR_HIBIO0SEL_Msk << (SCU_HIBERNATE_HDCR_HIBIOSEL_Size * pin))) |
 8001fdc:	4b0c      	ldr	r3, [pc, #48]	; (8002010 <XMC_SCU_HIB_SetPinMode+0x50>)
 8001fde:	68da      	ldr	r2, [r3, #12]
 8001fe0:	79fb      	ldrb	r3, [r7, #7]
 8001fe2:	009b      	lsls	r3, r3, #2
 8001fe4:	f44f 2170 	mov.w	r1, #983040	; 0xf0000
 8001fe8:	fa01 f303 	lsl.w	r3, r1, r3
 8001fec:	43db      	mvns	r3, r3
 8001fee:	401a      	ands	r2, r3
                        (mode << (SCU_HIBERNATE_HDCR_HIBIOSEL_Size * pin));
 8001ff0:	79fb      	ldrb	r3, [r7, #7]
 8001ff2:	009b      	lsls	r3, r3, #2
 8001ff4:	6839      	ldr	r1, [r7, #0]
 8001ff6:	fa01 f303 	lsl.w	r3, r1, r3
  SCU_HIBERNATE->HDCR = (SCU_HIBERNATE->HDCR & ~(SCU_HIBERNATE_HDCR_HIBIO0SEL_Msk << (SCU_HIBERNATE_HDCR_HIBIOSEL_Size * pin))) |
 8001ffa:	4905      	ldr	r1, [pc, #20]	; (8002010 <XMC_SCU_HIB_SetPinMode+0x50>)
 8001ffc:	4313      	orrs	r3, r2
 8001ffe:	60cb      	str	r3, [r1, #12]
}
 8002000:	bf00      	nop
 8002002:	370c      	adds	r7, #12
 8002004:	46bd      	mov	sp, r7
 8002006:	f85d 7b04 	ldr.w	r7, [sp], #4
 800200a:	4770      	bx	lr
 800200c:	50004000 	.word	0x50004000
 8002010:	50004300 	.word	0x50004300

08002014 <XMC_SCU_HIB_SetPinOutputLevel>:

void XMC_SCU_HIB_SetPinOutputLevel(XMC_SCU_HIB_IO_t pin, XMC_SCU_HIB_IO_OUTPUT_LEVEL_t level)
{
 8002014:	b480      	push	{r7}
 8002016:	b083      	sub	sp, #12
 8002018:	af00      	add	r7, sp, #0
 800201a:	4603      	mov	r3, r0
 800201c:	460a      	mov	r2, r1
 800201e:	71fb      	strb	r3, [r7, #7]
 8002020:	4613      	mov	r3, r2
 8002022:	80bb      	strh	r3, [r7, #4]
  while((SCU_GENERAL->MIRRSTS) & SCU_GENERAL_MIRRSTS_HDCR_Msk)
 8002024:	bf00      	nop
 8002026:	4b0f      	ldr	r3, [pc, #60]	; (8002064 <XMC_SCU_HIB_SetPinOutputLevel+0x50>)
 8002028:	f8d3 30c4 	ldr.w	r3, [r3, #196]	; 0xc4
 800202c:	f003 0308 	and.w	r3, r3, #8
 8002030:	2b00      	cmp	r3, #0
 8002032:	d1f8      	bne.n	8002026 <XMC_SCU_HIB_SetPinOutputLevel+0x12>
  {
    /* Wait until HDCR register in hibernate domain is ready to accept a write */    
  }
  SCU_HIBERNATE->HDCR = (SCU_HIBERNATE->HDCR & ~(SCU_HIBERNATE_HDCR_HIBIO0POL_Msk << pin)) |
 8002034:	4b0c      	ldr	r3, [pc, #48]	; (8002068 <XMC_SCU_HIB_SetPinOutputLevel+0x54>)
 8002036:	68da      	ldr	r2, [r3, #12]
 8002038:	79fb      	ldrb	r3, [r7, #7]
 800203a:	f44f 5180 	mov.w	r1, #4096	; 0x1000
 800203e:	fa01 f303 	lsl.w	r3, r1, r3
 8002042:	43db      	mvns	r3, r3
 8002044:	4013      	ands	r3, r2
                        (level << pin);
 8002046:	88b9      	ldrh	r1, [r7, #4]
 8002048:	79fa      	ldrb	r2, [r7, #7]
 800204a:	fa01 f202 	lsl.w	r2, r1, r2
 800204e:	4611      	mov	r1, r2
  SCU_HIBERNATE->HDCR = (SCU_HIBERNATE->HDCR & ~(SCU_HIBERNATE_HDCR_HIBIO0POL_Msk << pin)) |
 8002050:	4a05      	ldr	r2, [pc, #20]	; (8002068 <XMC_SCU_HIB_SetPinOutputLevel+0x54>)
 8002052:	430b      	orrs	r3, r1
 8002054:	60d3      	str	r3, [r2, #12]
}
 8002056:	bf00      	nop
 8002058:	370c      	adds	r7, #12
 800205a:	46bd      	mov	sp, r7
 800205c:	f85d 7b04 	ldr.w	r7, [sp], #4
 8002060:	4770      	bx	lr
 8002062:	bf00      	nop
 8002064:	50004000 	.word	0x50004000
 8002068:	50004300 	.word	0x50004300

0800206c <XMC_SCU_HIB_SetInput0>:

void XMC_SCU_HIB_SetInput0(XMC_SCU_HIB_IO_t pin)
{
 800206c:	b480      	push	{r7}
 800206e:	b083      	sub	sp, #12
 8002070:	af00      	add	r7, sp, #0
 8002072:	4603      	mov	r3, r0
 8002074:	71fb      	strb	r3, [r7, #7]
  while((SCU_GENERAL->MIRRSTS) & SCU_GENERAL_MIRRSTS_HDCR_Msk)
 8002076:	bf00      	nop
 8002078:	4b0e      	ldr	r3, [pc, #56]	; (80020b4 <XMC_SCU_HIB_SetInput0+0x48>)
 800207a:	f8d3 30c4 	ldr.w	r3, [r3, #196]	; 0xc4
 800207e:	f003 0308 	and.w	r3, r3, #8
 8002082:	2b00      	cmp	r3, #0
 8002084:	d1f8      	bne.n	8002078 <XMC_SCU_HIB_SetInput0+0xc>
  {
    /* Wait until HDCR register in hibernate domain is ready to accept a write */    
  }

  if (pin == XMC_SCU_HIB_IO_0)
 8002086:	79fb      	ldrb	r3, [r7, #7]
 8002088:	2b00      	cmp	r3, #0
 800208a:	d106      	bne.n	800209a <XMC_SCU_HIB_SetInput0+0x2e>
  {
    SCU_HIBERNATE->HDCR |= SCU_HIBERNATE_HDCR_GPI0SEL_Msk;
 800208c:	4b0a      	ldr	r3, [pc, #40]	; (80020b8 <XMC_SCU_HIB_SetInput0+0x4c>)
 800208e:	68db      	ldr	r3, [r3, #12]
 8002090:	4a09      	ldr	r2, [pc, #36]	; (80020b8 <XMC_SCU_HIB_SetInput0+0x4c>)
 8002092:	f443 6380 	orr.w	r3, r3, #1024	; 0x400
 8002096:	60d3      	str	r3, [r2, #12]
  }
  else
  {
    SCU_HIBERNATE->HDCR &= ~SCU_HIBERNATE_HDCR_GPI0SEL_Msk; 
  }
}
 8002098:	e005      	b.n	80020a6 <XMC_SCU_HIB_SetInput0+0x3a>
    SCU_HIBERNATE->HDCR &= ~SCU_HIBERNATE_HDCR_GPI0SEL_Msk; 
 800209a:	4b07      	ldr	r3, [pc, #28]	; (80020b8 <XMC_SCU_HIB_SetInput0+0x4c>)
 800209c:	68db      	ldr	r3, [r3, #12]
 800209e:	4a06      	ldr	r2, [pc, #24]	; (80020b8 <XMC_SCU_HIB_SetInput0+0x4c>)
 80020a0:	f423 6380 	bic.w	r3, r3, #1024	; 0x400
 80020a4:	60d3      	str	r3, [r2, #12]
}
 80020a6:	bf00      	nop
 80020a8:	370c      	adds	r7, #12
 80020aa:	46bd      	mov	sp, r7
 80020ac:	f85d 7b04 	ldr.w	r7, [sp], #4
 80020b0:	4770      	bx	lr
 80020b2:	bf00      	nop
 80020b4:	50004000 	.word	0x50004000
 80020b8:	50004300 	.word	0x50004300

080020bc <XMC_SCU_HIB_SetSR0Input>:

void XMC_SCU_HIB_SetSR0Input(XMC_SCU_HIB_SR0_INPUT_t input)
{
 80020bc:	b480      	push	{r7}
 80020be:	b083      	sub	sp, #12
 80020c0:	af00      	add	r7, sp, #0
 80020c2:	4603      	mov	r3, r0
 80020c4:	80fb      	strh	r3, [r7, #6]
  while((SCU_GENERAL->MIRRSTS) & SCU_GENERAL_MIRRSTS_HDCR_Msk)
 80020c6:	bf00      	nop
 80020c8:	4b0a      	ldr	r3, [pc, #40]	; (80020f4 <XMC_SCU_HIB_SetSR0Input+0x38>)
 80020ca:	f8d3 30c4 	ldr.w	r3, [r3, #196]	; 0xc4
 80020ce:	f003 0308 	and.w	r3, r3, #8
 80020d2:	2b00      	cmp	r3, #0
 80020d4:	d1f8      	bne.n	80020c8 <XMC_SCU_HIB_SetSR0Input+0xc>
    /* Wait until HDCR register in hibernate domain is ready to accept a write */
  }
#if ((UC_SERIES == XMC44) || (UC_SERIES == XMC42) || (UC_SERIES == XMC41))
  SCU_HIBERNATE->HDCR = (SCU_HIBERNATE->HDCR & (uint32_t)~(SCU_HIBERNATE_HDCR_GPI0SEL_Msk | SCU_HIBERNATE_HDCR_ADIG0SEL_Msk)) | 
#else
  SCU_HIBERNATE->HDCR = (SCU_HIBERNATE->HDCR & (uint32_t)~(SCU_HIBERNATE_HDCR_GPI0SEL_Msk)) | 
 80020d6:	4b08      	ldr	r3, [pc, #32]	; (80020f8 <XMC_SCU_HIB_SetSR0Input+0x3c>)
 80020d8:	68db      	ldr	r3, [r3, #12]
 80020da:	f423 6280 	bic.w	r2, r3, #1024	; 0x400
 80020de:	88fb      	ldrh	r3, [r7, #6]
 80020e0:	4905      	ldr	r1, [pc, #20]	; (80020f8 <XMC_SCU_HIB_SetSR0Input+0x3c>)
